{
  "abi": [
    {
      "type": "constructor",
      "inputs": [],
      "stateMutability": "nonpayable"
    },
    {
      "type": "receive",
      "stateMutability": "payable"
    },
    {
      "type": "function",
      "name": "UPGRADE_INTERFACE_VERSION",
      "inputs": [],
      "outputs": [
        {
          "name": "",
          "type": "string",
          "internalType": "string"
        }
      ],
      "stateMutability": "view"
    },
    {
      "type": "function",
      "name": "backersManager",
      "inputs": [],
      "outputs": [
        {
          "name": "",
          "type": "address",
          "internalType": "contract BackersManagerRootstockCollective"
        }
      ],
      "stateMutability": "view"
    },
    {
      "type": "function",
      "name": "foundationTreasury",
      "inputs": [],
      "outputs": [
        {
          "name": "",
          "type": "address",
          "internalType": "address"
        }
      ],
      "stateMutability": "view"
    },
    {
      "type": "function",
      "name": "governanceManager",
      "inputs": [],
      "outputs": [
        {
          "name": "",
          "type": "address",
          "internalType": "contract IGovernanceManagerRootstockCollective"
        }
      ],
      "stateMutability": "view"
    },
    {
      "type": "function",
      "name": "initialize",
      "inputs": [
        {
          "name": "governanceManager_",
          "type": "address",
          "internalType": "contract IGovernanceManagerRootstockCollective"
        }
      ],
      "outputs": [],
      "stateMutability": "nonpayable"
    },
    {
      "type": "function",
      "name": "initializeCollectiveRewardsAddresses",
      "inputs": [
        {
          "name": "backersManager_",
          "type": "address",
          "internalType": "address"
        }
      ],
      "outputs": [],
      "stateMutability": "nonpayable"
    },
    {
      "type": "function",
      "name": "proxiableUUID",
      "inputs": [],
      "outputs": [
        {
          "name": "",
          "type": "bytes32",
          "internalType": "bytes32"
        }
      ],
      "stateMutability": "view"
    },
    {
      "type": "function",
      "name": "rewardCoinbaseAmountPerCycle",
      "inputs": [
        {
          "name": "cycleTimestampStart",
          "type": "uint256",
          "internalType": "uint256"
        }
      ],
      "outputs": [
        {
          "name": "amount",
          "type": "uint256",
          "internalType": "uint256"
        }
      ],
      "stateMutability": "view"
    },
    {
      "type": "function",
      "name": "rewardToken",
      "inputs": [],
      "outputs": [
        {
          "name": "",
          "type": "address",
          "internalType": "contract IERC20"
        }
      ],
      "stateMutability": "view"
    },
    {
      "type": "function",
      "name": "rewardTokenAmountPerCycle",
      "inputs": [
        {
          "name": "cycleTimestampStart",
          "type": "uint256",
          "internalType": "uint256"
        }
      ],
      "outputs": [
        {
          "name": "amount",
          "type": "uint256",
          "internalType": "uint256"
        }
      ],
      "stateMutability": "view"
    },
    {
      "type": "function",
      "name": "sendRewards",
      "inputs": [
        {
          "name": "amountERC20_",
          "type": "uint256",
          "internalType": "uint256"
        },
        {
          "name": "amountCoinbase_",
          "type": "uint256",
          "internalType": "uint256"
        }
      ],
      "outputs": [],
      "stateMutability": "payable"
    },
    {
      "type": "function",
      "name": "sendRewardsAndStartDistribution",
      "inputs": [
        {
          "name": "amountERC20_",
          "type": "uint256",
          "internalType": "uint256"
        },
        {
          "name": "amountCoinbase_",
          "type": "uint256",
          "internalType": "uint256"
        }
      ],
      "outputs": [],
      "stateMutability": "payable"
    },
    {
      "type": "function",
      "name": "upgradeToAndCall",
      "inputs": [
        {
          "name": "newImplementation",
          "type": "address",
          "internalType": "address"
        },
        {
          "name": "data",
          "type": "bytes",
          "internalType": "bytes"
        }
      ],
      "outputs": [],
      "stateMutability": "payable"
    },
    {
      "type": "event",
      "name": "Initialized",
      "inputs": [
        {
          "name": "version",
          "type": "uint64",
          "indexed": false,
          "internalType": "uint64"
        }
      ],
      "anonymous": false
    },
    {
      "type": "event",
      "name": "Upgraded",
      "inputs": [
        {
          "name": "implementation",
          "type": "address",
          "indexed": true,
          "internalType": "address"
        }
      ],
      "anonymous": false
    },
    {
      "type": "error",
      "name": "AddressEmptyCode",
      "inputs": [
        {
          "name": "target",
          "type": "address",
          "internalType": "address"
        }
      ]
    },
    {
      "type": "error",
      "name": "CollectiveRewardsAddressesAlreadyInitialized",
      "inputs": []
    },
    {
      "type": "error",
      "name": "ERC1967InvalidImplementation",
      "inputs": [
        {
          "name": "implementation",
          "type": "address",
          "internalType": "address"
        }
      ]
    },
    {
      "type": "error",
      "name": "ERC1967NonPayable",
      "inputs": []
    },
    {
      "type": "error",
      "name": "FailedInnerCall",
      "inputs": []
    },
    {
      "type": "error",
      "name": "InvalidInitialization",
      "inputs": []
    },
    {
      "type": "error",
      "name": "NotFoundationTreasury",
      "inputs": []
    },
    {
      "type": "error",
      "name": "NotInitializing",
      "inputs": []
    },
    {
      "type": "error",
      "name": "UUPSUnauthorizedCallContext",
      "inputs": []
    },
    {
      "type": "error",
      "name": "UUPSUnsupportedProxiableUUID",
      "inputs": [
        {
          "name": "slot",
          "type": "bytes32",
          "internalType": "bytes32"
        }
      ]
    }
  ],
  "address": "0xDcb3ce3b4A0971a49Fac10885152124528fA032b",
  "args": [],
  "bytecode": "0x60a06040523060805234801561001457600080fd5b5061001d610022565b6100d4565b7ff0c57e16840df040f15088dc2f81fe391c3923bec73e23a9662efc9c229c6a00805468010000000000000000900460ff16156100725760405163f92ee8a960e01b815260040160405180910390fd5b80546001600160401b03908116146100d15780546001600160401b0319166001600160401b0390811782556040519081527fc7f505b2f371ae2175ee4913f4499e1f2633a7b5936321eed1cdaeb6115181d29060200160405180910390a15b50565b6080516112496100fd6000396000818161091f015281816109480152610be701526112496000f3fe6080604052600436106100d65760003560e01c8063ad3cb1cc1161007f578063c835158b11610059578063c835158b1461025a578063ce7ee5ac14610287578063d2e6d1c3146102b4578063f7c618c1146102e157600080fd5b8063ad3cb1cc146101b7578063bc147e201461020d578063c4d66de81461023a57600080fd5b806345fbf060116100b057806345fbf0601461012a5780634f1ef2861461018157806352d1902d1461019457600080fd5b806305dc2a80146100e257806319958e301461010457806327fb339f1461011757600080fd5b366100dd57005b600080fd5b3480156100ee57600080fd5b506101026100fd366004610fea565b61030e565b005b610102610112366004611007565b610461565b610102610125366004611007565b610584565b34801561013657600080fd5b506035546101579073ffffffffffffffffffffffffffffffffffffffff1681565b60405173ffffffffffffffffffffffffffffffffffffffff90911681526020015b60405180910390f35b61010261018f366004611058565b610613565b3480156101a057600080fd5b506101a961062e565b604051908152602001610178565b3480156101c357600080fd5b506102006040518060400160405280600581526020017f352e302e3000000000000000000000000000000000000000000000000000000081525081565b604051610178919061115e565b34801561021957600080fd5b506101a96102283660046111af565b60376020526000908152604090205481565b34801561024657600080fd5b50610102610255366004610fea565b61065d565b34801561026657600080fd5b506101a96102753660046111af565b60366020526000908152604090205481565b34801561029357600080fd5b506033546101579073ffffffffffffffffffffffffffffffffffffffff1681565b3480156102c057600080fd5b506000546101579073ffffffffffffffffffffffffffffffffffffffff1681565b3480156102ed57600080fd5b506034546101579073ffffffffffffffffffffffffffffffffffffffff1681565b60355473ffffffffffffffffffffffffffffffffffffffff161561035e576040517f308c2e5900000000000000000000000000000000000000000000000000000000815260040160405180910390fd5b603580547fffffffffffffffffffffffff00000000000000000000000000000000000000001673ffffffffffffffffffffffffffffffffffffffff8316908117909155604080517ff7c618c1000000000000000000000000000000000000000000000000000000008152905163f7c618c1916004808201926020929091908290030181865afa1580156103f5573d6000803e3d6000fd5b505050506040513d601f19601f8201168201806040525081019061041991906111c8565b603480547fffffffffffffffffffffffff00000000000000000000000000000000000000001673ffffffffffffffffffffffffffffffffffffffff9290921691909117905550565b6000546040517fe053dd6100000000000000000000000000000000000000000000000000000000815233600482015273ffffffffffffffffffffffffffffffffffffffff9091169063e053dd619060240160006040518083038186803b1580156104ca57600080fd5b505afa1580156104de573d6000803e3d6000fd5b505050506104ec82826107dd565b603560009054906101000a900473ffffffffffffffffffffffffffffffffffffffff1673ffffffffffffffffffffffffffffffffffffffff1663d83623dd6040518163ffffffff1660e01b81526004016020604051808303816000875af115801561055b573d6000803e3d6000fd5b505050506040513d601f19601f8201168201806040525081019061057f91906111e5565b505050565b6000546040517fe053dd6100000000000000000000000000000000000000000000000000000000815233600482015273ffffffffffffffffffffffffffffffffffffffff9091169063e053dd619060240160006040518083038186803b1580156105ed57600080fd5b505afa158015610601573d6000803e3d6000fd5b5050505061060f82826107dd565b5050565b61061b610907565b61062482610a0d565b61060f8282610a91565b6000610638610bcf565b507f360894a13ba1a3210667c828492db98dca3e2076cc3735a920a3ca505d382bbc90565b7ff0c57e16840df040f15088dc2f81fe391c3923bec73e23a9662efc9c229c6a00805468010000000000000000810460ff16159067ffffffffffffffff166000811580156106a85750825b905060008267ffffffffffffffff1660011480156106c55750303b155b9050811580156106d3575080155b1561070a576040517ff92ee8a900000000000000000000000000000000000000000000000000000000815260040160405180910390fd5b84547fffffffffffffffffffffffffffffffffffffffffffffffff0000000000000000166001178555831561076b5784547fffffffffffffffffffffffffffffffffffffffffffffff00ffffffffffffffff16680100000000000000001785555b61077486610c3e565b83156107d55784547fffffffffffffffffffffffffffffffffffffffffffffff00ffffffffffffffff168555604051600181527fc7f505b2f371ae2175ee4913f4499e1f2633a7b5936321eed1cdaeb6115181d29060200160405180910390a15b505050505050565b6034546035546040517f095ea7b300000000000000000000000000000000000000000000000000000000815273ffffffffffffffffffffffffffffffffffffffff91821660048201526024810185905291169063095ea7b3906044016020604051808303816000875af1158015610858573d6000803e3d6000fd5b505050506040513d601f19601f8201168201806040525081019061087c91906111e5565b506035546040517f3c6b16ab0000000000000000000000000000000000000000000000000000000081526004810184905273ffffffffffffffffffffffffffffffffffffffff90911690633c6b16ab9083906024016000604051808303818588803b1580156108ea57600080fd5b505af11580156108fe573d6000803e3d6000fd5b50505050505050565b3073ffffffffffffffffffffffffffffffffffffffff7f00000000000000000000000000000000000000000000000000000000000000001614806109d457507f000000000000000000000000000000000000000000000000000000000000000073ffffffffffffffffffffffffffffffffffffffff166109bb7f360894a13ba1a3210667c828492db98dca3e2076cc3735a920a3ca505d382bbc5473ffffffffffffffffffffffffffffffffffffffff1690565b73ffffffffffffffffffffffffffffffffffffffff1614155b15610a0b576040517fe07c8dba00000000000000000000000000000000000000000000000000000000815260040160405180910390fd5b565b6000546040517f68f8e28500000000000000000000000000000000000000000000000000000000815233600482015273ffffffffffffffffffffffffffffffffffffffff909116906368f8e2859060240160006040518083038186803b158015610a7657600080fd5b505afa158015610a8a573d6000803e3d6000fd5b5050505050565b8173ffffffffffffffffffffffffffffffffffffffff166352d1902d6040518163ffffffff1660e01b8152600401602060405180830381865afa925050508015610b16575060408051601f3d9081017fffffffffffffffffffffffffffffffffffffffffffffffffffffffffffffffe0168201909252610b1391810190611207565b60015b610b69576040517f4c9c8ce300000000000000000000000000000000000000000000000000000000815273ffffffffffffffffffffffffffffffffffffffff831660048201526024015b60405180910390fd5b7f360894a13ba1a3210667c828492db98dca3e2076cc3735a920a3ca505d382bbc8114610bc5576040517faa1d49a400000000000000000000000000000000000000000000000000000000815260048101829052602401610b60565b61057f8383610c95565b3073ffffffffffffffffffffffffffffffffffffffff7f00000000000000000000000000000000000000000000000000000000000000001614610a0b576040517fe07c8dba00000000000000000000000000000000000000000000000000000000815260040160405180910390fd5b610c46610cf8565b610c4e610d5f565b600080547fffffffffffffffffffffffff00000000000000000000000000000000000000001673ffffffffffffffffffffffffffffffffffffffff92909216919091179055565b610c9e82610d67565b60405173ffffffffffffffffffffffffffffffffffffffff8316907fbc7cd75a20ee27fd9adebab32041f755214dbc6bffa90cc0225b39da2e5c2d3b90600090a2805115610cf05761057f8282610e36565b61060f610eb9565b7ff0c57e16840df040f15088dc2f81fe391c3923bec73e23a9662efc9c229c6a005468010000000000000000900460ff16610a0b576040517fd7e6bcf800000000000000000000000000000000000000000000000000000000815260040160405180910390fd5b610a0b610cf8565b8073ffffffffffffffffffffffffffffffffffffffff163b600003610dd0576040517f4c9c8ce300000000000000000000000000000000000000000000000000000000815273ffffffffffffffffffffffffffffffffffffffff82166004820152602401610b60565b7f360894a13ba1a3210667c828492db98dca3e2076cc3735a920a3ca505d382bbc80547fffffffffffffffffffffffff00000000000000000000000000000000000000001673ffffffffffffffffffffffffffffffffffffffff92909216919091179055565b60606000808473ffffffffffffffffffffffffffffffffffffffff1684604051610e609190611220565b600060405180830381855af49150503d8060008114610e9b576040519150601f19603f3d011682016040523d82523d6000602084013e610ea0565b606091505b5091509150610eb0858383610ef1565b95945050505050565b3415610a0b576040517fb398979f00000000000000000000000000000000000000000000000000000000815260040160405180910390fd5b606082610f0657610f0182610f83565b610f7c565b8151158015610f2a575073ffffffffffffffffffffffffffffffffffffffff84163b155b15610f79576040517f9996b31500000000000000000000000000000000000000000000000000000000815273ffffffffffffffffffffffffffffffffffffffff85166004820152602401610b60565b50805b9392505050565b805115610f935780518082602001fd5b6040517f1425ea4200000000000000000000000000000000000000000000000000000000815260040160405180910390fd5b50565b73ffffffffffffffffffffffffffffffffffffffff81168114610fc557600080fd5b600060208284031215610ffc57600080fd5b8135610f7c81610fc8565b6000806040838503121561101a57600080fd5b50508035926020909101359150565b7f4e487b7100000000000000000000000000000000000000000000000000000000600052604160045260246000fd5b6000806040838503121561106b57600080fd5b823561107681610fc8565b9150602083013567ffffffffffffffff8082111561109357600080fd5b818501915085601f8301126110a757600080fd5b8135818111156110b9576110b9611029565b604051601f82017fffffffffffffffffffffffffffffffffffffffffffffffffffffffffffffffe0908116603f011681019083821181831017156110ff576110ff611029565b8160405282815288602084870101111561111857600080fd5b8260208601602083013760006020848301015280955050505050509250929050565b60005b8381101561115557818101518382015260200161113d565b50506000910152565b602081526000825180602084015261117d81604085016020870161113a565b601f017fffffffffffffffffffffffffffffffffffffffffffffffffffffffffffffffe0169190910160400192915050565b6000602082840312156111c157600080fd5b5035919050565b6000602082840312156111da57600080fd5b8151610f7c81610fc8565b6000602082840312156111f757600080fd5b81518015158114610f7c57600080fd5b60006020828403121561121957600080fd5b5051919050565b6000825161123281846020870161113a565b919091019291505056fea164736f6c6343000814000a",
  "devdoc": {
    "version": 1,
    "kind": "dev",
    "methods": {
      "constructor": {},
      "initialize(address)": {
        "details": "initializeCollectiveRewardsAddresses() must be called ASAP after this initialization",
        "params": {
          "governanceManager_": "contract with permissioned roles"
        }
      },
      "initializeCollectiveRewardsAddresses(address)": {
        "details": "used to solve circular dependency, backersManager is initialized with this contract address  it must be called ASAP after the initialize.",
        "params": {
          "backersManager_": "BackersManagerRootstockCollective contract address"
        }
      },
      "proxiableUUID()": {
        "details": "Implementation of the ERC1822 {proxiableUUID} function. This returns the storage slot used by the implementation. It is used to validate the implementation's compatibility when performing an upgrade. IMPORTANT: A proxy pointing at a proxiable contract should not be considered proxiable itself, because this risks bricking a proxy that upgrades to it, by delegating to itself until out of gas. Thus it is critical that this function revert if invoked through a proxy. This is guaranteed by the `notDelegated` modifier."
      },
      "sendRewards(uint256,uint256)": {
        "details": "reverts if is not called by foundation treasury address  reverts if rewards balance is insufficient",
        "params": {
          "amountCoinbase_": "amount of Coinbase reward token to send",
          "amountERC20_": "amount of ERC20 reward token to send"
        }
      },
      "sendRewardsAndStartDistribution(uint256,uint256)": {
        "details": "reverts if is not called by foundation treasury address  reverts if rewards balance is insufficient  reverts if is not in the distribution window",
        "params": {
          "amountCoinbase_": "amount of Coinbase reward token to send",
          "amountERC20_": "amount of ERC20 reward token to send"
        }
      },
      "upgradeToAndCall(address,bytes)": {
        "details": "Upgrade the implementation of the proxy to `newImplementation`, and subsequently execute the function call encoded in `data`. Calls {_authorizeUpgrade}. Emits an {Upgraded} event."
      }
    },
    "events": {
      "Initialized(uint64)": {
        "details": "Triggered when the contract has been initialized or reinitialized."
      },
      "Upgraded(address)": {
        "details": "Emitted when the implementation is upgraded."
      }
    },
    "errors": {
      "AddressEmptyCode(address)": [
        {
          "details": "There's no code at `target` (it is not a contract)."
        }
      ],
      "ERC1967InvalidImplementation(address)": [
        {
          "details": "The `implementation` of the proxy is invalid."
        }
      ],
      "ERC1967NonPayable()": [
        {
          "details": "An upgrade function sees `msg.value > 0` that may be lost."
        }
      ],
      "FailedInnerCall()": [
        {
          "details": "A call to an address target failed. The target may have reverted."
        }
      ],
      "InvalidInitialization()": [
        {
          "details": "The contract is already initialized."
        }
      ],
      "NotInitializing()": [
        {
          "details": "The contract is not initializing."
        }
      ],
      "UUPSUnauthorizedCallContext()": [
        {
          "details": "The call is from an unauthorized context."
        }
      ],
      "UUPSUnsupportedProxiableUUID(bytes32)": [
        {
          "details": "The storage `slot` is unsupported as a UUID."
        }
      ]
    },
    "title": "RewardDistributorRootstockCollective"
  },
  "numDeployments": 1,
  "solcInputHash": "0x0000000000000000000000000000000000000000000000000000000000000000",
  "storageLayout": {
    "storage": [
      {
        "astId": 60150,
        "contract": "src/RewardDistributorRootstockCollective.sol:RewardDistributorRootstockCollective",
        "label": "governanceManager",
        "offset": 0,
        "slot": "0",
        "type": "t_contract(IGovernanceManagerRootstockCollective)60407"
      },
      {
        "astId": 60182,
        "contract": "src/RewardDistributorRootstockCollective.sol:RewardDistributorRootstockCollective",
        "label": "__gap",
        "offset": 0,
        "slot": "1",
        "type": "t_array(t_uint256)50_storage"
      },
      {
        "astId": 58298,
        "contract": "src/RewardDistributorRootstockCollective.sol:RewardDistributorRootstockCollective",
        "label": "foundationTreasury",
        "offset": 0,
        "slot": "51",
        "type": "t_address"
      },
      {
        "astId": 58302,
        "contract": "src/RewardDistributorRootstockCollective.sol:RewardDistributorRootstockCollective",
        "label": "rewardToken",
        "offset": 0,
        "slot": "52",
        "type": "t_contract(IERC20)2025"
      },
      {
        "astId": 58306,
        "contract": "src/RewardDistributorRootstockCollective.sol:RewardDistributorRootstockCollective",
        "label": "backersManager",
        "offset": 0,
        "slot": "53",
        "type": "t_contract(BackersManagerRootstockCollective)56588"
      },
      {
        "astId": 58311,
        "contract": "src/RewardDistributorRootstockCollective.sol:RewardDistributorRootstockCollective",
        "label": "rewardTokenAmountPerCycle",
        "offset": 0,
        "slot": "54",
        "type": "t_mapping(t_uint256,t_uint256)"
      },
      {
        "astId": 58316,
        "contract": "src/RewardDistributorRootstockCollective.sol:RewardDistributorRootstockCollective",
        "label": "rewardCoinbaseAmountPerCycle",
        "offset": 0,
        "slot": "55",
        "type": "t_mapping(t_uint256,t_uint256)"
      },
      {
        "astId": 58448,
        "contract": "src/RewardDistributorRootstockCollective.sol:RewardDistributorRootstockCollective",
        "label": "__gap",
        "offset": 0,
        "slot": "56",
        "type": "t_array(t_uint256)50_storage"
      }
    ],
    "types": {
      "t_address": {
        "encoding": "inplace",
        "label": "address",
        "numberOfBytes": "20"
      },
      "t_array(t_uint256)50_storage": {
        "encoding": "inplace",
        "label": "uint256[50]",
        "numberOfBytes": "1600",
        "base": "t_uint256"
      },
      "t_contract(BackersManagerRootstockCollective)56588": {
        "encoding": "inplace",
        "label": "contract BackersManagerRootstockCollective",
        "numberOfBytes": "20"
      },
      "t_contract(IERC20)2025": {
        "encoding": "inplace",
        "label": "contract IERC20",
        "numberOfBytes": "20"
      },
      "t_contract(IGovernanceManagerRootstockCollective)60407": {
        "encoding": "inplace",
        "label": "contract IGovernanceManagerRootstockCollective",
        "numberOfBytes": "20"
      },
      "t_mapping(t_uint256,t_uint256)": {
        "encoding": "mapping",
        "key": "t_uint256",
        "label": "mapping(uint256 => uint256)",
        "numberOfBytes": "32",
        "value": "t_uint256"
      },
      "t_uint256": {
        "encoding": "inplace",
        "label": "uint256",
        "numberOfBytes": "32"
      }
    }
  },
  "transactionHash": "0xbce1bbf2205bcd5cea5efbe738e8036fab431cb0a206474c2affe7e190dc4f68",
  "userdoc": {
    "version": 1,
    "kind": "user",
    "methods": {
      "backersManager()": {
        "notice": "BackersManagerRootstockCollective contract address"
      },
      "foundationTreasury()": {
        "notice": "foundation treasury address"
      },
      "initialize(address)": {
        "notice": "contract initializer"
      },
      "initializeCollectiveRewardsAddresses(address)": {
        "notice": "CollectiveRewards addresses initializer"
      },
      "rewardCoinbaseAmountPerCycle(uint256)": {
        "notice": "tracks amount of coinbase distributed per cycle"
      },
      "rewardToken()": {
        "notice": "address of the token rewarded to builder and backers"
      },
      "rewardTokenAmountPerCycle(uint256)": {
        "notice": "tracks amount of reward tokens distributed per cycle"
      },
      "sendRewards(uint256,uint256)": {
        "notice": "sends rewards to backersManager contract to be distributed to the gauges"
      },
      "sendRewardsAndStartDistribution(uint256,uint256)": {
        "notice": "sends rewards to backersManager contract and starts the distribution to the gauges"
      }
    },
    "notice": "Accumulates all the rewards to be distributed for each cycle"
  }
}