{
  "abi": [
    {
      "type": "constructor",
      "inputs": [],
      "stateMutability": "nonpayable"
    },
    {
      "type": "function",
      "name": "UPGRADE_INTERFACE_VERSION",
      "inputs": [],
      "outputs": [
        {
          "name": "",
          "type": "string",
          "internalType": "string"
        }
      ],
      "stateMutability": "view"
    },
    {
      "type": "function",
      "name": "activateBuilder",
      "inputs": [
        {
          "name": "builder_",
          "type": "address",
          "internalType": "address"
        },
        {
          "name": "rewardReceiver_",
          "type": "address",
          "internalType": "address"
        },
        {
          "name": "rewardPercentage_",
          "type": "uint64",
          "internalType": "uint64"
        }
      ],
      "outputs": [],
      "stateMutability": "nonpayable"
    },
    {
      "type": "function",
      "name": "allocate",
      "inputs": [
        {
          "name": "gauge_",
          "type": "address",
          "internalType": "contract GaugeRootstockCollective"
        },
        {
          "name": "allocation_",
          "type": "uint256",
          "internalType": "uint256"
        }
      ],
      "outputs": [],
      "stateMutability": "nonpayable"
    },
    {
      "type": "function",
      "name": "allocateBatch",
      "inputs": [
        {
          "name": "gauges_",
          "type": "address[]",
          "internalType": "contract GaugeRootstockCollective[]"
        },
        {
          "name": "allocations_",
          "type": "uint256[]",
          "internalType": "uint256[]"
        }
      ],
      "outputs": [],
      "stateMutability": "nonpayable"
    },
    {
      "type": "function",
      "name": "approveBuidlerRewardReceiverReplacement",
      "inputs": [
        {
          "name": "builder_",
          "type": "address",
          "internalType": "address"
        },
        {
          "name": "rewardReceiverReplacement_",
          "type": "address",
          "internalType": "address"
        }
      ],
      "outputs": [],
      "stateMutability": "nonpayable"
    },
    {
      "type": "function",
      "name": "approveBuilderKYC",
      "inputs": [
        {
          "name": "builder_",
          "type": "address",
          "internalType": "address"
        }
      ],
      "outputs": [],
      "stateMutability": "nonpayable"
    },
    {
      "type": "function",
      "name": "backerRewardPercentage",
      "inputs": [
        {
          "name": "builder",
          "type": "address",
          "internalType": "address"
        }
      ],
      "outputs": [
        {
          "name": "previous",
          "type": "uint64",
          "internalType": "uint64"
        },
        {
          "name": "next",
          "type": "uint64",
          "internalType": "uint64"
        },
        {
          "name": "cooldownEndTime",
          "type": "uint128",
          "internalType": "uint128"
        }
      ],
      "stateMutability": "view"
    },
    {
      "type": "function",
      "name": "backerTotalAllocation",
      "inputs": [
        {
          "name": "backer",
          "type": "address",
          "internalType": "address"
        }
      ],
      "outputs": [
        {
          "name": "allocation",
          "type": "uint256",
          "internalType": "uint256"
        }
      ],
      "stateMutability": "view"
    },
    {
      "type": "function",
      "name": "builderRewardReceiver",
      "inputs": [
        {
          "name": "builder",
          "type": "address",
          "internalType": "address"
        }
      ],
      "outputs": [
        {
          "name": "rewardReceiver",
          "type": "address",
          "internalType": "address"
        }
      ],
      "stateMutability": "view"
    },
    {
      "type": "function",
      "name": "builderRewardReceiverReplacement",
      "inputs": [
        {
          "name": "builder",
          "type": "address",
          "internalType": "address"
        }
      ],
      "outputs": [
        {
          "name": "rewardReceiverReplacement",
          "type": "address",
          "internalType": "address"
        }
      ],
      "stateMutability": "view"
    },
    {
      "type": "function",
      "name": "builderState",
      "inputs": [
        {
          "name": "builder",
          "type": "address",
          "internalType": "address"
        }
      ],
      "outputs": [
        {
          "name": "activated",
          "type": "bool",
          "internalType": "bool"
        },
        {
          "name": "kycApproved",
          "type": "bool",
          "internalType": "bool"
        },
        {
          "name": "communityApproved",
          "type": "bool",
          "internalType": "bool"
        },
        {
          "name": "paused",
          "type": "bool",
          "internalType": "bool"
        },
        {
          "name": "revoked",
          "type": "bool",
          "internalType": "bool"
        },
        {
          "name": "reserved",
          "type": "bytes7",
          "internalType": "bytes7"
        },
        {
          "name": "pausedReason",
          "type": "bytes20",
          "internalType": "bytes20"
        }
      ],
      "stateMutability": "view"
    },
    {
      "type": "function",
      "name": "builderToGauge",
      "inputs": [
        {
          "name": "builder",
          "type": "address",
          "internalType": "address"
        }
      ],
      "outputs": [
        {
          "name": "gauge",
          "type": "address",
          "internalType": "contract GaugeRootstockCollective"
        }
      ],
      "stateMutability": "view"
    },
    {
      "type": "function",
      "name": "canWithdraw",
      "inputs": [
        {
          "name": "targetAddress_",
          "type": "address",
          "internalType": "address"
        },
        {
          "name": "",
          "type": "uint256",
          "internalType": "uint256"
        }
      ],
      "outputs": [
        {
          "name": "",
          "type": "bool",
          "internalType": "bool"
        }
      ],
      "stateMutability": "view"
    },
    {
      "type": "function",
      "name": "cancelRewardReceiverReplacementRequest",
      "inputs": [],
      "outputs": [],
      "stateMutability": "nonpayable"
    },
    {
      "type": "function",
      "name": "claimBackerRewards",
      "inputs": [
        {
          "name": "gauges_",
          "type": "address[]",
          "internalType": "contract GaugeRootstockCollective[]"
        }
      ],
      "outputs": [],
      "stateMutability": "nonpayable"
    },
    {
      "type": "function",
      "name": "claimBackerRewards",
      "inputs": [
        {
          "name": "rewardToken_",
          "type": "address",
          "internalType": "address"
        },
        {
          "name": "gauges_",
          "type": "address[]",
          "internalType": "contract GaugeRootstockCollective[]"
        }
      ],
      "outputs": [],
      "stateMutability": "nonpayable"
    },
    {
      "type": "function",
      "name": "communityApproveBuilder",
      "inputs": [
        {
          "name": "builder_",
          "type": "address",
          "internalType": "address"
        }
      ],
      "outputs": [
        {
          "name": "gauge_",
          "type": "address",
          "internalType": "contract GaugeRootstockCollective"
        }
      ],
      "stateMutability": "nonpayable"
    },
    {
      "type": "function",
      "name": "cycleData",
      "inputs": [],
      "outputs": [
        {
          "name": "previousDuration",
          "type": "uint32",
          "internalType": "uint32"
        },
        {
          "name": "nextDuration",
          "type": "uint32",
          "internalType": "uint32"
        },
        {
          "name": "previousStart",
          "type": "uint64",
          "internalType": "uint64"
        },
        {
          "name": "nextStart",
          "type": "uint64",
          "internalType": "uint64"
        },
        {
          "name": "offset",
          "type": "uint24",
          "internalType": "uint24"
        }
      ],
      "stateMutability": "view"
    },
    {
      "type": "function",
      "name": "cycleNext",
      "inputs": [
        {
          "name": "timestamp_",
          "type": "uint256",
          "internalType": "uint256"
        }
      ],
      "outputs": [
        {
          "name": "",
          "type": "uint256",
          "internalType": "uint256"
        }
      ],
      "stateMutability": "view"
    },
    {
      "type": "function",
      "name": "cycleStart",
      "inputs": [
        {
          "name": "timestamp_",
          "type": "uint256",
          "internalType": "uint256"
        }
      ],
      "outputs": [
        {
          "name": "",
          "type": "uint256",
          "internalType": "uint256"
        }
      ],
      "stateMutability": "view"
    },
    {
      "type": "function",
      "name": "dewhitelistBuilder",
      "inputs": [
        {
          "name": "builder_",
          "type": "address",
          "internalType": "address"
        }
      ],
      "outputs": [],
      "stateMutability": "nonpayable"
    },
    {
      "type": "function",
      "name": "distribute",
      "inputs": [],
      "outputs": [
        {
          "name": "finished_",
          "type": "bool",
          "internalType": "bool"
        }
      ],
      "stateMutability": "nonpayable"
    },
    {
      "type": "function",
      "name": "distributionDuration",
      "inputs": [],
      "outputs": [
        {
          "name": "",
          "type": "uint32",
          "internalType": "uint32"
        }
      ],
      "stateMutability": "view"
    },
    {
      "type": "function",
      "name": "endDistributionWindow",
      "inputs": [
        {
          "name": "timestamp_",
          "type": "uint256",
          "internalType": "uint256"
        }
      ],
      "outputs": [
        {
          "name": "",
          "type": "uint256",
          "internalType": "uint256"
        }
      ],
      "stateMutability": "view"
    },
    {
      "type": "function",
      "name": "gaugeFactory",
      "inputs": [],
      "outputs": [
        {
          "name": "",
          "type": "address",
          "internalType": "contract GaugeFactoryRootstockCollective"
        }
      ],
      "stateMutability": "view"
    },
    {
      "type": "function",
      "name": "gaugeToBuilder",
      "inputs": [
        {
          "name": "gauge",
          "type": "address",
          "internalType": "contract GaugeRootstockCollective"
        }
      ],
      "outputs": [
        {
          "name": "builder",
          "type": "address",
          "internalType": "address"
        }
      ],
      "stateMutability": "view"
    },
    {
      "type": "function",
      "name": "getCycleStartAndDuration",
      "inputs": [],
      "outputs": [
        {
          "name": "",
          "type": "uint256",
          "internalType": "uint256"
        },
        {
          "name": "",
          "type": "uint256",
          "internalType": "uint256"
        }
      ],
      "stateMutability": "view"
    },
    {
      "type": "function",
      "name": "getGaugeAt",
      "inputs": [
        {
          "name": "index_",
          "type": "uint256",
          "internalType": "uint256"
        }
      ],
      "outputs": [
        {
          "name": "",
          "type": "address",
          "internalType": "address"
        }
      ],
      "stateMutability": "view"
    },
    {
      "type": "function",
      "name": "getGaugesLength",
      "inputs": [],
      "outputs": [
        {
          "name": "",
          "type": "uint256",
          "internalType": "uint256"
        }
      ],
      "stateMutability": "view"
    },
    {
      "type": "function",
      "name": "getHaltedGaugeAt",
      "inputs": [
        {
          "name": "index_",
          "type": "uint256",
          "internalType": "uint256"
        }
      ],
      "outputs": [
        {
          "name": "",
          "type": "address",
          "internalType": "address"
        }
      ],
      "stateMutability": "view"
    },
    {
      "type": "function",
      "name": "getHaltedGaugesLength",
      "inputs": [],
      "outputs": [
        {
          "name": "",
          "type": "uint256",
          "internalType": "uint256"
        }
      ],
      "stateMutability": "view"
    },
    {
      "type": "function",
      "name": "getRewardPercentageToApply",
      "inputs": [
        {
          "name": "builder_",
          "type": "address",
          "internalType": "address"
        }
      ],
      "outputs": [
        {
          "name": "",
          "type": "uint64",
          "internalType": "uint64"
        }
      ],
      "stateMutability": "view"
    },
    {
      "type": "function",
      "name": "governanceManager",
      "inputs": [],
      "outputs": [
        {
          "name": "",
          "type": "address",
          "internalType": "contract IGovernanceManagerRootstockCollective"
        }
      ],
      "stateMutability": "view"
    },
    {
      "type": "function",
      "name": "haltedGaugeLastPeriodFinish",
      "inputs": [
        {
          "name": "gauge",
          "type": "address",
          "internalType": "contract GaugeRootstockCollective"
        }
      ],
      "outputs": [
        {
          "name": "lastPeriodFinish",
          "type": "uint256",
          "internalType": "uint256"
        }
      ],
      "stateMutability": "view"
    },
    {
      "type": "function",
      "name": "hasBuilderRewardReceiverPendingApproval",
      "inputs": [
        {
          "name": "builder_",
          "type": "address",
          "internalType": "address"
        }
      ],
      "outputs": [
        {
          "name": "",
          "type": "bool",
          "internalType": "bool"
        }
      ],
      "stateMutability": "view"
    },
    {
      "type": "function",
      "name": "indexLastGaugeDistributed",
      "inputs": [],
      "outputs": [
        {
          "name": "",
          "type": "uint256",
          "internalType": "uint256"
        }
      ],
      "stateMutability": "view"
    },
    {
      "type": "function",
      "name": "initialize",
      "inputs": [
        {
          "name": "governanceManager_",
          "type": "address",
          "internalType": "contract IGovernanceManagerRootstockCollective"
        },
        {
          "name": "rewardToken_",
          "type": "address",
          "internalType": "address"
        },
        {
          "name": "stakingToken_",
          "type": "address",
          "internalType": "address"
        },
        {
          "name": "gaugeFactory_",
          "type": "address",
          "internalType": "address"
        },
        {
          "name": "rewardDistributor_",
          "type": "address",
          "internalType": "address"
        },
        {
          "name": "cycleDuration_",
          "type": "uint32",
          "internalType": "uint32"
        },
        {
          "name": "cycleStartOffset_",
          "type": "uint24",
          "internalType": "uint24"
        },
        {
          "name": "distributionDuration_",
          "type": "uint32",
          "internalType": "uint32"
        },
        {
          "name": "rewardPercentageCooldown_",
          "type": "uint128",
          "internalType": "uint128"
        }
      ],
      "outputs": [],
      "stateMutability": "nonpayable"
    },
    {
      "type": "function",
      "name": "isBuilderOperational",
      "inputs": [
        {
          "name": "builder_",
          "type": "address",
          "internalType": "address"
        }
      ],
      "outputs": [
        {
          "name": "",
          "type": "bool",
          "internalType": "bool"
        }
      ],
      "stateMutability": "view"
    },
    {
      "type": "function",
      "name": "isBuilderPaused",
      "inputs": [
        {
          "name": "builder_",
          "type": "address",
          "internalType": "address"
        }
      ],
      "outputs": [
        {
          "name": "",
          "type": "bool",
          "internalType": "bool"
        }
      ],
      "stateMutability": "view"
    },
    {
      "type": "function",
      "name": "isGaugeHalted",
      "inputs": [
        {
          "name": "gauge_",
          "type": "address",
          "internalType": "address"
        }
      ],
      "outputs": [
        {
          "name": "",
          "type": "bool",
          "internalType": "bool"
        }
      ],
      "stateMutability": "view"
    },
    {
      "type": "function",
      "name": "isGaugeOperational",
      "inputs": [
        {
          "name": "gauge_",
          "type": "address",
          "internalType": "contract GaugeRootstockCollective"
        }
      ],
      "outputs": [
        {
          "name": "",
          "type": "bool",
          "internalType": "bool"
        }
      ],
      "stateMutability": "view"
    },
    {
      "type": "function",
      "name": "isGaugeRewarded",
      "inputs": [
        {
          "name": "gauge_",
          "type": "address",
          "internalType": "address"
        }
      ],
      "outputs": [
        {
          "name": "",
          "type": "bool",
          "internalType": "bool"
        }
      ],
      "stateMutability": "view"
    },
    {
      "type": "function",
      "name": "migrateBuilder",
      "inputs": [
        {
          "name": "builder_",
          "type": "address",
          "internalType": "address"
        },
        {
          "name": "rewardAddress_",
          "type": "address",
          "internalType": "address"
        },
        {
          "name": "rewardPercentage_",
          "type": "uint64",
          "internalType": "uint64"
        }
      ],
      "outputs": [],
      "stateMutability": "nonpayable"
    },
    {
      "type": "function",
      "name": "notifyRewardAmount",
      "inputs": [
        {
          "name": "amount_",
          "type": "uint256",
          "internalType": "uint256"
        }
      ],
      "outputs": [],
      "stateMutability": "payable"
    },
    {
      "type": "function",
      "name": "onDistributionPeriod",
      "inputs": [],
      "outputs": [
        {
          "name": "",
          "type": "bool",
          "internalType": "bool"
        }
      ],
      "stateMutability": "view"
    },
    {
      "type": "function",
      "name": "pauseBuilder",
      "inputs": [
        {
          "name": "builder_",
          "type": "address",
          "internalType": "address"
        },
        {
          "name": "reason_",
          "type": "bytes20",
          "internalType": "bytes20"
        }
      ],
      "outputs": [],
      "stateMutability": "nonpayable"
    },
    {
      "type": "function",
      "name": "periodFinish",
      "inputs": [],
      "outputs": [
        {
          "name": "",
          "type": "uint256",
          "internalType": "uint256"
        }
      ],
      "stateMutability": "view"
    },
    {
      "type": "function",
      "name": "permitBuilder",
      "inputs": [
        {
          "name": "rewardPercentage_",
          "type": "uint64",
          "internalType": "uint64"
        }
      ],
      "outputs": [],
      "stateMutability": "nonpayable"
    },
    {
      "type": "function",
      "name": "proxiableUUID",
      "inputs": [],
      "outputs": [
        {
          "name": "",
          "type": "bytes32",
          "internalType": "bytes32"
        }
      ],
      "stateMutability": "view"
    },
    {
      "type": "function",
      "name": "revokeBuilder",
      "inputs": [],
      "outputs": [],
      "stateMutability": "nonpayable"
    },
    {
      "type": "function",
      "name": "revokeBuilderKYC",
      "inputs": [
        {
          "name": "builder_",
          "type": "address",
          "internalType": "address"
        }
      ],
      "outputs": [],
      "stateMutability": "nonpayable"
    },
    {
      "type": "function",
      "name": "rewardDistributor",
      "inputs": [],
      "outputs": [
        {
          "name": "",
          "type": "address",
          "internalType": "address"
        }
      ],
      "stateMutability": "view"
    },
    {
      "type": "function",
      "name": "rewardPercentageCooldown",
      "inputs": [],
      "outputs": [
        {
          "name": "",
          "type": "uint128",
          "internalType": "uint128"
        }
      ],
      "stateMutability": "view"
    },
    {
      "type": "function",
      "name": "rewardToken",
      "inputs": [],
      "outputs": [
        {
          "name": "",
          "type": "address",
          "internalType": "address"
        }
      ],
      "stateMutability": "view"
    },
    {
      "type": "function",
      "name": "rewardsCoinbase",
      "inputs": [],
      "outputs": [
        {
          "name": "",
          "type": "uint256",
          "internalType": "uint256"
        }
      ],
      "stateMutability": "view"
    },
    {
      "type": "function",
      "name": "rewardsERC20",
      "inputs": [],
      "outputs": [
        {
          "name": "",
          "type": "uint256",
          "internalType": "uint256"
        }
      ],
      "stateMutability": "view"
    },
    {
      "type": "function",
      "name": "setBackerRewardPercentage",
      "inputs": [
        {
          "name": "rewardPercentage_",
          "type": "uint64",
          "internalType": "uint64"
        }
      ],
      "outputs": [],
      "stateMutability": "nonpayable"
    },
    {
      "type": "function",
      "name": "setCycleDuration",
      "inputs": [
        {
          "name": "newCycleDuration_",
          "type": "uint32",
          "internalType": "uint32"
        },
        {
          "name": "cycleStartOffset_",
          "type": "uint24",
          "internalType": "uint24"
        }
      ],
      "outputs": [],
      "stateMutability": "nonpayable"
    },
    {
      "type": "function",
      "name": "setDistributionDuration",
      "inputs": [
        {
          "name": "newDistributionDuration_",
          "type": "uint32",
          "internalType": "uint32"
        }
      ],
      "outputs": [],
      "stateMutability": "nonpayable"
    },
    {
      "type": "function",
      "name": "stakingToken",
      "inputs": [],
      "outputs": [
        {
          "name": "",
          "type": "address",
          "internalType": "contract IERC20"
        }
      ],
      "stateMutability": "view"
    },
    {
      "type": "function",
      "name": "startDistribution",
      "inputs": [],
      "outputs": [
        {
          "name": "finished_",
          "type": "bool",
          "internalType": "bool"
        }
      ],
      "stateMutability": "nonpayable"
    },
    {
      "type": "function",
      "name": "submitRewardReceiverReplacementRequest",
      "inputs": [
        {
          "name": "newRewardReceiver_",
          "type": "address",
          "internalType": "address"
        }
      ],
      "outputs": [],
      "stateMutability": "nonpayable"
    },
    {
      "type": "function",
      "name": "supportsInterface",
      "inputs": [
        {
          "name": "interfaceId_",
          "type": "bytes4",
          "internalType": "bytes4"
        }
      ],
      "outputs": [
        {
          "name": "",
          "type": "bool",
          "internalType": "bool"
        }
      ],
      "stateMutability": "view"
    },
    {
      "type": "function",
      "name": "tempTotalPotentialReward",
      "inputs": [],
      "outputs": [
        {
          "name": "",
          "type": "uint256",
          "internalType": "uint256"
        }
      ],
      "stateMutability": "view"
    },
    {
      "type": "function",
      "name": "timeUntilNextCycle",
      "inputs": [
        {
          "name": "timestamp_",
          "type": "uint256",
          "internalType": "uint256"
        }
      ],
      "outputs": [
        {
          "name": "",
          "type": "uint256",
          "internalType": "uint256"
        }
      ],
      "stateMutability": "view"
    },
    {
      "type": "function",
      "name": "totalPotentialReward",
      "inputs": [],
      "outputs": [
        {
          "name": "",
          "type": "uint256",
          "internalType": "uint256"
        }
      ],
      "stateMutability": "view"
    },
    {
      "type": "function",
      "name": "unpauseBuilder",
      "inputs": [
        {
          "name": "builder_",
          "type": "address",
          "internalType": "address"
        }
      ],
      "outputs": [],
      "stateMutability": "nonpayable"
    },
    {
      "type": "function",
      "name": "upgradeToAndCall",
      "inputs": [
        {
          "name": "newImplementation",
          "type": "address",
          "internalType": "address"
        },
        {
          "name": "data",
          "type": "bytes",
          "internalType": "bytes"
        }
      ],
      "outputs": [],
      "stateMutability": "payable"
    },
    {
      "type": "event",
      "name": "BackerRewardPercentageUpdateScheduled",
      "inputs": [
        {
          "name": "builder_",
          "type": "address",
          "indexed": true,
          "internalType": "address"
        },
        {
          "name": "rewardPercentage_",
          "type": "uint256",
          "indexed": false,
          "internalType": "uint256"
        },
        {
          "name": "cooldown_",
          "type": "uint256",
          "indexed": false,
          "internalType": "uint256"
        }
      ],
      "anonymous": false
    },
    {
      "type": "event",
      "name": "BuilderActivated",
      "inputs": [
        {
          "name": "builder_",
          "type": "address",
          "indexed": true,
          "internalType": "address"
        },
        {
          "name": "rewardReceiver_",
          "type": "address",
          "indexed": false,
          "internalType": "address"
        },
        {
          "name": "rewardPercentage_",
          "type": "uint64",
          "indexed": false,
          "internalType": "uint64"
        }
      ],
      "anonymous": false
    },
    {
      "type": "event",
      "name": "BuilderMigrated",
      "inputs": [
        {
          "name": "builder_",
          "type": "address",
          "indexed": true,
          "internalType": "address"
        },
        {
          "name": "migrator_",
          "type": "address",
          "indexed": true,
          "internalType": "address"
        }
      ],
      "anonymous": false
    },
    {
      "type": "event",
      "name": "BuilderRewardReceiverReplacementApproved",
      "inputs": [
        {
          "name": "builder_",
          "type": "address",
          "indexed": true,
          "internalType": "address"
        },
        {
          "name": "newRewardReceiver_",
          "type": "address",
          "indexed": false,
          "internalType": "address"
        }
      ],
      "anonymous": false
    },
    {
      "type": "event",
      "name": "BuilderRewardReceiverReplacementCancelled",
      "inputs": [
        {
          "name": "builder_",
          "type": "address",
          "indexed": true,
          "internalType": "address"
        },
        {
          "name": "newRewardReceiver_",
          "type": "address",
          "indexed": false,
          "internalType": "address"
        }
      ],
      "anonymous": false
    },
    {
      "type": "event",
      "name": "BuilderRewardReceiverReplacementRequested",
      "inputs": [
        {
          "name": "builder_",
          "type": "address",
          "indexed": true,
          "internalType": "address"
        },
        {
          "name": "newRewardReceiver_",
          "type": "address",
          "indexed": false,
          "internalType": "address"
        }
      ],
      "anonymous": false
    },
    {
      "type": "event",
      "name": "CommunityApproved",
      "inputs": [
        {
          "name": "builder_",
          "type": "address",
          "indexed": true,
          "internalType": "address"
        }
      ],
      "anonymous": false
    },
    {
      "type": "event",
      "name": "Dewhitelisted",
      "inputs": [
        {
          "name": "builder_",
          "type": "address",
          "indexed": true,
          "internalType": "address"
        }
      ],
      "anonymous": false
    },
    {
      "type": "event",
      "name": "GaugeCreated",
      "inputs": [
        {
          "name": "builder_",
          "type": "address",
          "indexed": true,
          "internalType": "address"
        },
        {
          "name": "gauge_",
          "type": "address",
          "indexed": true,
          "internalType": "address"
        },
        {
          "name": "creator_",
          "type": "address",
          "indexed": false,
          "internalType": "address"
        }
      ],
      "anonymous": false
    },
    {
      "type": "event",
      "name": "Initialized",
      "inputs": [
        {
          "name": "version",
          "type": "uint64",
          "indexed": false,
          "internalType": "uint64"
        }
      ],
      "anonymous": false
    },
    {
      "type": "event",
      "name": "KYCApproved",
      "inputs": [
        {
          "name": "builder_",
          "type": "address",
          "indexed": true,
          "internalType": "address"
        }
      ],
      "anonymous": false
    },
    {
      "type": "event",
      "name": "KYCRevoked",
      "inputs": [
        {
          "name": "builder_",
          "type": "address",
          "indexed": true,
          "internalType": "address"
        }
      ],
      "anonymous": false
    },
    {
      "type": "event",
      "name": "NewAllocation",
      "inputs": [
        {
          "name": "backer_",
          "type": "address",
          "indexed": true,
          "internalType": "address"
        },
        {
          "name": "gauge_",
          "type": "address",
          "indexed": true,
          "internalType": "address"
        },
        {
          "name": "allocation_",
          "type": "uint256",
          "indexed": false,
          "internalType": "uint256"
        }
      ],
      "anonymous": false
    },
    {
      "type": "event",
      "name": "NewCycleDurationScheduled",
      "inputs": [
        {
          "name": "newCycleDuration_",
          "type": "uint256",
          "indexed": false,
          "internalType": "uint256"
        },
        {
          "name": "cooldownEndTime_",
          "type": "uint256",
          "indexed": false,
          "internalType": "uint256"
        }
      ],
      "anonymous": false
    },
    {
      "type": "event",
      "name": "NewDistributionDuration",
      "inputs": [
        {
          "name": "newDistributionDuration_",
          "type": "uint256",
          "indexed": false,
          "internalType": "uint256"
        },
        {
          "name": "by_",
          "type": "address",
          "indexed": false,
          "internalType": "address"
        }
      ],
      "anonymous": false
    },
    {
      "type": "event",
      "name": "NotifyReward",
      "inputs": [
        {
          "name": "rewardToken_",
          "type": "address",
          "indexed": true,
          "internalType": "address"
        },
        {
          "name": "sender_",
          "type": "address",
          "indexed": true,
          "internalType": "address"
        },
        {
          "name": "amount_",
          "type": "uint256",
          "indexed": false,
          "internalType": "uint256"
        }
      ],
      "anonymous": false
    },
    {
      "type": "event",
      "name": "Paused",
      "inputs": [
        {
          "name": "builder_",
          "type": "address",
          "indexed": true,
          "internalType": "address"
        },
        {
          "name": "reason_",
          "type": "bytes20",
          "indexed": false,
          "internalType": "bytes20"
        }
      ],
      "anonymous": false
    },
    {
      "type": "event",
      "name": "Permitted",
      "inputs": [
        {
          "name": "builder_",
          "type": "address",
          "indexed": true,
          "internalType": "address"
        },
        {
          "name": "rewardPercentage_",
          "type": "uint256",
          "indexed": false,
          "internalType": "uint256"
        },
        {
          "name": "cooldown_",
          "type": "uint256",
          "indexed": false,
          "internalType": "uint256"
        }
      ],
      "anonymous": false
    },
    {
      "type": "event",
      "name": "Revoked",
      "inputs": [
        {
          "name": "builder_",
          "type": "address",
          "indexed": true,
          "internalType": "address"
        }
      ],
      "anonymous": false
    },
    {
      "type": "event",
      "name": "RewardDistributed",
      "inputs": [
        {
          "name": "sender_",
          "type": "address",
          "indexed": true,
          "internalType": "address"
        }
      ],
      "anonymous": false
    },
    {
      "type": "event",
      "name": "RewardDistributionFinished",
      "inputs": [
        {
          "name": "sender_",
          "type": "address",
          "indexed": true,
          "internalType": "address"
        }
      ],
      "anonymous": false
    },
    {
      "type": "event",
      "name": "RewardDistributionStarted",
      "inputs": [
        {
          "name": "sender_",
          "type": "address",
          "indexed": true,
          "internalType": "address"
        }
      ],
      "anonymous": false
    },
    {
      "type": "event",
      "name": "Unpaused",
      "inputs": [
        {
          "name": "builder_",
          "type": "address",
          "indexed": true,
          "internalType": "address"
        }
      ],
      "anonymous": false
    },
    {
      "type": "event",
      "name": "Upgraded",
      "inputs": [
        {
          "name": "implementation",
          "type": "address",
          "indexed": true,
          "internalType": "address"
        }
      ],
      "anonymous": false
    },
    {
      "type": "error",
      "name": "AddressEmptyCode",
      "inputs": [
        {
          "name": "target",
          "type": "address",
          "internalType": "address"
        }
      ]
    },
    {
      "type": "error",
      "name": "AddressInsufficientBalance",
      "inputs": [
        {
          "name": "account",
          "type": "address",
          "internalType": "address"
        }
      ]
    },
    {
      "type": "error",
      "name": "AlreadyActivated",
      "inputs": []
    },
    {
      "type": "error",
      "name": "AlreadyCommunityApproved",
      "inputs": []
    },
    {
      "type": "error",
      "name": "AlreadyKYCApproved",
      "inputs": []
    },
    {
      "type": "error",
      "name": "AlreadyRevoked",
      "inputs": []
    },
    {
      "type": "error",
      "name": "BeforeDistribution",
      "inputs": []
    },
    {
      "type": "error",
      "name": "BuilderAlreadyExists",
      "inputs": []
    },
    {
      "type": "error",
      "name": "BuilderDoesNotExist",
      "inputs": []
    },
    {
      "type": "error",
      "name": "CycleDurationTooShort",
      "inputs": []
    },
    {
      "type": "error",
      "name": "DistributionDurationTooLong",
      "inputs": []
    },
    {
      "type": "error",
      "name": "DistributionDurationTooShort",
      "inputs": []
    },
    {
      "type": "error",
      "name": "DistributionModifiedDuringDistributionWindow",
      "inputs": []
    },
    {
      "type": "error",
      "name": "DistributionPeriodDidNotStart",
      "inputs": []
    },
    {
      "type": "error",
      "name": "ERC1967InvalidImplementation",
      "inputs": [
        {
          "name": "implementation",
          "type": "address",
          "internalType": "address"
        }
      ]
    },
    {
      "type": "error",
      "name": "ERC1967NonPayable",
      "inputs": []
    },
    {
      "type": "error",
      "name": "FailedInnerCall",
      "inputs": []
    },
    {
      "type": "error",
      "name": "GaugeDoesNotExist",
      "inputs": []
    },
    {
      "type": "error",
      "name": "InvalidBackerRewardPercentage",
      "inputs": []
    },
    {
      "type": "error",
      "name": "InvalidBuilderRewardReceiver",
      "inputs": []
    },
    {
      "type": "error",
      "name": "InvalidInitialization",
      "inputs": []
    },
    {
      "type": "error",
      "name": "NoGaugesForDistribution",
      "inputs": []
    },
    {
      "type": "error",
      "name": "NotActivated",
      "inputs": []
    },
    {
      "type": "error",
      "name": "NotCommunityApproved",
      "inputs": []
    },
    {
      "type": "error",
      "name": "NotEnoughStaking",
      "inputs": []
    },
    {
      "type": "error",
      "name": "NotInDistributionPeriod",
      "inputs": []
    },
    {
      "type": "error",
      "name": "NotInitializing",
      "inputs": []
    },
    {
      "type": "error",
      "name": "NotKYCApproved",
      "inputs": []
    },
    {
      "type": "error",
      "name": "NotOperational",
      "inputs": []
    },
    {
      "type": "error",
      "name": "NotPaused",
      "inputs": []
    },
    {
      "type": "error",
      "name": "NotRevoked",
      "inputs": []
    },
    {
      "type": "error",
      "name": "NotValidChangerOrFoundation",
      "inputs": []
    },
    {
      "type": "error",
      "name": "OnlyInDistributionWindow",
      "inputs": []
    },
    {
      "type": "error",
      "name": "PositiveAllocationOnHaltedGauge",
      "inputs": []
    },
    {
      "type": "error",
      "name": "SafeERC20FailedOperation",
      "inputs": [
        {
          "name": "token",
          "type": "address",
          "internalType": "address"
        }
      ]
    },
    {
      "type": "error",
      "name": "UUPSUnauthorizedCallContext",
      "inputs": []
    },
    {
      "type": "error",
      "name": "UUPSUnsupportedProxiableUUID",
      "inputs": [
        {
          "name": "slot",
          "type": "bytes32",
          "internalType": "bytes32"
        }
      ]
    },
    {
      "type": "error",
      "name": "UnequalLengths",
      "inputs": []
    }
  ],
  "address": "0x0eb28c51aA39cC81d41DABdfb2bA7EC2b8B5240c",
  "args": [],
  "bytecode": "0x60a0604052306080523480156200001557600080fd5b506200002062000030565b6200002a62000030565b620000e4565b7ff0c57e16840df040f15088dc2f81fe391c3923bec73e23a9662efc9c229c6a00805468010000000000000000900460ff1615620000815760405163f92ee8a960e01b815260040160405180910390fd5b80546001600160401b0390811614620000e15780546001600160401b0319166001600160401b0390811782556040519081527fc7f505b2f371ae2175ee4913f4499e1f2633a7b5936321eed1cdaeb6115181d29060200160405180910390a15b50565b608051615c396200010e60003960008181613ca601528181613ccf0152613f130152615c396000f3fe60806040526004361061042f5760003560e01c806374c0dff111610228578063c58a1e4d11610128578063e45572ea116100bb578063efbdb5431161008a578063f7c618c11161006f578063f7c618c114610f11578063fafde1ec14610f31578063fd472fde14610f5157600080fd5b8063efbdb54314610e31578063f0527f8f14610ef157600080fd5b8063e45572ea14610d3e578063e4fc6b6d14610de7578063e64638d714610dfc578063ebe2b12b14610e1c57600080fd5b8063d3a954bb116100f7578063d3a954bb14610cc9578063d83623dd14610ce9578063dff6874814610cfe578063e2ab7cf214610d1e57600080fd5b8063c58a1e4d14610c5e578063caa9915e14610c73578063d2d8c93214610c93578063d2e6d1c314610ca957600080fd5b80639f96d06e116101bb578063acc2166a1161018a578063b78b52df1161016f578063b78b52df14610be5578063c042e76e14610c05578063c15382d814610c2557600080fd5b8063acc2166a14610b6f578063ad3cb1cc14610b8f57600080fd5b80639f96d06e14610aef578063a0d961c014610b0f578063a7c0782b14610b2f578063a8a90af714610b4f57600080fd5b80638dcb7ea4116101f75780638dcb7ea414610a645780639626f35814610a9a57806397e57cf914610aba5780639dcde81214610acf57600080fd5b806374c0dff1146109c45780637572392c14610a0e57806377bd9c2d14610a2457806381d8bd2c14610a4457600080fd5b80632ed480f7116103335780634be50762116102c6578063579e8c8e1161029557806371d8a4891161027a57806371d8a4891461094e57806372b874ad1461098457806372f702f3146109a457600080fd5b8063579e8c8e146109235780636912be2d1461093957600080fd5b80634be50762146108c55780634f1ef286146108e5578063517b989c146108f857806352d1902d1461090e57600080fd5b80634356d671116103025780634356d6711461083857806345b5cd311461085857806348d57282146108785780634b1d41fc1461089857600080fd5b80632ed480f7146107c65780633c6b16ab146107e65780633f1c49bf146107f957806341f265801461080e57600080fd5b806312ad2387116103c65780631f56d39c1161039557806323e978c11161037a57806323e978c11461075a578063278fdc691461079057806329ad14d3146107a657600080fd5b80631f56d39c146106fa57806323ae495b1461073a57600080fd5b806312ad238714610587578063187256eb146105a15780631d156dcf146105ce5780631d5cd0e61461060057600080fd5b80630d52333c116104025780630d52333c146104d95780630fa36b8214610511578063119234dd1461053157806311fb601a1461055157600080fd5b806301ffc9a71461043457806303184e311461046957806309022b13146104895780630b739693146104b7575b600080fd5b34801561044057600080fd5b5061045461044f366004615342565b610f71565b60405190151581526020015b60405180910390f35b34801561047557600080fd5b50610454610484366004615399565b61100a565b34801561049557600080fd5b506104a96104a43660046153b6565b611017565b604051908152602001610460565b3480156104c357600080fd5b506104d76104d23660046153e3565b611036565b005b3480156104e557600080fd5b506070546104f9906001600160a01b031681565b6040516001600160a01b039091168152602001610460565b34801561051d57600080fd5b506104d761052c366004615416565b6112f7565b34801561053d57600080fd5b506104d761054c366004615538565b611525565b34801561055d57600080fd5b506104f961056c366004615399565b606a602052600090815260409020546001600160a01b031681565b34801561059357600080fd5b5060af546104549060ff1681565b3480156105ad57600080fd5b506104a96105bc366004615399565b60b06020526000908152604090205481565b3480156105da57600080fd5b506034546105eb9063ffffffff1681565b60405163ffffffff9091168152602001610460565b34801561060c57600080fd5b5061067861061b366004615399565b60686020526000908152604090205460ff808216916101008104821691620100008204811691630100000081048216916401000000008204169065010000000000810460c81b906c01000000000000000000000000900460601b87565b6040805197151588529515156020880152931515948601949094529015156060850152151560808401527fffffffffffffff0000000000000000000000000000000000000000000000000090911660a08301527fffffffffffffffffffffffffffffffffffffffff0000000000000000000000001660c082015260e001610460565b34801561070657600080fd5b50610454610715366004615399565b6001600160a01b03166000908152606860205260409020546301000000900460ff1690565b34801561074657600080fd5b506104d7610755366004615580565b6115fa565b34801561076657600080fd5b506104f9610775366004615399565b6069602052600090815260409020546001600160a01b031681565b34801561079c57600080fd5b506104a960ac5481565b3480156107b257600080fd5b506104d76107c1366004615416565b6119a4565b3480156107d257600080fd5b506104546107e1366004615399565b611cdc565b6104d76107f43660046153b6565b611d32565b34801561080557600080fd5b506104d7611e93565b34801561081a57600080fd5b50610823611ef7565b60408051928352602083019190915201610460565b34801561084457600080fd5b506104d76108533660046155ff565b61205c565b34801561086457600080fd5b506104d761087336600461566b565b612171565b34801561088457600080fd5b506104f96108933660046153b6565b6122ad565b3480156108a457600080fd5b506104a96108b3366004615399565b60736020526000908152604090205481565b3480156108d157600080fd5b506104d76108e03660046156bb565b6122ba565b6104d76108f3366004615786565b6124a2565b34801561090457600080fd5b506104a960a95481565b34801561091a57600080fd5b506104a96124c1565b34801561092f57600080fd5b506104a960ab5481565b34801561094557600080fd5b506104d76124f0565b34801561095a57600080fd5b506104f9610969366004615399565b6071602052600090815260409020546001600160a01b031681565b34801561099057600080fd5b506104a961099f3660046153b6565b612701565b3480156109b057600080fd5b5060a7546104f9906001600160a01b031681565b3480156109d057600080fd5b506074546109ed906fffffffffffffffffffffffffffffffff1681565b6040516fffffffffffffffffffffffffffffffff9091168152602001610460565b348015610a1a57600080fd5b506104a960aa5481565b348015610a3057600080fd5b50610454610a3f366004615399565b612725565b348015610a5057600080fd5b506104d7610a5f36600461584c565b61274b565b348015610a7057600080fd5b506104f9610a7f366004615399565b6072602052600090815260409020546001600160a01b031681565b348015610aa657600080fd5b50610454610ab5366004615399565b6127ca565b348015610ac657600080fd5b506104a96127d7565b348015610adb57600080fd5b506104d7610aea366004615399565b6127e8565b348015610afb57600080fd5b506104d7610b0a366004615399565b612990565b348015610b1b57600080fd5b506104a9610b2a3660046153b6565b6129d4565b348015610b3b57600080fd5b506104a9610b4a3660046153b6565b6129f0565b348015610b5b57600080fd5b506104d7610b6a366004615399565b612a2b565b348015610b7b57600080fd5b506067546104f9906001600160a01b031681565b348015610b9b57600080fd5b50610bd86040518060400160405280600581526020017f352e302e3000000000000000000000000000000000000000000000000000000081525081565b60405161046091906158b7565b348015610bf157600080fd5b506104d7610c00366004615908565b612c1e565b348015610c1157600080fd5b506104d7610c2036600461584c565b612c95565b348015610c3157600080fd5b50610c45610c40366004615399565b612d59565b60405167ffffffffffffffff9091168152602001610460565b348015610c6a57600080fd5b506104a9612de4565b348015610c7f57600080fd5b506104d7610c8e366004615934565b612df0565b348015610c9f57600080fd5b506104a960ad5481565b348015610cb557600080fd5b506000546104f9906001600160a01b031681565b348015610cd557600080fd5b506104f9610ce4366004615399565b612f05565b348015610cf557600080fd5b50610454612f88565b348015610d0a57600080fd5b50610454610d19366004615399565b61306b565b348015610d2a57600080fd5b50610454610d39366004615908565b61316f565b348015610d4a57600080fd5b50610dae610d59366004615399565b606b6020526000908152604090205467ffffffffffffffff808216916801000000000000000081049091169070010000000000000000000000000000000090046fffffffffffffffffffffffffffffffff1683565b6040805167ffffffffffffffff94851681529390921660208401526fffffffffffffffffffffffffffffffff1690820152606001610460565b348015610df357600080fd5b5061045461322a565b348015610e0857600080fd5b506104f9610e173660046153b6565b613275565b348015610e2857600080fd5b506104a9613282565b348015610e3d57600080fd5b50603354610eaf9063ffffffff8082169164010000000081049091169067ffffffffffffffff68010000000000000000820481169170010000000000000000000000000000000081049091169062ffffff78010000000000000000000000000000000000000000000000009091041685565b6040805163ffffffff968716815295909416602086015267ffffffffffffffff9283169385019390935216606083015262ffffff16608082015260a001610460565b348015610efd57600080fd5b506104d7610f0c366004615399565b6132ad565b348015610f1d57600080fd5b5060a8546104f9906001600160a01b031681565b348015610f3d57600080fd5b506104d7610f4c366004615992565b613483565b348015610f5d57600080fd5b506104d7610f6c366004615399565b613604565b60007fffffffff0000000000000000000000000000000000000000000000000000000082167fe2ab7cf200000000000000000000000000000000000000000000000000000000148061100457507f01ffc9a7000000000000000000000000000000000000000000000000000000007fffffffff000000000000000000000000000000000000000000000000000000008316145b92915050565b6000611004606c83613724565b60345460009063ffffffff1661102c836129f0565b61100491906159ef565b6000546040517fe053dd610000000000000000000000000000000000000000000000000000000081523360048201526001600160a01b039091169063e053dd619060240160006040518083038186803b15801561109257600080fd5b505afa1580156110a6573d6000803e3d6000fd5b505050508063ffffffff166000036110ea576040517fe7b421c800000000000000000000000000000000000000000000000000000000815260040160405180910390fd5b60006110f5426129f0565b9050804211801561112557506034546111189063ffffffff908116908416613746565b61112290826159ef565b42105b1561115c576040517fb2f1777700000000000000000000000000000000000000000000000000000000815260040160405180910390fd5b6040805160a08101825260335463ffffffff80821683526401000000008204166020830181905267ffffffffffffffff6801000000000000000083048116948401949094527001000000000000000000000000000000008204909316606083015262ffffff7801000000000000000000000000000000000000000000000000909104166080820152906111f090849061375c565b611226576040517f84153c9100000000000000000000000000000000000000000000000000000000815260040160405180910390fd5b806060015167ffffffffffffffff164210156112805761124a83826000015161375c565b611280576040517f84153c9100000000000000000000000000000000000000000000000000000000815260040160405180910390fd5b6040805163ffffffff851681523360208201527ffc521917f7d89bd122571083737b90fea921fe4dc631865293f5c5c450b74652910160405180910390a15050603480547fffffffffffffffffffffffffffffffffffffffffffffffffffffffff000000001663ffffffff92909216919091179055565b6113003361306b565b611335576040517ead0c9500000000000000000000000000000000000000000000000000000000815260040160405180910390fd5b670de0b6b3a76400008167ffffffffffffffff161115611381576040517fcb3f365b00000000000000000000000000000000000000000000000000000000815260040160405180910390fd5b336000818152606b60209081526040918290208251606081018452905467ffffffffffffffff808216835268010000000000000000820416928201929092527001000000000000000000000000000000009091046fffffffffffffffffffffffffffffffff1691810191909152906113f890612d59565b67ffffffffffffffff90811682528216602082015260745461142c906fffffffffffffffffffffffffffffffff1642615a02565b6fffffffffffffffffffffffffffffffff166040828101829052805167ffffffffffffffff85168152602081019290925233917f029674ff064f2d0d5b88c006bca2b7583291550ccf6462e8ae1a9b03d0479515910160405180910390a2336000908152606b6020908152604091829020835181549285015193909401516fffffffffffffffffffffffffffffffff9081167001000000000000000000000000000000000267ffffffffffffffff94851668010000000000000000027fffffffffffffffffffffffffffffffff000000000000000000000000000000009094169490951693909317919091179190911691909117905550565b805160005b818110156115f55761155483828151811061154757611547615a2b565b6020026020010151613780565b82818151811061156657611566615a2b565b60209081029190910101516040517f4c4d0d730000000000000000000000000000000000000000000000000000000081523360048201526001600160a01b0390911690634c4d0d7390602401600060405180830381600087803b1580156115cc57600080fd5b505af11580156115e0573d6000803e3d6000fd5b505050506115ee8160010190565b905061152a565b505050565b6000546040517fd994d6d50000000000000000000000000000000000000000000000000000000081523360048201526001600160a01b039091169063d994d6d590602401602060405180830381865afa15801561165b573d6000803e3d6000fd5b505050506040513d601f19601f8201168201806040525081019061167f9190615a6a565b158015611712575060008054906101000a90046001600160a01b03166001600160a01b031663ce7ee5ac6040518163ffffffff1660e01b8152600401602060405180830381865afa1580156116d8573d6000803e3d6000fd5b505050506040513d601f19601f820116820180604052508101906116fc9190615a85565b6001600160a01b0316336001600160a01b031614155b15611749576040517f39f34f8400000000000000000000000000000000000000000000000000000000815260040160405180910390fd5b60345461175c9063ffffffff168361375c565b611792576040517f7fc5120500000000000000000000000000000000000000000000000000000000815260040160405180910390fd5b60008061179d611ef7565b6040805160a08101825260335467ffffffffffffffff700100000000000000000000000000000000820481166060840152780100000000000000000000000000000000000000000000000090910462ffffff16608083015263ffffffff848116808452908a1660208401529085169282018390529395509193509091611824919042613824565b67ffffffffffffffff166060820181905262ffffff851660808301526040805163ffffffff8816815260208101929092527f15c8ad9af95537fe83718dcd140a2b725b6e190fb5e68c4f13ff38232b86b77c910160405180910390a180516033805460208401516040850151606086015160809096015163ffffffff9586167fffffffffffffffffffffffffffffffffffffffffffffffff0000000000000000909416939093176401000000009590921694909402177fffffffffffffffff00000000000000000000000000000000ffffffffffffffff166801000000000000000067ffffffffffffffff948516027fffffffffffffffff0000000000000000ffffffffffffffffffffffffffffffff16177001000000000000000000000000000000009390941692909202929092177fffffffffff000000ffffffffffffffffffffffffffffffffffffffffffffffff16780100000000000000000000000000000000000000000000000062ffffff9092169190910217905550505050565b336000908152607160205260409020546001600160a01b0316806119f4576040517f412a573000000000000000000000000000000000000000000000000000000000815260040160405180910390fd5b33600090815260686020526040902054610100900460ff16611a42576040517fdfac5c4a00000000000000000000000000000000000000000000000000000000815260040160405180910390fd5b3360009081526068602052604090205462010000900460ff16611a91576040517f2272386e00000000000000000000000000000000000000000000000000000000815260040160405180910390fd5b33600090815260686020526040902054640100000000900460ff16611ae2576040517f73f7ab1e00000000000000000000000000000000000000000000000000000000815260040160405180910390fd5b670de0b6b3a76400008267ffffffffffffffff161115611b2e576040517fcb3f365b00000000000000000000000000000000000000000000000000000000815260040160405180910390fd5b33600081815260686020908152604080832080547fffffffffffffffffffffffffffffffffffffffffffffffffffffff00ffffffff169055606b8252918290208251606081018452905467ffffffffffffffff808216835268010000000000000000820416928201929092527001000000000000000000000000000000009091046fffffffffffffffffffffffffffffffff169181019190915290611bd290612d59565b67ffffffffffffffff90811682528381166020808401918252336000908152606b909152604090819020845181549351928601516fffffffffffffffffffffffffffffffff9081167001000000000000000000000000000000000293861668010000000000000000027fffffffffffffffffffffffffffffffff0000000000000000000000000000000090951691909516179290921792909216919091179055611c7b8261383b565b604080820151815167ffffffffffffffff861681526fffffffffffffffffffffffffffffffff909116602082015233917f7dba82990ac719cd904649f1701fcda6db3c92f2ff9cd31ceed2eb989a441d3191015b60405180910390a2505050565b6001600160a01b038181166000908152606a6020526040812054909116158015906110045750506001600160a01b039081166000908152606a602090815260408083205460699092529091205482169116141590565b60af5460ff1615611d6f576040517fbc1eb20900000000000000000000000000000000000000000000000000000000815260040160405180910390fd5b611d77612de4565b600003611db0576040517fb9927e0d00000000000000000000000000000000000000000000000000000000815260040160405180910390fd5b3415611e19573460ac6000828254611dc891906159ef565b9091555050604051348152339073f7ab6cfaebbadfe8b5494022c4c6db776bd63b6b907ff70d5c697de7ea828df48e5c4573cb2194c659f1901f70110c52b066dcf508269060200160405180910390a35b8015611e90578060ab6000828254611e3191906159ef565b909155505060a85460405182815233916001600160a01b0316907ff70d5c697de7ea828df48e5c4573cb2194c659f1901f70110c52b066dcf508269060200160405180910390a360a854611e90906001600160a01b031633308461386a565b50565b336000908152606960205260409020546001600160a01b0316611eb5816138f2565b6040516001600160a01b038216815233907f4815977db1df3778807ed9d5a0c32398684440c2cd8cfc0a411b47528214df7b906020015b60405180910390a250565b6040805160a08101825260335463ffffffff8082168352640100000000820416602083015268010000000000000000810467ffffffffffffffff90811693830193909352700100000000000000000000000000000000810490921660608201819052780100000000000000000000000000000000000000000000000090920462ffffff166080820152600091829190421061203957806080015162ffffff16816020015163ffffffff168260600151611fb09190615aa2565b611fba9190615aa2565b67ffffffffffffffff1642101561200257806060015167ffffffffffffffff16816080015162ffffff168260200151611ff39190615ac3565b63ffffffff1692509250509091565b806080015162ffffff16816060015161201b9190615aa2565b67ffffffffffffffff16816020015163ffffffff1692509250509091565b806040015167ffffffffffffffff16816000015163ffffffff1692509250509091565b60af5460ff1615612099576040517fbc1eb20900000000000000000000000000000000000000000000000000000000815260040160405180910390fd5b828181146120d3576040517fccab218c00000000000000000000000000000000000000000000000000000000815260040160405180910390fd5b33600090815260b0602052604081205460a95490916120f142612701565b905060005b8481101561215b5760008061214c8b8b8581811061211657612116615a2b565b905060200201602081019061212b9190615399565b8a8a8681811061213d5761213d615a2b565b90506020020135888888613979565b909650945050506001016120f6565b50612167338484613b0a565b5050505050505050565b805160005b818110156122a75760006001600160a01b03166072600085848151811061219f5761219f615a2b565b6020908102919091018101516001600160a01b039081168352908201929092526040016000205416036121fe576040517f3c91aa3a00000000000000000000000000000000000000000000000000000000815260040160405180910390fd5b82818151811061221057612210615a2b565b60209081029190910101516040517ff7b761580000000000000000000000000000000000000000000000000000000081526001600160a01b0386811660048301523360248301529091169063f7b7615890604401600060405180830381600087803b15801561227e57600080fd5b505af1158015612292573d6000803e3d6000fd5b505050506122a08160010190565b9050612176565b50505050565b6000611004606c83613be4565b7ff0c57e16840df040f15088dc2f81fe391c3923bec73e23a9662efc9c229c6a00805468010000000000000000810460ff16159067ffffffffffffffff166000811580156123055750825b905060008267ffffffffffffffff1660011480156123225750303b155b905081158015612330575080155b15612367576040517ff92ee8a900000000000000000000000000000000000000000000000000000000815260040160405180910390fd5b84547fffffffffffffffffffffffffffffffffffffffffffffffff000000000000000016600117855583156123c85784547fffffffffffffffffffffffffffffffffffffffffffffff00ffffffffffffffff16680100000000000000001785555b6123d78e8c8c8c8c8c8c613bf0565b8c60a860006101000a8154816001600160a01b0302191690836001600160a01b031602179055508b60a760006101000a8154816001600160a01b0302191690836001600160a01b0316021790555061242e426129d4565b60ae5583156124925784547fffffffffffffffffffffffffffffffffffffffffffffff00ffffffffffffffff168555604051600181527fc7f505b2f371ae2175ee4913f4499e1f2633a7b5936321eed1cdaeb6115181d29060200160405180910390a15b5050505050505050505050505050565b6124aa613c9b565b6124b382613d6d565b6124bd8282613de4565b5050565b60006124cb613f08565b507f360894a13ba1a3210667c828492db98dca3e2076cc3735a920a3ca505d382bbc90565b336000908152607160205260409020546001600160a01b031680612540576040517f412a573000000000000000000000000000000000000000000000000000000000815260040160405180910390fd5b33600090815260686020526040902054610100900460ff1661258e576040517fdfac5c4a00000000000000000000000000000000000000000000000000000000815260040160405180910390fd5b3360009081526068602052604090205462010000900460ff166125dd576040517f2272386e00000000000000000000000000000000000000000000000000000000815260040160405180910390fd5b33600090815260686020526040902054640100000000900460ff161561262f576040517f905e710700000000000000000000000000000000000000000000000000000000815260040160405180910390fd5b33600090815260686020526040902080547fffffffffffffffffffffffffffffffffffffffffffffffffffffff00ffffffff1664010000000017905560745461268a906fffffffffffffffffffffffffffffffff16426159ef565b336000908152606b6020526040902080546fffffffffffffffffffffffffffffffff9283167001000000000000000000000000000000000292169190911790556126d381613f6a565b60405133907fb6fa8b8bd5eab60f292eca876e3ef90722275b785309d84b1de113ce0b8c4e7490600090a250565b600080600061270e611ef7565b9150915061271d828286613f98565b949350505050565b6001600160a01b038082166000908152607260205260408120549091611004911661306b565b6000546040517f445ac6330000000000000000000000000000000000000000000000000000000081523360048201526001600160a01b039091169063445ac6339060240160006040518083038186803b1580156127a757600080fd5b505afa1580156127bb573d6000803e3d6000fd5b505050506115f5838383613fc2565b6000611004606e83613724565b60006127e3606e6141d9565b905090565b6000546040517f7e185f570000000000000000000000000000000000000000000000000000000081523360048201526001600160a01b0390911690637e185f579060240160006040518083038186803b15801561284457600080fd5b505afa158015612858573d6000803e3d6000fd5b505050506001600160a01b0381811660009081526071602052604090205416806128ae576040517f412a573000000000000000000000000000000000000000000000000000000000815260040160405180910390fd5b6001600160a01b03821660009081526068602052604090205462010000900460ff16612906576040517f2272386e00000000000000000000000000000000000000000000000000000000815260040160405180910390fd5b6001600160a01b038216600090815260686020526040902080547fffffffffffffffffffffffffffffffffffffffffffffffffffffffffff00ffff16905561294d81613f6a565b6129588160006141e3565b6040516001600160a01b038316907f78c8e01ebc9b1b82f14af9f3a9b6fa7bdba5e36f9e96d15ca3aebc36cf72ce8590600090a25050565b612999816138f2565b6040516001600160a01b038216815233907ffd86eb6a6fd802b0b2edabf5bc13b0ada6e619b69bb19a08d048e2d2374de2d190602001611eec565b60008060006129e1611ef7565b9150915061271d828286613824565b60008060006129fd611ef7565b90925090506000612a0e8386615ae0565b9050818181612a1f57612a1f615af3565b06909403949350505050565b6000546040517f445ac6330000000000000000000000000000000000000000000000000000000081523360048201526001600160a01b039091169063445ac6339060240160006040518083038186803b158015612a8757600080fd5b505afa158015612a9b573d6000803e3d6000fd5b505050506001600160a01b038181166000908152607160205260409020541680612af1576040517f412a573000000000000000000000000000000000000000000000000000000000815260040160405180910390fd5b6001600160a01b03821660009081526068602052604090205460ff16612b43576040517f037c597f00000000000000000000000000000000000000000000000000000000815260040160405180910390fd5b6001600160a01b038216600090815260686020526040902054610100900460ff1615612b9b576040517f0c60c81000000000000000000000000000000000000000000000000000000000815260040160405180910390fd5b6001600160a01b038216600090815260686020526040902080547fffffffffffffffffffffffffffffffffffffffffffffffffffffffffffff00ff16610100179055612be68161383b565b6040516001600160a01b038316907f333bb19eeef0621b32888db778cc7a481a89fc1d59adb2cecb59b40ef048941e90600090a25050565b60af5460ff1615612c5b576040517fbc1eb20900000000000000000000000000000000000000000000000000000000815260040160405180910390fd5b33600090815260b0602052604081205460a9548291612c869186918691612c8142612701565b613979565b915091506122a7338383613b0a565b6000546040517f445ac6330000000000000000000000000000000000000000000000000000000081523360048201526001600160a01b039091169063445ac6339060240160006040518083038186803b158015612cf157600080fd5b505afa158015612d05573d6000803e3d6000fd5b50505050612d1283614273565b50612d1e838383613fc2565b60405133906001600160a01b038516907f8af41f46390f96b58351b4d4f8afb27eea35637de1fb1b9538308b25497a27dc90600090a3505050565b6001600160a01b0381166000908152606b602090815260408083208151606081018352905467ffffffffffffffff808216835268010000000000000000820416938201939093527001000000000000000000000000000000009092046fffffffffffffffffffffffffffffffff169082018190524210612ddd576020015192915050565b5192915050565b60006127e3606c6141d9565b6000546040517f445ac6330000000000000000000000000000000000000000000000000000000081523360048201526001600160a01b039091169063445ac6339060240160006040518083038186803b158015612e4c57600080fd5b505afa158015612e60573d6000803e3d6000fd5b505050506001600160a01b038216600081815260686020908152604091829020805463010000006bffffffffffffffff00ffffff9091166c01000000000000000000000000606088901c021717905590517fffffffffffffffffffffffffffffffffffffffff000000000000000000000000841681527f6525882b4c209582fe16abd1257106636114aefe60495f27fcf096a21c8a6d34910160405180910390a25050565b600080546040517f7e185f570000000000000000000000000000000000000000000000000000000081523360048201526001600160a01b0390911690637e185f579060240160006040518083038186803b158015612f6257600080fd5b505afa158015612f76573d6000803e3d6000fd5b5050505061100482614273565b919050565b6000612f9342611017565b4210612fcb576040517f137d765400000000000000000000000000000000000000000000000000000000815260040160405180910390fd5b60af5460ff1615613008576040517fbc1eb20900000000000000000000000000000000000000000000000000000000815260040160405180910390fd5b60405133907fe64e289f2bf6b4f5ccbc1597d14be6638e1517b1b29e2ec5a05101f57d8d81e890600090a261303b6143cf565b60af80547fffffffffffffffffffffffffffffffffffffffffffffffffffffffffffffff00168215179055919050565b6001600160a01b0381166000908152606860209081526040808320815160e081018352905460ff8082161515835261010082048116158015958401869052620100008304821615159484019490945263010000008204811615156060808501919091526401000000008304909116151560808401527fffffffffffffff0000000000000000000000000000000000000000000000000065010000000000830460c81b1660a08401527fffffffffffffffffffffffffffffffffffffffff0000000000000000000000006c01000000000000000000000000909204901b1660c0820152919061315a575080604001515b801561316857508060600151155b9392505050565b6001600160a01b038216600090815260b06020526040812054808203613199576001915050611004565b60a7546040517f70a082310000000000000000000000000000000000000000000000000000000081526001600160a01b038681166004830152839216906370a0823190602401602060405180830381865afa1580156131fc573d6000803e3d6000fd5b505050506040513d601f19601f820116820180604052508101906132209190615b22565b1015949350505050565b60af5460009060ff161515810361326d576040517f3d0a971800000000000000000000000000000000000000000000000000000000815260040160405180910390fd5b61303b6143cf565b6000611004606e83613be4565b600061328d336127ca565b156132a657503360009081526073602052604090205490565b5060ae5490565b6000546040517f445ac6330000000000000000000000000000000000000000000000000000000081523360048201526001600160a01b039091169063445ac6339060240160006040518083038186803b15801561330957600080fd5b505afa15801561331d573d6000803e3d6000fd5b505050506001600160a01b038116600090815260686020526040902054610100900460ff16613378576040517fdfac5c4a00000000000000000000000000000000000000000000000000000000815260040160405180910390fd5b6001600160a01b03808216600090815260686020908152604080832080547fffffffffffffffffffffffffffffffffffffffffffffffffffffffffffff00ff169055607190915290205416801561344b576133d281613f6a565b6067546040517f95f948dc0000000000000000000000000000000000000000000000000000000081526001600160a01b039182166004820152908216906395f948dc90602401600060405180830381600087803b15801561343257600080fd5b505af1158015613446573d6000803e3d6000fd5b505050505b6040516001600160a01b038316907ffb4ca6a2470de95e9f648557fae63380f22c4b760bd27b0571caf5977a30278a90600090a25050565b6000546040517f445ac6330000000000000000000000000000000000000000000000000000000081523360048201526001600160a01b039091169063445ac6339060240160006040518083038186803b1580156134df57600080fd5b505afa1580156134f3573d6000803e3d6000fd5b505050506135008261306b565b613535576040517ead0c9500000000000000000000000000000000000000000000000000000000815260040160405180910390fd5b6001600160a01b038083166000908152606a60205260409020548116908216811461358c576040517f3b7db6df00000000000000000000000000000000000000000000000000000000815260040160405180910390fd5b6001600160a01b0383811660008181526069602090815260409182902080547fffffffffffffffffffffffff0000000000000000000000000000000000000000168686161790559051928516835290917f390b365b1e8016ae28db114a7764f9e95293831d64e8958261d56cf59a2c01739101611ccf565b6000546040517f445ac6330000000000000000000000000000000000000000000000000000000081523360048201526001600160a01b039091169063445ac6339060240160006040518083038186803b15801561366057600080fd5b505afa158015613674573d6000803e3d6000fd5b505050506001600160a01b0381166000908152606860205260409020546301000000900460ff166136d1576040517f6cd6020100000000000000000000000000000000000000000000000000000000815260040160405180910390fd5b6001600160a01b03811660008181526068602052604080822080546bffffffffffffffff00ffffff169055517f5db9ee0a495bf2e6ff9c91a7834c1ba4fdd244a5e8aa4e537bd38aeae4b073aa9190a250565b6001600160a01b03811660009081526001830160205260408120541515613168565b60008183116137555781613168565b5090919050565b6000613769836002615b3b565b63ffffffff168263ffffffff161015905092915050565b6001600160a01b0380821660009081526072602052604090205416806137d2576040517f3c91aa3a00000000000000000000000000000000000000000000000000000000815260040160405180910390fd5b6001600160a01b03811660009081526068602052604090205460ff166124bd576040517f037c597f00000000000000000000000000000000000000000000000000000000815260040160405180910390fd5b6000613831848484613f98565b9091019392505050565b6138448161452a565b15611e9057613854606c82614639565b50613860606e8261464e565b50611e9081614663565b604080516001600160a01b0385811660248301528416604482015260648082018490528251808303909101815260849091019091526020810180517bffffffffffffffffffffffffffffffffffffffffffffffffffffffff167f23b872dd000000000000000000000000000000000000000000000000000000001790526122a7908590614870565b336138fc8161306b565b613931576040517ead0c9500000000000000000000000000000000000000000000000000000000815260040160405180910390fd5b6001600160a01b039081166000908152606a602052604090208054919092167fffffffffffffffffffffffff0000000000000000000000000000000000000000909116179055565b60008061398587613780565b6040517fab3f22d50000000000000000000000000000000000000000000000000000000081523360048201526024810187905260448101849052600090819081906001600160a01b038b169063ab3f22d5906064016060604051808303816000875af11580156139f9573d6000803e3d6000fd5b505050506040513d601f19601f82011682018060405250810190613a1d9190615b63565b925092509250613a2c8a6127ca565b15613a805780613a68576040517f8b6f39e300000000000000000000000000000000000000000000000000000000815260040160405180910390fd5b613a728389615ae0565b9450869350613b0092505050565b8015613aa357613a908389615ae0565b9450613a9c8288615ae0565b9350613abc565b613aad83896159ef565b9450613ab982886159ef565b93505b6040518981526001600160a01b038b169033907fed07ca57097393e77ba36105a07f6810afc2180b72a9c02a4b0da4b51a73a6ec9060200160405180910390a35050505b9550959350505050565b6001600160a01b03838116600081815260b060205260409081902085905560a984905560a75490517f70a082310000000000000000000000000000000000000000000000000000000081526004810192909252909116906370a0823190602401602060405180830381865afa158015613b87573d6000803e3d6000fd5b505050506040513d601f19601f82011682018060405250810190613bab9190615b22565b8211156115f5576040517f2e0aee6200000000000000000000000000000000000000000000000000000000815260040160405180910390fd5b600061316883836148ec565b613bf8614916565b613c048785858561497d565b613c0c614ae4565b607080547fffffffffffffffffffffffff00000000000000000000000000000000000000009081166001600160a01b03988916179091556067805490911695909616949094179094555050607480547fffffffffffffffffffffffffffffffff00000000000000000000000000000000166fffffffffffffffffffffffffffffffff9092169190911790555050565b306001600160a01b037f0000000000000000000000000000000000000000000000000000000000000000161480613d3457507f00000000000000000000000000000000000000000000000000000000000000006001600160a01b0316613d287f360894a13ba1a3210667c828492db98dca3e2076cc3735a920a3ca505d382bbc546001600160a01b031690565b6001600160a01b031614155b15613d6b576040517fe07c8dba00000000000000000000000000000000000000000000000000000000815260040160405180910390fd5b565b6000546040517feb6f7abf0000000000000000000000000000000000000000000000000000000081523360048201526001600160a01b039091169063eb6f7abf9060240160006040518083038186803b158015613dc957600080fd5b505afa158015613ddd573d6000803e3d6000fd5b5050505050565b816001600160a01b03166352d1902d6040518163ffffffff1660e01b8152600401602060405180830381865afa925050508015613e5c575060408051601f3d9081017fffffffffffffffffffffffffffffffffffffffffffffffffffffffffffffffe0168201909252613e5991810190615b22565b60015b613ea2576040517f4c9c8ce30000000000000000000000000000000000000000000000000000000081526001600160a01b03831660048201526024015b60405180910390fd5b7f360894a13ba1a3210667c828492db98dca3e2076cc3735a920a3ca505d382bbc8114613efe576040517faa1d49a400000000000000000000000000000000000000000000000000000000815260048101829052602401613e99565b6115f58383614aec565b306001600160a01b037f00000000000000000000000000000000000000000000000000000000000000001614613d6b576040517fe07c8dba00000000000000000000000000000000000000000000000000000000815260040160405180910390fd5b613f73816127ca565b611e9057613f82606e82614639565b50613f8e606c8261464e565b50611e9081614b42565b600080613fa58584615ae0565b9050838181613fb657613fb6615af3565b06909303949350505050565b6001600160a01b03831660009081526068602052604090205460ff1615614015576040517fef65161f00000000000000000000000000000000000000000000000000000000815260040160405180910390fd5b6001600160a01b03838116600090815260686020908152604080832080547fffffffffffffffffffffffffffffffffffffffffffffffffffffffffffff0000166101011790556069909152902080547fffffffffffffffffffffffff000000000000000000000000000000000000000016918416919091179055670de0b6b3a764000067ffffffffffffffff821611156140db576040517fcb3f365b00000000000000000000000000000000000000000000000000000000815260040160405180910390fd5b6001600160a01b038381166000818152606b602081815260408084208151606081018352815467ffffffffffffffff8a8116808452838701818152426fffffffffffffffffffffffffffffffff9081168689019081529a8c905298885284519051995189167001000000000000000000000000000000000299831668010000000000000000027fffffffffffffffffffffffffffffffff0000000000000000000000000000000090941692169190911791909117909516959095179055805195881686529085019190915290927f7c17fc62e6995162bad4a8b971071389b16be69a2aad3ffec7b89101ccf832f2910160405180910390a250505050565b6000611004825490565b60a8546040517f095ea7b30000000000000000000000000000000000000000000000000000000081526001600160a01b038481166004830152602482018490529091169063095ea7b3906044016020604051808303816000875af115801561424f573d6000803e3d6000fd5b505050506040513d601f19601f820116820180604052508101906115f59190615a6a565b6001600160a01b03811660009081526068602052604081205462010000900460ff16156142cc576040517f9add58c500000000000000000000000000000000000000000000000000000000815260040160405180910390fd5b6001600160a01b03828116600090815260716020526040902054161561431e576040517f7fe8efbb00000000000000000000000000000000000000000000000000000000815260040160405180910390fd5b6001600160a01b038216600090815260686020526040902080547fffffffffffffffffffffffffffffffffffffffffffffffffffffffffff00ffff166201000017905561436a82614c16565b9050614396817fffffffffffffffffffffffffffffffffffffffffffffffffffffffffffffffff6141e3565b6040516001600160a01b038316907f65b21a2a34a615112fde6cfc7e1bfef6dd30a04b0d2003751618b1571cab53d990600090a2919050565b60aa5460ad5460009190826143e2612de4565b905060006143fa826143f56014866159ef565b614d4f565b60ab5460ac5460a95460ae549394509192909190600080614419611ef7565b915091505b868910156144545761443d6144328a6122ad565b878787878787614d5e565b614447908b6159ef565b995060018901985061441e565b60405133907fcc320ee5dbf17441226d664c195a950e95eef67dc4dbebde435456c5389b427e90600090a287870361450f5760405133907f2e0a637781c44a621d21ae02c97a62860799594e47e453e0491eb348ebf83bff90600090a2600060ad81905560ac81905560ab81905560af80547fffffffffffffffffffffffffffffffffffffffffffffffffffffffffffffff0016905560aa5560a98a90556144fb426129d4565b60ae555060019a9950505050505050505050565b50505060ad9590955550505060aa9290925550600092915050565b6001600160a01b03808216600090815260726020908152604080832054909316825260688152828220835160e081018552905460ff8082161515835261010082048116158015948401859052620100008304821615159684019690965263010000008204811615156060808501919091526401000000008304909116151560808401527fffffffffffffff0000000000000000000000000000000000000000000000000065010000000000830460c81b1660a08401527fffffffffffffffffffffffffffffffffffffffff0000000000000000000000006c01000000000000000000000000909204901b1660c08201529192614627575080604001515b80156131685750608001511592915050565b6000613168836001600160a01b038416614ede565b6000613168836001600160a01b038416614f2d565b60af5460ff16156146a0576040517fbc1eb20900000000000000000000000000000000000000000000000000000000815260040160405180910390fd5b4260ae54116146db576040517fd0f0904700000000000000000000000000000000000000000000000000000000815260040160405180910390fd5b60ae546001600160a01b03821660009081526073602052604090205410156147dd57600080614708611ef7565b6001600160a01b0385166000818152607360205260408082205490517fa505626a0000000000000000000000000000000000000000000000000000000081526004810183905260248101839052604481019190915260648101859052608481018490529395509193509163a505626a919060a40160206040518083038185885af115801561479a573d6000803e3d6000fd5b50505050506040513d601f19601f820116820180604052508101906147bf9190615b22565b60a960008282546147d091906159ef565b9091555061485692505050565b806001600160a01b031663e52595466040518163ffffffff1660e01b8152600401602060405180830381865afa15801561481b573d6000803e3d6000fd5b505050506040513d601f19601f8201168201806040525081019061483f9190615b22565b60a9600082825461485091906159ef565b90915550505b6001600160a01b0316600090815260736020526040812055565b60006148856001600160a01b03841683615027565b905080516000141580156148aa5750808060200190518101906148a89190615a6a565b155b156115f5576040517f5274afe70000000000000000000000000000000000000000000000000000000081526001600160a01b0384166004820152602401613e99565b600082600001828154811061490357614903615a2b565b9060005260206000200154905092915050565b7ff0c57e16840df040f15088dc2f81fe391c3923bec73e23a9662efc9c229c6a005468010000000000000000900460ff16613d6b576040517fd7e6bcf800000000000000000000000000000000000000000000000000000000815260040160405180910390fd5b614985614916565b61498e84615035565b6040805160a0810182526033805463ffffffff9687168084526020840181905267ffffffffffffffff42169484018590526060840185905262ffffff9690961660809093018390527fffffffffffffffffffffffffffffffffffffffffffffffff0000000000000000168517640100000000909502949094177fffffffffffffffff00000000000000000000000000000000ffffffffffffffff166801000000000000000083027fffffffffffffffff0000000000000000ffffffffffffffffffffffffffffffff1617700100000000000000000000000000000000909202919091177fffffffffff000000ffffffffffffffffffffffffffffffffffffffffffffffff16780100000000000000000000000000000000000000000000000090910217909155603480547fffffffffffffffffffffffffffffffffffffffffffffffffffffffff00000000169190921617905550565b613d6b614916565b614af58261507f565b6040516001600160a01b038316907fbc7cd75a20ee27fd9adebab32041f755214dbc6bffa90cc0225b39da2e5c2d3b90600090a2805115614b3a576115f58282615127565b6124bd61519d565b60af5460ff1615614b7f576040517fbc1eb20900000000000000000000000000000000000000000000000000000000815260040160405180910390fd5b806001600160a01b031663e52595466040518163ffffffff1660e01b8152600401602060405180830381865afa158015614bbd573d6000803e3d6000fd5b505050506040513d601f19601f82011682018060405250810190614be19190615b22565b60a96000828254614bf29190615ae0565b909155505060ae546001600160a01b03909116600090815260736020526040902055565b607054604080517fdc5a417900000000000000000000000000000000000000000000000000000000815290516000926001600160a01b03169163dc5a4179916004808301926020929190829003018187875af1158015614c7a573d6000803e3d6000fd5b505050506040513d601f19601f82011682018060405250810190614c9e9190615a85565b6001600160a01b03808416600081815260716020908152604080832080549587167fffffffffffffffffffffffff0000000000000000000000000000000000000000968716811790915583526072909152902080549092161790559050614d06606c82614639565b506040513381526001600160a01b0380831691908416907f9b8203efe7fe42185a7755b0510f87c8b693971d6a7c22520aaf683e6b1242619060200160405180910390a3919050565b60008183106137555781613168565b600080886001600160a01b031663e52595466040518163ffffffff1660e01b8152600401602060405180830381865afa158015614d9f573d6000803e3d6000fd5b505050506040513d601f19601f82011682018060405250810190614dc39190615b22565b9050600086614dd28a84615b8f565b614ddc9190615ba6565b9050600087614deb8a85615b8f565b614df59190615ba6565b6001600160a01b03808d1660009081526072602052604081205492935091614e1d9116612d59565b6040517fa505626a0000000000000000000000000000000000000000000000000000000081526004810185905267ffffffffffffffff9190911660248201819052604482018a9052606482018990526084820188905291506001600160a01b038d169063a505626a90849060a40160206040518083038185885af1158015614ea9573d6000803e3d6000fd5b50505050506040513d601f19601f82011682018060405250810190614ece9190615b22565b9c9b505050505050505050505050565b6000818152600183016020526040812054614f2557508154600181810184556000848152602080822090930184905584548482528286019093526040902091909155611004565b506000611004565b60008181526001830160205260408120548015615016576000614f51600183615ae0565b8554909150600090614f6590600190615ae0565b9050808214614fca576000866000018281548110614f8557614f85615a2b565b9060005260206000200154905080876000018481548110614fa857614fa8615a2b565b6000918252602080832090910192909255918252600188019052604090208390555b8554869080614fdb57614fdb615be1565b600190038181906000526020600020016000905590558560010160008681526020019081526020016000206000905560019350505050611004565b6000915050611004565b5092915050565b6060613168838360006151d5565b61503d614916565b615045614ae4565b600080547fffffffffffffffffffffffff0000000000000000000000000000000000000000166001600160a01b0392909216919091179055565b806001600160a01b03163b6000036150ce576040517f4c9c8ce30000000000000000000000000000000000000000000000000000000081526001600160a01b0382166004820152602401613e99565b7f360894a13ba1a3210667c828492db98dca3e2076cc3735a920a3ca505d382bbc80547fffffffffffffffffffffffff0000000000000000000000000000000000000000166001600160a01b0392909216919091179055565b6060600080846001600160a01b0316846040516151449190615c10565b600060405180830381855af49150503d806000811461517f576040519150601f19603f3d011682016040523d82523d6000602084013e615184565b606091505b509150915061519485838361528b565b95945050505050565b3415613d6b576040517fb398979f00000000000000000000000000000000000000000000000000000000815260040160405180910390fd5b606081471015615213576040517fcd786059000000000000000000000000000000000000000000000000000000008152306004820152602401613e99565b600080856001600160a01b0316848660405161522f9190615c10565b60006040518083038185875af1925050503d806000811461526c576040519150601f19603f3d011682016040523d82523d6000602084013e615271565b606091505b509150915061528186838361528b565b9695505050505050565b6060826152a05761529b82615300565b613168565b81511580156152b757506001600160a01b0384163b155b156152f9576040517f9996b3150000000000000000000000000000000000000000000000000000000081526001600160a01b0385166004820152602401613e99565b5080613168565b8051156153105780518082602001fd5b6040517f1425ea4200000000000000000000000000000000000000000000000000000000815260040160405180910390fd5b60006020828403121561535457600080fd5b81357fffffffff000000000000000000000000000000000000000000000000000000008116811461316857600080fd5b6001600160a01b0381168114611e9057600080fd5b6000602082840312156153ab57600080fd5b813561316881615384565b6000602082840312156153c857600080fd5b5035919050565b803563ffffffff81168114612f8357600080fd5b6000602082840312156153f557600080fd5b613168826153cf565b803567ffffffffffffffff81168114612f8357600080fd5b60006020828403121561542857600080fd5b613168826153fe565b7f4e487b7100000000000000000000000000000000000000000000000000000000600052604160045260246000fd5b604051601f82017fffffffffffffffffffffffffffffffffffffffffffffffffffffffffffffffe016810167ffffffffffffffff811182821017156154a7576154a7615431565b604052919050565b600082601f8301126154c057600080fd5b8135602067ffffffffffffffff8211156154dc576154dc615431565b8160051b6154eb828201615460565b928352848101820192828101908785111561550557600080fd5b83870192505b8483101561552d57823561551e81615384565b8252918301919083019061550b565b979650505050505050565b60006020828403121561554a57600080fd5b813567ffffffffffffffff81111561556157600080fd5b61271d848285016154af565b803562ffffff81168114612f8357600080fd5b6000806040838503121561559357600080fd5b61559c836153cf565b91506155aa6020840161556d565b90509250929050565b60008083601f8401126155c557600080fd5b50813567ffffffffffffffff8111156155dd57600080fd5b6020830191508360208260051b85010111156155f857600080fd5b9250929050565b6000806000806040858703121561561557600080fd5b843567ffffffffffffffff8082111561562d57600080fd5b615639888389016155b3565b9096509450602087013591508082111561565257600080fd5b5061565f878288016155b3565b95989497509550505050565b6000806040838503121561567e57600080fd5b823561568981615384565b9150602083013567ffffffffffffffff8111156156a557600080fd5b6156b1858286016154af565b9150509250929050565b60008060008060008060008060006101208a8c0312156156da57600080fd5b89356156e581615384565b985060208a01356156f581615384565b975060408a013561570581615384565b965060608a013561571581615384565b955060808a013561572581615384565b945061573360a08b016153cf565b935061574160c08b0161556d565b925061574f60e08b016153cf565b91506101008a01356fffffffffffffffffffffffffffffffff8116811461577557600080fd5b809150509295985092959850929598565b6000806040838503121561579957600080fd5b82356157a481615384565b915060208381013567ffffffffffffffff808211156157c257600080fd5b818601915086601f8301126157d657600080fd5b8135818111156157e8576157e8615431565b615818847fffffffffffffffffffffffffffffffffffffffffffffffffffffffffffffffe0601f84011601615460565b9150808252878482850101111561582e57600080fd5b80848401858401376000848284010152508093505050509250929050565b60008060006060848603121561586157600080fd5b833561586c81615384565b9250602084013561587c81615384565b915061588a604085016153fe565b90509250925092565b60005b838110156158ae578181015183820152602001615896565b50506000910152565b60208152600082518060208401526158d6816040850160208701615893565b601f017fffffffffffffffffffffffffffffffffffffffffffffffffffffffffffffffe0169190910160400192915050565b6000806040838503121561591b57600080fd5b823561592681615384565b946020939093013593505050565b6000806040838503121561594757600080fd5b823561595281615384565b915060208301357fffffffffffffffffffffffffffffffffffffffff0000000000000000000000008116811461598757600080fd5b809150509250929050565b600080604083850312156159a557600080fd5b82356159b081615384565b9150602083013561598781615384565b7f4e487b7100000000000000000000000000000000000000000000000000000000600052601160045260246000fd5b80820180821115611004576110046159c0565b6fffffffffffffffffffffffffffffffff818116838216019080821115615020576150206159c0565b7f4e487b7100000000000000000000000000000000000000000000000000000000600052603260045260246000fd5b80518015158114612f8357600080fd5b600060208284031215615a7c57600080fd5b61316882615a5a565b600060208284031215615a9757600080fd5b815161316881615384565b67ffffffffffffffff818116838216019080821115615020576150206159c0565b63ffffffff818116838216019080821115615020576150206159c0565b81810381811115611004576110046159c0565b7f4e487b7100000000000000000000000000000000000000000000000000000000600052601260045260246000fd5b600060208284031215615b3457600080fd5b5051919050565b63ffffffff818116838216028082169190828114615b5b57615b5b6159c0565b505092915050565b600080600060608486031215615b7857600080fd5b835192506020840151915061588a60408501615a5a565b8082028115828204841417611004576110046159c0565b600082615bdc577f4e487b7100000000000000000000000000000000000000000000000000000000600052601260045260246000fd5b500490565b7f4e487b7100000000000000000000000000000000000000000000000000000000600052603160045260246000fd5b60008251615c22818460208701615893565b919091019291505056fea164736f6c6343000814000a",
  "devdoc": {
    "version": 1,
    "kind": "dev",
    "methods": {
      "activateBuilder(address,address,uint64)": {
        "details": "reverts if it is not called by the owner address reverts if it is already activated",
        "params": {
          "builder_": "address of the builder",
          "rewardPercentage_": "reward percentage(100% == 1 ether)",
          "rewardReceiver_": "address of the builder reward receiver"
        }
      },
      "allocate(address,uint256)": {
        "details": "reverts if it is called during the distribution period  reverts if gauge does not have a builder associated",
        "params": {
          "allocation_": "amount of votes to allocate",
          "gauge_": "address of the gauge where the votes will be allocated"
        }
      },
      "allocateBatch(address[],uint256[])": {
        "details": "reverts if it is called during the distribution period  reverts if gauge does not have a builder associated",
        "params": {
          "allocations_": "array of amount of votes to allocate",
          "gauges_": "array of gauges where the votes will be allocated"
        }
      },
      "approveBuidlerRewardReceiverReplacement(address,address)": {
        "details": "reverts if provided `rewardReceiverReplacement_` doesn't match Builder's request",
        "params": {
          "builder_": "address of the builder",
          "rewardReceiverReplacement_": "new address the builder is requesting to use"
        }
      },
      "approveBuilderKYC(address)": {
        "details": "reverts if it is not called by the owner address reverts if it is not activated reverts if it is already KYC approved reverts if it does not have a gauge associated",
        "params": {
          "builder_": "address of the builder"
        }
      },
      "canWithdraw(address,uint256)": {
        "details": "user token balance should already account for the update, meaning the check is applied AFTER the withdraw accounting has become effective.",
        "params": {
          "targetAddress_": "address who wants to withdraw stakingToken param value_ amount of stakingToken to withdraw, not used on current version"
        }
      },
      "cancelRewardReceiverReplacementRequest()": {
        "details": "reverts if Builder is not Operational"
      },
      "claimBackerRewards(address,address[])": {
        "params": {
          "gauges_": "array of gauges to claim",
          "rewardToken_": "address of the token rewarded  address(uint160(uint256(keccak256(\"COINBASE_ADDRESS\")))) is used for coinbase address"
        }
      },
      "claimBackerRewards(address[])": {
        "params": {
          "gauges_": "array of gauges to claim"
        }
      },
      "communityApproveBuilder(address)": {
        "details": "reverts if it is not called by the governor address or authorized changer reverts if is already community approved reverts if it has a gauge associated",
        "params": {
          "builder_": "address of the builder"
        },
        "returns": {
          "gauge_": "gauge contract"
        }
      },
      "constructor": {},
      "cycleNext(uint256)": {
        "params": {
          "timestamp_": "timestamp to calculate"
        },
        "returns": {
          "_0": "cycleNext timestamp when the cycle ends or the next starts"
        }
      },
      "cycleStart(uint256)": {
        "params": {
          "timestamp_": "timestamp to calculate"
        },
        "returns": {
          "_0": "cycleStart timestamp when the cycle starts"
        }
      },
      "dewhitelistBuilder(address)": {
        "details": "reverts if it is not called by the governor address or authorized changer reverts if it does not have a gauge associated reverts if it is not community approved",
        "params": {
          "builder_": "address of the builder"
        }
      },
      "distribute()": {
        "details": "reverts if distribution period has not yet started  This function is paginated and it finishes once all gauges distribution are completed,  ending the distribution period and voting restrictions.",
        "returns": {
          "finished_": "true if distribution has finished"
        }
      },
      "endDistributionWindow(uint256)": {
        "params": {
          "timestamp_": "timestamp to calculate"
        },
        "returns": {
          "_0": "endDistributionWindow timestamp when the cycle distribution ends"
        }
      },
      "getRewardPercentageToApply(address)": {
        "params": {
          "builder_": "address of the builder"
        }
      },
      "hasBuilderRewardReceiverPendingApproval(address)": {
        "params": {
          "builder_": "address of the builder"
        }
      },
      "initialize(address,address,address,address,address,uint32,uint24,uint32,uint128)": {
        "params": {
          "cycleDuration_": "Collective Rewards cycle time duration",
          "cycleStartOffset_": "offset to add to the first cycle, used to set an specific day to start the cycles",
          "distributionDuration_": "duration of the distribution window",
          "gaugeFactory_": "address of the GaugeFactoryRootstockCollective contract",
          "governanceManager_": "contract with permissioned roles",
          "rewardDistributor_": "address of the rewardDistributor contract",
          "rewardPercentageCooldown_": "time that must elapse for a new reward percentage from a builder to be applied",
          "rewardToken_": "address of the token rewarded to builder and voters",
          "stakingToken_": "address of the staking token for builder and voters"
        }
      },
      "migrateBuilder(address,address,uint64)": {
        "params": {
          "builder_": "address of the builder whitelisted on the V1's SimplifiedRewardDistributor contract",
          "rewardAddress_": "address of the builder reward receiver whitelisted on the V1's SimplifiedRewardDistributor contract",
          "rewardPercentage_": "reward percentage(100% == 1 ether)"
        }
      },
      "notifyRewardAmount(uint256)": {
        "details": "reverts if it is called during the distribution period  reverts if there are no gauges available for the distribution"
      },
      "pauseBuilder(address,bytes20)": {
        "details": "reverts if it is not called by the owner address",
        "params": {
          "builder_": "address of the builder",
          "reason_": "reason for the pause"
        }
      },
      "permitBuilder(uint64)": {
        "details": "reverts if it does not have a gauge associated  reverts if it is not KYC approved  reverts if it is not community approved  reverts if it is not revoked  reverts if it is executed in distribution period because changing the totalPotentialReward produce a miscalculation of rewards",
        "params": {
          "rewardPercentage_": "reward percentage(100% == 1 ether)"
        }
      },
      "proxiableUUID()": {
        "details": "Implementation of the ERC1822 {proxiableUUID} function. This returns the storage slot used by the implementation. It is used to validate the implementation's compatibility when performing an upgrade. IMPORTANT: A proxy pointing at a proxiable contract should not be considered proxiable itself, because this risks bricking a proxy that upgrades to it, by delegating to itself until out of gas. Thus it is critical that this function revert if invoked through a proxy. This is guaranteed by the `notDelegated` modifier."
      },
      "revokeBuilder()": {
        "details": "reverts if it does not have a gauge associated  reverts if it is not KYC approved  reverts if it is not community approved  reverts if it is already revoked  reverts if it is executed in distribution period because changing the totalPotentialReward produce a miscalculation of rewards"
      },
      "revokeBuilderKYC(address)": {
        "details": "reverts if it is not called by the owner address reverts if it is not KYC approved",
        "params": {
          "builder_": "address of the builder"
        }
      },
      "setBackerRewardPercentage(uint64)": {
        "details": "reverts if builder is not operational",
        "params": {
          "rewardPercentage_": "reward percentage(100% == 1 ether)"
        }
      },
      "setCycleDuration(uint32,uint24)": {
        "details": "reverts if is too short. It must be greater than 2 time the distribution windowonly callable by an authorized changer or the foundation",
        "params": {
          "cycleStartOffset_": "offset to add to the first cycle, used to set an specific day to start the cycles",
          "newCycleDuration_": "new cycle duration"
        }
      },
      "setDistributionDuration(uint32)": {
        "details": "reverts if is too short. It must be greater than 0reverts if the new distribution is greater than half of the cycle durationreverts if the distribution window is modified during the distribution windowonly callable by the foundation",
        "params": {
          "newDistributionDuration_": "new distribution window duration"
        }
      },
      "startDistribution()": {
        "details": "reverts if is called outside the distribution window  reverts if it is called during the distribution period",
        "returns": {
          "finished_": "true if distribution has finished"
        }
      },
      "submitRewardReceiverReplacementRequest(address)": {
        "details": "reverts if Builder is not Operational",
        "params": {
          "newRewardReceiver_": "new address the builder is requesting to use"
        }
      },
      "supportsInterface(bytes4)": {
        "details": "See {IERC165-supportsInterface}."
      },
      "timeUntilNextCycle(uint256)": {
        "params": {
          "timestamp_": "timestamp to calculate"
        },
        "returns": {
          "_0": "timeUntilNextCycle amount of time until next cycle"
        }
      },
      "unpauseBuilder(address)": {
        "details": "reverts if it is not called by the owner address reverts if it is not paused",
        "params": {
          "builder_": "address of the builder"
        }
      },
      "upgradeToAndCall(address,bytes)": {
        "details": "Upgrade the implementation of the proxy to `newImplementation`, and subsequently execute the function call encoded in `data`. Calls {_authorizeUpgrade}. Emits an {Upgraded} event."
      }
    },
    "events": {
      "Initialized(uint64)": {
        "details": "Triggered when the contract has been initialized or reinitialized."
      },
      "Upgraded(address)": {
        "details": "Emitted when the implementation is upgraded."
      }
    },
    "errors": {
      "AddressEmptyCode(address)": [
        {
          "details": "There's no code at `target` (it is not a contract)."
        }
      ],
      "AddressInsufficientBalance(address)": [
        {
          "details": "The ETH balance of the account is not enough to perform the operation."
        }
      ],
      "ERC1967InvalidImplementation(address)": [
        {
          "details": "The `implementation` of the proxy is invalid."
        }
      ],
      "ERC1967NonPayable()": [
        {
          "details": "An upgrade function sees `msg.value > 0` that may be lost."
        }
      ],
      "FailedInnerCall()": [
        {
          "details": "A call to an address target failed. The target may have reverted."
        }
      ],
      "InvalidInitialization()": [
        {
          "details": "The contract is already initialized."
        }
      ],
      "NotInitializing()": [
        {
          "details": "The contract is not initializing."
        }
      ],
      "SafeERC20FailedOperation(address)": [
        {
          "details": "An operation with an ERC20 token failed."
        }
      ],
      "UUPSUnauthorizedCallContext()": [
        {
          "details": "The call is from an unauthorized context."
        }
      ],
      "UUPSUnsupportedProxiableUUID(bytes32)": [
        {
          "details": "The storage `slot` is unsupported as a UUID."
        }
      ]
    },
    "title": "BackersManagerRootstockCollective"
  },
  "numDeployments": 2,
  "solcInputHash": "0x0000000000000000000000000000000000000000000000000000000000000000",
  "storageLayout": {
    "storage": [
      {
        "astId": 60223,
        "contract": "src/BackersManagerRootstockCollective.sol:BackersManagerRootstockCollective",
        "label": "governanceManager",
        "offset": 0,
        "slot": "0",
        "type": "t_contract(IGovernanceManagerRootstockCollective)60547"
      },
      {
        "astId": 60255,
        "contract": "src/BackersManagerRootstockCollective.sol:BackersManagerRootstockCollective",
        "label": "__gap",
        "offset": 0,
        "slot": "1",
        "type": "t_array(t_uint256)50_storage"
      },
      {
        "astId": 57657,
        "contract": "src/BackersManagerRootstockCollective.sol:BackersManagerRootstockCollective",
        "label": "cycleData",
        "offset": 0,
        "slot": "51",
        "type": "t_struct(CycleData)57653_storage"
      },
      {
        "astId": 57659,
        "contract": "src/BackersManagerRootstockCollective.sol:BackersManagerRootstockCollective",
        "label": "distributionDuration",
        "offset": 0,
        "slot": "52",
        "type": "t_uint32"
      },
      {
        "astId": 58104,
        "contract": "src/BackersManagerRootstockCollective.sol:BackersManagerRootstockCollective",
        "label": "__gap",
        "offset": 0,
        "slot": "53",
        "type": "t_array(t_uint256)50_storage"
      },
      {
        "astId": 56228,
        "contract": "src/BackersManagerRootstockCollective.sol:BackersManagerRootstockCollective",
        "label": "rewardDistributor",
        "offset": 0,
        "slot": "103",
        "type": "t_address"
      },
      {
        "astId": 56234,
        "contract": "src/BackersManagerRootstockCollective.sol:BackersManagerRootstockCollective",
        "label": "builderState",
        "offset": 0,
        "slot": "104",
        "type": "t_mapping(t_address,t_struct(BuilderState)56218_storage)"
      },
      {
        "astId": 56239,
        "contract": "src/BackersManagerRootstockCollective.sol:BackersManagerRootstockCollective",
        "label": "builderRewardReceiver",
        "offset": 0,
        "slot": "105",
        "type": "t_mapping(t_address,t_address)"
      },
      {
        "astId": 56244,
        "contract": "src/BackersManagerRootstockCollective.sol:BackersManagerRootstockCollective",
        "label": "builderRewardReceiverReplacement",
        "offset": 0,
        "slot": "106",
        "type": "t_mapping(t_address,t_address)"
      },
      {
        "astId": 56250,
        "contract": "src/BackersManagerRootstockCollective.sol:BackersManagerRootstockCollective",
        "label": "backerRewardPercentage",
        "offset": 0,
        "slot": "107",
        "type": "t_mapping(t_address,t_struct(RewardPercentageData)56225_storage)"
      },
      {
        "astId": 56254,
        "contract": "src/BackersManagerRootstockCollective.sol:BackersManagerRootstockCollective",
        "label": "_gauges",
        "offset": 0,
        "slot": "108",
        "type": "t_struct(AddressSet)4717_storage"
      },
      {
        "astId": 56258,
        "contract": "src/BackersManagerRootstockCollective.sol:BackersManagerRootstockCollective",
        "label": "_haltedGauges",
        "offset": 0,
        "slot": "110",
        "type": "t_struct(AddressSet)4717_storage"
      },
      {
        "astId": 56262,
        "contract": "src/BackersManagerRootstockCollective.sol:BackersManagerRootstockCollective",
        "label": "gaugeFactory",
        "offset": 0,
        "slot": "112",
        "type": "t_contract(GaugeFactoryRootstockCollective)58436"
      },
      {
        "astId": 56268,
        "contract": "src/BackersManagerRootstockCollective.sol:BackersManagerRootstockCollective",
        "label": "builderToGauge",
        "offset": 0,
        "slot": "113",
        "type": "t_mapping(t_address,t_contract(GaugeRootstockCollective)59796)"
      },
      {
        "astId": 56274,
        "contract": "src/BackersManagerRootstockCollective.sol:BackersManagerRootstockCollective",
        "label": "gaugeToBuilder",
        "offset": 0,
        "slot": "114",
        "type": "t_mapping(t_contract(GaugeRootstockCollective)59796,t_address)"
      },
      {
        "astId": 56280,
        "contract": "src/BackersManagerRootstockCollective.sol:BackersManagerRootstockCollective",
        "label": "haltedGaugeLastPeriodFinish",
        "offset": 0,
        "slot": "115",
        "type": "t_mapping(t_contract(GaugeRootstockCollective)59796,t_uint256)"
      },
      {
        "astId": 56283,
        "contract": "src/BackersManagerRootstockCollective.sol:BackersManagerRootstockCollective",
        "label": "rewardPercentageCooldown",
        "offset": 0,
        "slot": "116",
        "type": "t_uint128"
      },
      {
        "astId": 57574,
        "contract": "src/BackersManagerRootstockCollective.sol:BackersManagerRootstockCollective",
        "label": "__gap",
        "offset": 0,
        "slot": "117",
        "type": "t_array(t_uint256)50_storage"
      },
      {
        "astId": 55092,
        "contract": "src/BackersManagerRootstockCollective.sol:BackersManagerRootstockCollective",
        "label": "stakingToken",
        "offset": 0,
        "slot": "167",
        "type": "t_contract(IERC20)2025"
      },
      {
        "astId": 55095,
        "contract": "src/BackersManagerRootstockCollective.sol:BackersManagerRootstockCollective",
        "label": "rewardToken",
        "offset": 0,
        "slot": "168",
        "type": "t_address"
      },
      {
        "astId": 55098,
        "contract": "src/BackersManagerRootstockCollective.sol:BackersManagerRootstockCollective",
        "label": "totalPotentialReward",
        "offset": 0,
        "slot": "169",
        "type": "t_uint256"
      },
      {
        "astId": 55101,
        "contract": "src/BackersManagerRootstockCollective.sol:BackersManagerRootstockCollective",
        "label": "tempTotalPotentialReward",
        "offset": 0,
        "slot": "170",
        "type": "t_uint256"
      },
      {
        "astId": 55104,
        "contract": "src/BackersManagerRootstockCollective.sol:BackersManagerRootstockCollective",
        "label": "rewardsERC20",
        "offset": 0,
        "slot": "171",
        "type": "t_uint256"
      },
      {
        "astId": 55107,
        "contract": "src/BackersManagerRootstockCollective.sol:BackersManagerRootstockCollective",
        "label": "rewardsCoinbase",
        "offset": 0,
        "slot": "172",
        "type": "t_uint256"
      },
      {
        "astId": 55110,
        "contract": "src/BackersManagerRootstockCollective.sol:BackersManagerRootstockCollective",
        "label": "indexLastGaugeDistributed",
        "offset": 0,
        "slot": "173",
        "type": "t_uint256"
      },
      {
        "astId": 55113,
        "contract": "src/BackersManagerRootstockCollective.sol:BackersManagerRootstockCollective",
        "label": "_periodFinish",
        "offset": 0,
        "slot": "174",
        "type": "t_uint256"
      },
      {
        "astId": 55116,
        "contract": "src/BackersManagerRootstockCollective.sol:BackersManagerRootstockCollective",
        "label": "onDistributionPeriod",
        "offset": 0,
        "slot": "175",
        "type": "t_bool"
      },
      {
        "astId": 55121,
        "contract": "src/BackersManagerRootstockCollective.sol:BackersManagerRootstockCollective",
        "label": "backerTotalAllocation",
        "offset": 0,
        "slot": "176",
        "type": "t_mapping(t_address,t_uint256)"
      },
      {
        "astId": 56046,
        "contract": "src/BackersManagerRootstockCollective.sol:BackersManagerRootstockCollective",
        "label": "__gap",
        "offset": 0,
        "slot": "177",
        "type": "t_array(t_uint256)50_storage"
      }
    ],
    "types": {
      "t_address": {
        "encoding": "inplace",
        "label": "address",
        "numberOfBytes": "20"
      },
      "t_array(t_bytes32)dyn_storage": {
        "encoding": "dynamic_array",
        "label": "bytes32[]",
        "numberOfBytes": "32",
        "base": "t_bytes32"
      },
      "t_array(t_uint256)50_storage": {
        "encoding": "inplace",
        "label": "uint256[50]",
        "numberOfBytes": "1600",
        "base": "t_uint256"
      },
      "t_bool": {
        "encoding": "inplace",
        "label": "bool",
        "numberOfBytes": "1"
      },
      "t_bytes20": {
        "encoding": "inplace",
        "label": "bytes20",
        "numberOfBytes": "20"
      },
      "t_bytes32": {
        "encoding": "inplace",
        "label": "bytes32",
        "numberOfBytes": "32"
      },
      "t_bytes7": {
        "encoding": "inplace",
        "label": "bytes7",
        "numberOfBytes": "7"
      },
      "t_contract(GaugeFactoryRootstockCollective)58436": {
        "encoding": "inplace",
        "label": "contract GaugeFactoryRootstockCollective",
        "numberOfBytes": "20"
      },
      "t_contract(GaugeRootstockCollective)59796": {
        "encoding": "inplace",
        "label": "contract GaugeRootstockCollective",
        "numberOfBytes": "20"
      },
      "t_contract(IERC20)2025": {
        "encoding": "inplace",
        "label": "contract IERC20",
        "numberOfBytes": "20"
      },
      "t_contract(IGovernanceManagerRootstockCollective)60547": {
        "encoding": "inplace",
        "label": "contract IGovernanceManagerRootstockCollective",
        "numberOfBytes": "20"
      },
      "t_mapping(t_address,t_address)": {
        "encoding": "mapping",
        "key": "t_address",
        "label": "mapping(address => address)",
        "numberOfBytes": "32",
        "value": "t_address"
      },
      "t_mapping(t_address,t_contract(GaugeRootstockCollective)59796)": {
        "encoding": "mapping",
        "key": "t_address",
        "label": "mapping(address => contract GaugeRootstockCollective)",
        "numberOfBytes": "32",
        "value": "t_contract(GaugeRootstockCollective)59796"
      },
      "t_mapping(t_address,t_struct(BuilderState)56218_storage)": {
        "encoding": "mapping",
        "key": "t_address",
        "label": "mapping(address => struct BuilderRegistryRootstockCollective.BuilderState)",
        "numberOfBytes": "32",
        "value": "t_struct(BuilderState)56218_storage"
      },
      "t_mapping(t_address,t_struct(RewardPercentageData)56225_storage)": {
        "encoding": "mapping",
        "key": "t_address",
        "label": "mapping(address => struct BuilderRegistryRootstockCollective.RewardPercentageData)",
        "numberOfBytes": "32",
        "value": "t_struct(RewardPercentageData)56225_storage"
      },
      "t_mapping(t_address,t_uint256)": {
        "encoding": "mapping",
        "key": "t_address",
        "label": "mapping(address => uint256)",
        "numberOfBytes": "32",
        "value": "t_uint256"
      },
      "t_mapping(t_bytes32,t_uint256)": {
        "encoding": "mapping",
        "key": "t_bytes32",
        "label": "mapping(bytes32 => uint256)",
        "numberOfBytes": "32",
        "value": "t_uint256"
      },
      "t_mapping(t_contract(GaugeRootstockCollective)59796,t_address)": {
        "encoding": "mapping",
        "key": "t_contract(GaugeRootstockCollective)59796",
        "label": "mapping(contract GaugeRootstockCollective => address)",
        "numberOfBytes": "32",
        "value": "t_address"
      },
      "t_mapping(t_contract(GaugeRootstockCollective)59796,t_uint256)": {
        "encoding": "mapping",
        "key": "t_contract(GaugeRootstockCollective)59796",
        "label": "mapping(contract GaugeRootstockCollective => uint256)",
        "numberOfBytes": "32",
        "value": "t_uint256"
      },
      "t_struct(AddressSet)4717_storage": {
        "encoding": "inplace",
        "label": "struct EnumerableSet.AddressSet",
        "numberOfBytes": "64",
        "members": [
          {
            "astId": 4716,
            "contract": "src/BackersManagerRootstockCollective.sol:BackersManagerRootstockCollective",
            "label": "_inner",
            "offset": 0,
            "slot": "0",
            "type": "t_struct(Set)4402_storage"
          }
        ]
      },
      "t_struct(BuilderState)56218_storage": {
        "encoding": "inplace",
        "label": "struct BuilderRegistryRootstockCollective.BuilderState",
        "numberOfBytes": "32",
        "members": [
          {
            "astId": 56205,
            "contract": "src/BackersManagerRootstockCollective.sol:BackersManagerRootstockCollective",
            "label": "activated",
            "offset": 0,
            "slot": "0",
            "type": "t_bool"
          },
          {
            "astId": 56207,
            "contract": "src/BackersManagerRootstockCollective.sol:BackersManagerRootstockCollective",
            "label": "kycApproved",
            "offset": 1,
            "slot": "0",
            "type": "t_bool"
          },
          {
            "astId": 56209,
            "contract": "src/BackersManagerRootstockCollective.sol:BackersManagerRootstockCollective",
            "label": "communityApproved",
            "offset": 2,
            "slot": "0",
            "type": "t_bool"
          },
          {
            "astId": 56211,
            "contract": "src/BackersManagerRootstockCollective.sol:BackersManagerRootstockCollective",
            "label": "paused",
            "offset": 3,
            "slot": "0",
            "type": "t_bool"
          },
          {
            "astId": 56213,
            "contract": "src/BackersManagerRootstockCollective.sol:BackersManagerRootstockCollective",
            "label": "revoked",
            "offset": 4,
            "slot": "0",
            "type": "t_bool"
          },
          {
            "astId": 56215,
            "contract": "src/BackersManagerRootstockCollective.sol:BackersManagerRootstockCollective",
            "label": "reserved",
            "offset": 5,
            "slot": "0",
            "type": "t_bytes7"
          },
          {
            "astId": 56217,
            "contract": "src/BackersManagerRootstockCollective.sol:BackersManagerRootstockCollective",
            "label": "pausedReason",
            "offset": 12,
            "slot": "0",
            "type": "t_bytes20"
          }
        ]
      },
      "t_struct(CycleData)57653_storage": {
        "encoding": "inplace",
        "label": "struct CycleTimeKeeperRootstockCollective.CycleData",
        "numberOfBytes": "32",
        "members": [
          {
            "astId": 57644,
            "contract": "src/BackersManagerRootstockCollective.sol:BackersManagerRootstockCollective",
            "label": "previousDuration",
            "offset": 0,
            "slot": "0",
            "type": "t_uint32"
          },
          {
            "astId": 57646,
            "contract": "src/BackersManagerRootstockCollective.sol:BackersManagerRootstockCollective",
            "label": "nextDuration",
            "offset": 4,
            "slot": "0",
            "type": "t_uint32"
          },
          {
            "astId": 57648,
            "contract": "src/BackersManagerRootstockCollective.sol:BackersManagerRootstockCollective",
            "label": "previousStart",
            "offset": 8,
            "slot": "0",
            "type": "t_uint64"
          },
          {
            "astId": 57650,
            "contract": "src/BackersManagerRootstockCollective.sol:BackersManagerRootstockCollective",
            "label": "nextStart",
            "offset": 16,
            "slot": "0",
            "type": "t_uint64"
          },
          {
            "astId": 57652,
            "contract": "src/BackersManagerRootstockCollective.sol:BackersManagerRootstockCollective",
            "label": "offset",
            "offset": 24,
            "slot": "0",
            "type": "t_uint24"
          }
        ]
      },
      "t_struct(RewardPercentageData)56225_storage": {
        "encoding": "inplace",
        "label": "struct BuilderRegistryRootstockCollective.RewardPercentageData",
        "numberOfBytes": "32",
        "members": [
          {
            "astId": 56220,
            "contract": "src/BackersManagerRootstockCollective.sol:BackersManagerRootstockCollective",
            "label": "previous",
            "offset": 0,
            "slot": "0",
            "type": "t_uint64"
          },
          {
            "astId": 56222,
            "contract": "src/BackersManagerRootstockCollective.sol:BackersManagerRootstockCollective",
            "label": "next",
            "offset": 8,
            "slot": "0",
            "type": "t_uint64"
          },
          {
            "astId": 56224,
            "contract": "src/BackersManagerRootstockCollective.sol:BackersManagerRootstockCollective",
            "label": "cooldownEndTime",
            "offset": 16,
            "slot": "0",
            "type": "t_uint128"
          }
        ]
      },
      "t_struct(Set)4402_storage": {
        "encoding": "inplace",
        "label": "struct EnumerableSet.Set",
        "numberOfBytes": "64",
        "members": [
          {
            "astId": 4397,
            "contract": "src/BackersManagerRootstockCollective.sol:BackersManagerRootstockCollective",
            "label": "_values",
            "offset": 0,
            "slot": "0",
            "type": "t_array(t_bytes32)dyn_storage"
          },
          {
            "astId": 4401,
            "contract": "src/BackersManagerRootstockCollective.sol:BackersManagerRootstockCollective",
            "label": "_positions",
            "offset": 0,
            "slot": "1",
            "type": "t_mapping(t_bytes32,t_uint256)"
          }
        ]
      },
      "t_uint128": {
        "encoding": "inplace",
        "label": "uint128",
        "numberOfBytes": "16"
      },
      "t_uint24": {
        "encoding": "inplace",
        "label": "uint24",
        "numberOfBytes": "3"
      },
      "t_uint256": {
        "encoding": "inplace",
        "label": "uint256",
        "numberOfBytes": "32"
      },
      "t_uint32": {
        "encoding": "inplace",
        "label": "uint32",
        "numberOfBytes": "4"
      },
      "t_uint64": {
        "encoding": "inplace",
        "label": "uint64",
        "numberOfBytes": "8"
      }
    }
  },
  "transactionHash": "0xd78f4669958d0d3b272489b1dc97464b1dc1bc6e3579d7ec5a03306bc458b415",
  "userdoc": {
    "version": 1,
    "kind": "user",
    "methods": {
      "activateBuilder(address,address,uint64)": {
        "notice": "activates builder for the first time, setting the reward receiver and the reward percentage  Sets activate flag to true. It cannot be switched to false anymore"
      },
      "allocate(address,uint256)": {
        "notice": "allocates votes for a gauge"
      },
      "allocateBatch(address[],uint256[])": {
        "notice": "allocates votes for a batch of gauges"
      },
      "approveBuidlerRewardReceiverReplacement(address,address)": {
        "notice": "KYCApprover approves Builder's request to replace his rewardReceiver address"
      },
      "approveBuilderKYC(address)": {
        "notice": "approves builder's KYC after a revocation"
      },
      "backerRewardPercentage(address)": {
        "notice": "map of builder's backers reward percentage data"
      },
      "backerTotalAllocation(address)": {
        "notice": "total amount of stakingToken allocated by a backer"
      },
      "builderRewardReceiver(address)": {
        "notice": "map of builders reward receiver"
      },
      "builderRewardReceiverReplacement(address)": {
        "notice": "map of builders reward receiver replacement, used as a buffer until the new address is accepted"
      },
      "builderState(address)": {
        "notice": "map of builders state"
      },
      "builderToGauge(address)": {
        "notice": "gauge contract for a builder"
      },
      "canWithdraw(address,uint256)": {
        "notice": "returns true if can withdraw, remaining balance should exceed the current allocation"
      },
      "cancelRewardReceiverReplacementRequest()": {
        "notice": "Builder cancels his request to replace his rewardReceiver address"
      },
      "claimBackerRewards(address,address[])": {
        "notice": "claims backer rewards from a batch of gauges"
      },
      "claimBackerRewards(address[])": {
        "notice": "claims backer rewards from a batch of gauges"
      },
      "communityApproveBuilder(address)": {
        "notice": "community approve builder and create its gauge"
      },
      "cycleData()": {
        "notice": "cycle data"
      },
      "cycleNext(uint256)": {
        "notice": "gets when an cycle ends or the next one starts based on given `timestamp_`"
      },
      "cycleStart(uint256)": {
        "notice": "gets when an cycle starts based on given `timestamp_`"
      },
      "dewhitelistBuilder(address)": {
        "notice": "de-whitelist builder"
      },
      "distribute()": {
        "notice": "continues pagination to distribute accumulated reward tokens to the gauges"
      },
      "endDistributionWindow(uint256)": {
        "notice": "gets when an cycle distribution ends based on given `timestamp_`"
      },
      "gaugeFactory()": {
        "notice": "gauge factory contract address"
      },
      "gaugeToBuilder(address)": {
        "notice": "builder address for a gauge contract"
      },
      "getCycleStartAndDuration()": {
        "notice": "returns cycle start and duration  If there is a new one and cooldown time has expired, apply that one; otherwise, apply the previous one"
      },
      "getGaugeAt(uint256)": {
        "notice": "get gauge from array at a given index"
      },
      "getGaugesLength()": {
        "notice": "get length of gauges array"
      },
      "getHaltedGaugeAt(uint256)": {
        "notice": "get halted gauge from array at a given index"
      },
      "getHaltedGaugesLength()": {
        "notice": "get length of halted gauges array"
      },
      "getRewardPercentageToApply(address)": {
        "notice": "returns reward percentage to apply.  If there is a new one and cooldown time has expired, apply that one; otherwise, apply the previous one"
      },
      "haltedGaugeLastPeriodFinish(address)": {
        "notice": "map of last period finish for halted gauges"
      },
      "hasBuilderRewardReceiverPendingApproval(address)": {
        "notice": "returns true if the builder has an open request to replace his receiver address"
      },
      "indexLastGaugeDistributed()": {
        "notice": "index of tha last gauge distributed during a distribution period"
      },
      "initialize(address,address,address,address,address,uint32,uint24,uint32,uint128)": {
        "notice": "contract initializer"
      },
      "isBuilderOperational(address)": {
        "notice": "return true if builder is operational  kycApproved == true &&  communityApproved == true &&  paused == false"
      },
      "isBuilderPaused(address)": {
        "notice": "return true if builder is paused"
      },
      "isGaugeHalted(address)": {
        "notice": "return true is gauge is halted"
      },
      "isGaugeOperational(address)": {
        "notice": "return true if gauge is operational  kycApproved == true &&  communityApproved == true &&  paused == false"
      },
      "isGaugeRewarded(address)": {
        "notice": "return true is gauge is rewarded"
      },
      "migrateBuilder(address,address,uint64)": {
        "notice": "migrate v1 builder to the new builder registry"
      },
      "notifyRewardAmount(uint256)": {
        "notice": "transfers reward tokens from the sender to be distributed to the gauges"
      },
      "onDistributionPeriod()": {
        "notice": "true if distribution period started. Allocations remain blocked until it finishes"
      },
      "pauseBuilder(address,bytes20)": {
        "notice": "pause builder"
      },
      "periodFinish()": {
        "notice": "returns timestamp end of current rewards period  If it is called by a halted gauge returns the timestamp of the last period distributed  This is important because unclaimed rewards must stop accumulating rewards and halted gauges  are not updated on the distribution anymore"
      },
      "permitBuilder(uint64)": {
        "notice": "permit builder"
      },
      "revokeBuilder()": {
        "notice": "revoke builder"
      },
      "revokeBuilderKYC(address)": {
        "notice": "revokes builder's KYC and sent builder unclaimed rewards to rewardDistributor contract"
      },
      "rewardDistributor()": {
        "notice": "reward distributor address. If a builder is KYC revoked their unclaimed rewards will sent back here"
      },
      "rewardPercentageCooldown()": {
        "notice": "time that must elapse for a new reward percentage from a builder to be applied"
      },
      "rewardToken()": {
        "notice": "address of the token rewarded to builder and voters"
      },
      "rewardsCoinbase()": {
        "notice": "Coinbase rewards to distribute [N]"
      },
      "rewardsERC20()": {
        "notice": "ERC20 rewards to distribute [N]"
      },
      "setBackerRewardPercentage(uint64)": {
        "notice": "allows a builder to set his backers reward percentage"
      },
      "setCycleDuration(uint32,uint24)": {
        "notice": "schedule a new cycle duration. It will be applied for the next cycle"
      },
      "setDistributionDuration(uint32)": {
        "notice": "set the duration of the distribution window"
      },
      "stakingToken()": {
        "notice": "address of the token used to stake"
      },
      "startDistribution()": {
        "notice": "starts the distribution period blocking all the allocations  until all the gauges were distributed"
      },
      "submitRewardReceiverReplacementRequest(address)": {
        "notice": "Builder submits a request to replace his rewardReceiver address, the request will then need to be appoved by `approveBuidlerRewardReceiverReplacement`"
      },
      "tempTotalPotentialReward()": {
        "notice": "on a paginated distribution we need to temporarily store the totalPotentialReward"
      },
      "timeUntilNextCycle(uint256)": {
        "notice": "gets time left until the next cycle based on given `timestamp_`"
      },
      "totalPotentialReward()": {
        "notice": "total potential reward"
      },
      "unpauseBuilder(address)": {
        "notice": "unpause builder"
      }
    },
    "notice": "Creates gauges, manages backers votes and distribute rewards"
  }
}