{
  "abi": [
    {
      "type": "constructor",
      "inputs": [],
      "stateMutability": "nonpayable"
    },
    {
      "type": "function",
      "name": "UPGRADE_INTERFACE_VERSION",
      "inputs": [],
      "outputs": [
        {
          "name": "",
          "type": "string",
          "internalType": "string"
        }
      ],
      "stateMutability": "view"
    },
    {
      "type": "function",
      "name": "executeChange",
      "inputs": [
        {
          "name": "changeContract_",
          "type": "address",
          "internalType": "contract IChangeContractRootstockCollective"
        }
      ],
      "outputs": [],
      "stateMutability": "nonpayable"
    },
    {
      "type": "function",
      "name": "foundationTreasury",
      "inputs": [],
      "outputs": [
        {
          "name": "",
          "type": "address",
          "internalType": "address"
        }
      ],
      "stateMutability": "view"
    },
    {
      "type": "function",
      "name": "governor",
      "inputs": [],
      "outputs": [
        {
          "name": "",
          "type": "address",
          "internalType": "address"
        }
      ],
      "stateMutability": "view"
    },
    {
      "type": "function",
      "name": "initialize",
      "inputs": [
        {
          "name": "governor_",
          "type": "address",
          "internalType": "address"
        },
        {
          "name": "foundationTreasury_",
          "type": "address",
          "internalType": "address"
        },
        {
          "name": "kycApprover_",
          "type": "address",
          "internalType": "address"
        },
        {
          "name": "upgrader_",
          "type": "address",
          "internalType": "address"
        }
      ],
      "outputs": [],
      "stateMutability": "nonpayable"
    },
    {
      "type": "function",
      "name": "isAuthorizedChanger",
      "inputs": [
        {
          "name": "account_",
          "type": "address",
          "internalType": "address"
        }
      ],
      "outputs": [
        {
          "name": "",
          "type": "bool",
          "internalType": "bool"
        }
      ],
      "stateMutability": "view"
    },
    {
      "type": "function",
      "name": "kycApprover",
      "inputs": [],
      "outputs": [
        {
          "name": "",
          "type": "address",
          "internalType": "address"
        }
      ],
      "stateMutability": "view"
    },
    {
      "type": "function",
      "name": "proxiableUUID",
      "inputs": [],
      "outputs": [
        {
          "name": "",
          "type": "bytes32",
          "internalType": "bytes32"
        }
      ],
      "stateMutability": "view"
    },
    {
      "type": "function",
      "name": "updateFoundationTreasury",
      "inputs": [
        {
          "name": "foundationTreasury_",
          "type": "address",
          "internalType": "address"
        }
      ],
      "outputs": [],
      "stateMutability": "nonpayable"
    },
    {
      "type": "function",
      "name": "updateGovernor",
      "inputs": [
        {
          "name": "governor_",
          "type": "address",
          "internalType": "address"
        }
      ],
      "outputs": [],
      "stateMutability": "nonpayable"
    },
    {
      "type": "function",
      "name": "updateKYCApprover",
      "inputs": [
        {
          "name": "kycApprover_",
          "type": "address",
          "internalType": "address"
        }
      ],
      "outputs": [],
      "stateMutability": "nonpayable"
    },
    {
      "type": "function",
      "name": "updateUpgrader",
      "inputs": [
        {
          "name": "upgrader_",
          "type": "address",
          "internalType": "address"
        }
      ],
      "outputs": [],
      "stateMutability": "nonpayable"
    },
    {
      "type": "function",
      "name": "upgradeToAndCall",
      "inputs": [
        {
          "name": "newImplementation",
          "type": "address",
          "internalType": "address"
        },
        {
          "name": "data",
          "type": "bytes",
          "internalType": "bytes"
        }
      ],
      "outputs": [],
      "stateMutability": "payable"
    },
    {
      "type": "function",
      "name": "upgrader",
      "inputs": [],
      "outputs": [
        {
          "name": "",
          "type": "address",
          "internalType": "address"
        }
      ],
      "stateMutability": "view"
    },
    {
      "type": "function",
      "name": "validateAuthorizedChanger",
      "inputs": [
        {
          "name": "account_",
          "type": "address",
          "internalType": "address"
        }
      ],
      "outputs": [],
      "stateMutability": "view"
    },
    {
      "type": "function",
      "name": "validateAuthorizedUpgrader",
      "inputs": [
        {
          "name": "account_",
          "type": "address",
          "internalType": "address"
        }
      ],
      "outputs": [],
      "stateMutability": "view"
    },
    {
      "type": "function",
      "name": "validateFoundationTreasury",
      "inputs": [
        {
          "name": "account_",
          "type": "address",
          "internalType": "address"
        }
      ],
      "outputs": [],
      "stateMutability": "view"
    },
    {
      "type": "function",
      "name": "validateGovernor",
      "inputs": [
        {
          "name": "account_",
          "type": "address",
          "internalType": "address"
        }
      ],
      "outputs": [],
      "stateMutability": "view"
    },
    {
      "type": "function",
      "name": "validateKycApprover",
      "inputs": [
        {
          "name": "account_",
          "type": "address",
          "internalType": "address"
        }
      ],
      "outputs": [],
      "stateMutability": "view"
    },
    {
      "type": "event",
      "name": "ChangeExecuted",
      "inputs": [
        {
          "name": "changeContract_",
          "type": "address",
          "indexed": false,
          "internalType": "contract IChangeContractRootstockCollective"
        },
        {
          "name": "executor_",
          "type": "address",
          "indexed": false,
          "internalType": "address"
        }
      ],
      "anonymous": false
    },
    {
      "type": "event",
      "name": "FoundationTreasuryUpdated",
      "inputs": [
        {
          "name": "foundationTreasury_",
          "type": "address",
          "indexed": false,
          "internalType": "address"
        },
        {
          "name": "updatedBy_",
          "type": "address",
          "indexed": false,
          "internalType": "address"
        }
      ],
      "anonymous": false
    },
    {
      "type": "event",
      "name": "GovernorUpdated",
      "inputs": [
        {
          "name": "governor_",
          "type": "address",
          "indexed": false,
          "internalType": "address"
        },
        {
          "name": "updatedBy_",
          "type": "address",
          "indexed": false,
          "internalType": "address"
        }
      ],
      "anonymous": false
    },
    {
      "type": "event",
      "name": "Initialized",
      "inputs": [
        {
          "name": "version",
          "type": "uint64",
          "indexed": false,
          "internalType": "uint64"
        }
      ],
      "anonymous": false
    },
    {
      "type": "event",
      "name": "KycApproverUpdated",
      "inputs": [
        {
          "name": "kycApprover_",
          "type": "address",
          "indexed": false,
          "internalType": "address"
        },
        {
          "name": "updatedBy_",
          "type": "address",
          "indexed": false,
          "internalType": "address"
        }
      ],
      "anonymous": false
    },
    {
      "type": "event",
      "name": "Upgraded",
      "inputs": [
        {
          "name": "implementation",
          "type": "address",
          "indexed": true,
          "internalType": "address"
        }
      ],
      "anonymous": false
    },
    {
      "type": "event",
      "name": "UpgraderUpdated",
      "inputs": [
        {
          "name": "upgrader_",
          "type": "address",
          "indexed": false,
          "internalType": "address"
        },
        {
          "name": "updatedBy_",
          "type": "address",
          "indexed": false,
          "internalType": "address"
        }
      ],
      "anonymous": false
    },
    {
      "type": "error",
      "name": "AddressEmptyCode",
      "inputs": [
        {
          "name": "target",
          "type": "address",
          "internalType": "address"
        }
      ]
    },
    {
      "type": "error",
      "name": "ERC1967InvalidImplementation",
      "inputs": [
        {
          "name": "implementation",
          "type": "address",
          "internalType": "address"
        }
      ]
    },
    {
      "type": "error",
      "name": "ERC1967NonPayable",
      "inputs": []
    },
    {
      "type": "error",
      "name": "FailedInnerCall",
      "inputs": []
    },
    {
      "type": "error",
      "name": "InvalidAddress",
      "inputs": [
        {
          "name": "account_",
          "type": "address",
          "internalType": "address"
        }
      ]
    },
    {
      "type": "error",
      "name": "InvalidInitialization",
      "inputs": []
    },
    {
      "type": "error",
      "name": "NotAuthorizedChanger",
      "inputs": []
    },
    {
      "type": "error",
      "name": "NotAuthorizedUpgrader",
      "inputs": []
    },
    {
      "type": "error",
      "name": "NotFoundationTreasury",
      "inputs": []
    },
    {
      "type": "error",
      "name": "NotGovernor",
      "inputs": []
    },
    {
      "type": "error",
      "name": "NotInitializing",
      "inputs": []
    },
    {
      "type": "error",
      "name": "NotKycApprover",
      "inputs": []
    },
    {
      "type": "error",
      "name": "NotUpgrader",
      "inputs": []
    },
    {
      "type": "error",
      "name": "UUPSUnauthorizedCallContext",
      "inputs": []
    },
    {
      "type": "error",
      "name": "UUPSUnsupportedProxiableUUID",
      "inputs": [
        {
          "name": "slot",
          "type": "bytes32",
          "internalType": "bytes32"
        }
      ]
    }
  ],
  "address": "0x6794835af17E249CfB69d5dCfdb69d70C2d517B4",
  "args": [],
  "bytecode": "0x60a06040523060805234801561001457600080fd5b5061001d610022565b6100d4565b7ff0c57e16840df040f15088dc2f81fe391c3923bec73e23a9662efc9c229c6a00805468010000000000000000900460ff16156100725760405163f92ee8a960e01b815260040160405180910390fd5b80546001600160401b03908116146100d15780546001600160401b0319166001600160401b0390811782556040519081527fc7f505b2f371ae2175ee4913f4499e1f2633a7b5936321eed1cdaeb6115181d29060200160405180910390a15b50565b6080516115d46100fd60003960008181610c4701528181610c700152610e9401526115d46000f3fe6080604052600436106101425760003560e01c80637e185f57116100c0578063ce7ee5ac11610074578063e053dd6111610059578063e053dd61146103e3578063eb6f7abf14610403578063f8c8765e1461042357600080fd5b8063ce7ee5ac14610386578063d994d6d5146103b357600080fd5b8063ad3cb1cc116100a5578063ad3cb1cc146102e3578063af26974514610339578063b887e63e1461036657600080fd5b80637e185f57146102a35780638c777e82146102c357600080fd5b80633f80fbf7116101175780634f1ef286116100fc5780634f1ef2861461024d57806352d1902d1461026057806362f384ad1461028357600080fd5b80633f80fbf71461020d578063445ac6331461022d57600080fd5b806212851a14610147578062c4e39c146101695780630c340a24146101c057806312811d94146101ed575b600080fd5b34801561015357600080fd5b50610167610162366004611393565b610443565b005b34801561017557600080fd5b506003546101969073ffffffffffffffffffffffffffffffffffffffff1681565b60405173ffffffffffffffffffffffffffffffffffffffff90911681526020015b60405180910390f35b3480156101cc57600080fd5b506000546101969073ffffffffffffffffffffffffffffffffffffffff1681565b3480156101f957600080fd5b50610167610208366004611393565b610458565b34801561021957600080fd5b50610167610228366004611393565b6104ac565b34801561023957600080fd5b50610167610248366004611393565b6104be565b61016761025b3660046113df565b610512565b34801561026c57600080fd5b50610275610531565b6040519081526020016101b7565b34801561028f57600080fd5b5061016761029e366004611393565b610560565b3480156102af57600080fd5b506101676102be366004611393565b610572565b3480156102cf57600080fd5b506101676102de366004611393565b6105b1565b3480156102ef57600080fd5b5061032c6040518060400160405280600581526020017f352e302e3000000000000000000000000000000000000000000000000000000081525081565b6040516101b791906114e5565b34801561034557600080fd5b506004546101969073ffffffffffffffffffffffffffffffffffffffff1681565b34801561037257600080fd5b50610167610381366004611393565b610722565b34801561039257600080fd5b506002546101969073ffffffffffffffffffffffffffffffffffffffff1681565b3480156103bf57600080fd5b506103d36103ce366004611393565b61077c565b60405190151581526020016101b7565b3480156103ef57600080fd5b506101676103fe366004611393565b6107c8565b34801561040f57600080fd5b5061016761041e366004611393565b61081c565b34801561042f57600080fd5b5061016761043e366004611536565b6108c0565b61044c33610572565b61045581610a66565b50565b60005473ffffffffffffffffffffffffffffffffffffffff828116911614610455576040517fee3675d400000000000000000000000000000000000000000000000000000000815260040160405180910390fd5b6104b533610572565b61045581610b51565b60035473ffffffffffffffffffffffffffffffffffffffff828116911614610455576040517fc01ef51700000000000000000000000000000000000000000000000000000000815260040160405180910390fd5b61051a610c2f565b61052382610d35565b61052d8282610d3e565b5050565b600061053b610e7c565b507f360894a13ba1a3210667c828492db98dca3e2076cc3735a920a3ca505d382bbc90565b61056933610572565b61045581610eeb565b61057b8161077c565b610455576040517f7746c6d400000000000000000000000000000000000000000000000000000000815260040160405180910390fd5b60005473ffffffffffffffffffffffffffffffffffffffff163314610602576040517fee3675d400000000000000000000000000000000000000000000000000000000815260040160405180910390fd5b600180547fffffffffffffffffffffffff00000000000000000000000000000000000000001673ffffffffffffffffffffffffffffffffffffffff83161790558073ffffffffffffffffffffffffffffffffffffffff1663614619546040518163ffffffff1660e01b8152600401600060405180830381600087803b15801561068a57600080fd5b505af115801561069e573d6000803e3d6000fd5b5050600180547fffffffffffffffffffffffff0000000000000000000000000000000000000000169055506106d09050565b6040805173ffffffffffffffffffffffffffffffffffffffff831681523360208201527f2a8cd1b8f6553d34945708e311b2f74dfcd2b8cc712d12c6fcea24a1ccb4c43991015b60405180910390a150565b60045473ffffffffffffffffffffffffffffffffffffffff163314610773576040517fa417450200000000000000000000000000000000000000000000000000000000815260040160405180910390fd5b61045581610fc9565b60015460009073ffffffffffffffffffffffffffffffffffffffff838116911614806107c2575060005473ffffffffffffffffffffffffffffffffffffffff8381169116145b92915050565b60025473ffffffffffffffffffffffffffffffffffffffff828116911614610455576040517f2887a65400000000000000000000000000000000000000000000000000000000815260040160405180910390fd5b60015473ffffffffffffffffffffffffffffffffffffffff828116911614801590610862575060005473ffffffffffffffffffffffffffffffffffffffff828116911614155b8015610889575060045473ffffffffffffffffffffffffffffffffffffffff828116911614155b15610455576040517fe5f11cf600000000000000000000000000000000000000000000000000000000815260040160405180910390fd5b7ff0c57e16840df040f15088dc2f81fe391c3923bec73e23a9662efc9c229c6a00805468010000000000000000810460ff16159067ffffffffffffffff1660008115801561090b5750825b905060008267ffffffffffffffff1660011480156109285750303b155b905081158015610936575080155b1561096d576040517ff92ee8a900000000000000000000000000000000000000000000000000000000815260040160405180910390fd5b84547fffffffffffffffffffffffffffffffffffffffffffffffff000000000000000016600117855583156109ce5784547fffffffffffffffffffffffffffffffffffffffffffffff00ffffffffffffffff16680100000000000000001785555b6109d6611041565b6109df89610eeb565b6109e888610b51565b6109f187610a66565b6109fa86610fc9565b8315610a5b5784547fffffffffffffffffffffffffffffffffffffffffffffff00ffffffffffffffff168555604051600181527fc7f505b2f371ae2175ee4913f4499e1f2633a7b5936321eed1cdaeb6115181d29060200160405180910390a15b505050505050505050565b8073ffffffffffffffffffffffffffffffffffffffff8116610ad1576040517f8e4c8aa600000000000000000000000000000000000000000000000000000000815273ffffffffffffffffffffffffffffffffffffffff821660048201526024015b60405180910390fd5b600380547fffffffffffffffffffffffff00000000000000000000000000000000000000001673ffffffffffffffffffffffffffffffffffffffff8416908117909155604080519182523360208301527f24d9d91bc040e466fc78b3bb1f93bb81e7410b9bbed45d92b668b52a2ff4c1a991015b60405180910390a15050565b8073ffffffffffffffffffffffffffffffffffffffff8116610bb7576040517f8e4c8aa600000000000000000000000000000000000000000000000000000000815273ffffffffffffffffffffffffffffffffffffffff82166004820152602401610ac8565b600280547fffffffffffffffffffffffff00000000000000000000000000000000000000001673ffffffffffffffffffffffffffffffffffffffff8416908117909155604080519182523360208301527fc6681cfb842ccb239555647a438f9ec49bcd12dc4f4d0c5544d3973528b63a459101610b45565b3073ffffffffffffffffffffffffffffffffffffffff7f0000000000000000000000000000000000000000000000000000000000000000161480610cfc57507f000000000000000000000000000000000000000000000000000000000000000073ffffffffffffffffffffffffffffffffffffffff16610ce37f360894a13ba1a3210667c828492db98dca3e2076cc3735a920a3ca505d382bbc5473ffffffffffffffffffffffffffffffffffffffff1690565b73ffffffffffffffffffffffffffffffffffffffff1614155b15610d33576040517fe07c8dba00000000000000000000000000000000000000000000000000000000815260040160405180910390fd5b565b6104553361081c565b8173ffffffffffffffffffffffffffffffffffffffff166352d1902d6040518163ffffffff1660e01b8152600401602060405180830381865afa925050508015610dc3575060408051601f3d9081017fffffffffffffffffffffffffffffffffffffffffffffffffffffffffffffffe0168201909252610dc091810190611592565b60015b610e11576040517f4c9c8ce300000000000000000000000000000000000000000000000000000000815273ffffffffffffffffffffffffffffffffffffffff83166004820152602401610ac8565b7f360894a13ba1a3210667c828492db98dca3e2076cc3735a920a3ca505d382bbc8114610e6d576040517faa1d49a400000000000000000000000000000000000000000000000000000000815260048101829052602401610ac8565b610e778383611049565b505050565b3073ffffffffffffffffffffffffffffffffffffffff7f00000000000000000000000000000000000000000000000000000000000000001614610d33576040517fe07c8dba00000000000000000000000000000000000000000000000000000000815260040160405180910390fd5b8073ffffffffffffffffffffffffffffffffffffffff8116610f51576040517f8e4c8aa600000000000000000000000000000000000000000000000000000000815273ffffffffffffffffffffffffffffffffffffffff82166004820152602401610ac8565b600080547fffffffffffffffffffffffff00000000000000000000000000000000000000001673ffffffffffffffffffffffffffffffffffffffff8416908117909155604080519182523360208301527f5af6a85e864342d4f108c43dd574d98480c91f1de0ac2a9f66d826dee49bd9bb9101610b45565b600480547fffffffffffffffffffffffff00000000000000000000000000000000000000001673ffffffffffffffffffffffffffffffffffffffff8316908117909155604080519182523360208301527f98a54b72a08b0900e0ef7f964fa2f6c3820c0d5dd3e6fb48809acdacd9e5620e9101610717565b610d336110ac565b61105282611113565b60405173ffffffffffffffffffffffffffffffffffffffff8316907fbc7cd75a20ee27fd9adebab32041f755214dbc6bffa90cc0225b39da2e5c2d3b90600090a28051156110a457610e7782826111e2565b61052d611265565b7ff0c57e16840df040f15088dc2f81fe391c3923bec73e23a9662efc9c229c6a005468010000000000000000900460ff16610d33576040517fd7e6bcf800000000000000000000000000000000000000000000000000000000815260040160405180910390fd5b8073ffffffffffffffffffffffffffffffffffffffff163b60000361117c576040517f4c9c8ce300000000000000000000000000000000000000000000000000000000815273ffffffffffffffffffffffffffffffffffffffff82166004820152602401610ac8565b7f360894a13ba1a3210667c828492db98dca3e2076cc3735a920a3ca505d382bbc80547fffffffffffffffffffffffff00000000000000000000000000000000000000001673ffffffffffffffffffffffffffffffffffffffff92909216919091179055565b60606000808473ffffffffffffffffffffffffffffffffffffffff168460405161120c91906115ab565b600060405180830381855af49150503d8060008114611247576040519150601f19603f3d011682016040523d82523d6000602084013e61124c565b606091505b509150915061125c85838361129d565b95945050505050565b3415610d33576040517fb398979f00000000000000000000000000000000000000000000000000000000815260040160405180910390fd5b6060826112b2576112ad8261132f565b611328565b81511580156112d6575073ffffffffffffffffffffffffffffffffffffffff84163b155b15611325576040517f9996b31500000000000000000000000000000000000000000000000000000000815273ffffffffffffffffffffffffffffffffffffffff85166004820152602401610ac8565b50805b9392505050565b80511561133f5780518082602001fd5b6040517f1425ea4200000000000000000000000000000000000000000000000000000000815260040160405180910390fd5b73ffffffffffffffffffffffffffffffffffffffff8116811461045557600080fd5b6000602082840312156113a557600080fd5b813561132881611371565b7f4e487b7100000000000000000000000000000000000000000000000000000000600052604160045260246000fd5b600080604083850312156113f257600080fd5b82356113fd81611371565b9150602083013567ffffffffffffffff8082111561141a57600080fd5b818501915085601f83011261142e57600080fd5b813581811115611440576114406113b0565b604051601f82017fffffffffffffffffffffffffffffffffffffffffffffffffffffffffffffffe0908116603f01168101908382118183101715611486576114866113b0565b8160405282815288602084870101111561149f57600080fd5b8260208601602083013760006020848301015280955050505050509250929050565b60005b838110156114dc5781810151838201526020016114c4565b50506000910152565b60208152600082518060208401526115048160408501602087016114c1565b601f017fffffffffffffffffffffffffffffffffffffffffffffffffffffffffffffffe0169190910160400192915050565b6000806000806080858703121561154c57600080fd5b843561155781611371565b9350602085013561156781611371565b9250604085013561157781611371565b9150606085013561158781611371565b939692955090935050565b6000602082840312156115a457600080fd5b5051919050565b600082516115bd8184602087016114c1565b919091019291505056fea164736f6c6343000814000a",
  "devdoc": {
    "version": 1,
    "kind": "dev",
    "details": "Complete documentation is provided in the IGovernanceManagerRootstockCollective interfaceThis contract is upgradeable via the UUPS proxy pattern.",
    "methods": {
      "constructor": {},
      "executeChange(address)": {
        "details": "reverts if is not called by the Governor",
        "params": {
          "changeContract_": "Address of the contract that will execute the changes"
        }
      },
      "initialize(address,address,address,address)": {
        "details": "Used instead of a constructor for upgradeable contracts.",
        "params": {
          "foundationTreasury_": "The initial foundation treasury address.",
          "governor_": "The initial governor address.",
          "kycApprover_": "account responsible of approving Builder's Know you Costumer policies and Legal requirements",
          "upgrader_": "The initial upgrader address."
        }
      },
      "isAuthorizedChanger(address)": {
        "details": "Reverts with `NotAuthorizedChanger` if the account is not the authorized changer.",
        "params": {
          "account_": "The address to be validated as the changer."
        }
      },
      "proxiableUUID()": {
        "details": "Implementation of the ERC1822 {proxiableUUID} function. This returns the storage slot used by the implementation. It is used to validate the implementation's compatibility when performing an upgrade. IMPORTANT: A proxy pointing at a proxiable contract should not be considered proxiable itself, because this risks bricking a proxy that upgrades to it, by delegating to itself until out of gas. Thus it is critical that this function revert if invoked through a proxy. This is guaranteed by the `notDelegated` modifier."
      },
      "updateFoundationTreasury(address)": {
        "details": "Reverts if caller is not a valid changer.Reverts if the new address is zero.",
        "params": {
          "foundationTreasury_": "The new foundation treasury address."
        }
      },
      "updateGovernor(address)": {
        "details": "Reverts if caller is not a valid changer.Reverts if the new address is zero.",
        "params": {
          "governor_": "The new governor address."
        }
      },
      "updateKYCApprover(address)": {
        "details": "Reverts if caller is not a valid changer.Reverts if the new address is zero.",
        "params": {
          "kycApprover_": "The new address to be set as the KYC approver."
        }
      },
      "updateUpgrader(address)": {
        "details": "Updates the account authorized to upgrade the contractsReverts if caller is the upgrader.allow update to zero address to disable the upgrader role",
        "params": {
          "upgrader_": "The new upgrader address."
        }
      },
      "upgradeToAndCall(address,bytes)": {
        "details": "Upgrade the implementation of the proxy to `newImplementation`, and subsequently execute the function call encoded in `data`. Calls {_authorizeUpgrade}. Emits an {Upgraded} event."
      },
      "validateAuthorizedChanger(address)": {
        "details": "Reverts with `NotAuthorizedChanger` if the account is not the authorized changer.",
        "params": {
          "account_": "The address to be validated as the changer."
        }
      },
      "validateAuthorizedUpgrader(address)": {
        "details": "Reverts with `NotAuthorizedUpgrader` if the account is not the upgrader.",
        "params": {
          "account_": "The address to be validated."
        }
      },
      "validateFoundationTreasury(address)": {
        "details": "Reverts with `NotFoundationTreasury` if the caller is not the foundation treasury.",
        "params": {
          "account_": "The address to be validated as the foundation treasury."
        }
      },
      "validateGovernor(address)": {
        "details": "Reverts with `NotGovernor` if the account is not the governor.",
        "params": {
          "account_": "The address to be validated as the governor."
        }
      },
      "validateKycApprover(address)": {
        "details": "Reverts with `NotKycApprover` if the account is not the KYC approver.",
        "params": {
          "account_": "The address to be validated as the KYC approver."
        }
      }
    },
    "events": {
      "Initialized(uint64)": {
        "details": "Triggered when the contract has been initialized or reinitialized."
      },
      "Upgraded(address)": {
        "details": "Emitted when the implementation is upgraded."
      }
    },
    "errors": {
      "AddressEmptyCode(address)": [
        {
          "details": "There's no code at `target` (it is not a contract)."
        }
      ],
      "ERC1967InvalidImplementation(address)": [
        {
          "details": "The `implementation` of the proxy is invalid."
        }
      ],
      "ERC1967NonPayable()": [
        {
          "details": "An upgrade function sees `msg.value > 0` that may be lost."
        }
      ],
      "FailedInnerCall()": [
        {
          "details": "A call to an address target failed. The target may have reverted."
        }
      ],
      "InvalidAddress(address)": [
        {
          "params": {
            "account_": "The invalid address provided."
          }
        }
      ],
      "InvalidInitialization()": [
        {
          "details": "The contract is already initialized."
        }
      ],
      "NotInitializing()": [
        {
          "details": "The contract is not initializing."
        }
      ],
      "UUPSUnauthorizedCallContext()": [
        {
          "details": "The call is from an unauthorized context."
        }
      ],
      "UUPSUnsupportedProxiableUUID(bytes32)": [
        {
          "details": "The storage `slot` is unsupported as a UUID."
        }
      ]
    },
    "title": "GovernanceManagerRootstockCollective"
  },
  "numDeployments": 2,
  "solcInputHash": "0x0000000000000000000000000000000000000000000000000000000000000000",
  "storageLayout": {
    "storage": [
      {
        "astId": 59859,
        "contract": "src/governance/GovernanceManagerRootstockCollective.sol:GovernanceManagerRootstockCollective",
        "label": "governor",
        "offset": 0,
        "slot": "0",
        "type": "t_address"
      },
      {
        "astId": 59862,
        "contract": "src/governance/GovernanceManagerRootstockCollective.sol:GovernanceManagerRootstockCollective",
        "label": "_authorizedChanger",
        "offset": 0,
        "slot": "1",
        "type": "t_address"
      },
      {
        "astId": 59865,
        "contract": "src/governance/GovernanceManagerRootstockCollective.sol:GovernanceManagerRootstockCollective",
        "label": "foundationTreasury",
        "offset": 0,
        "slot": "2",
        "type": "t_address"
      },
      {
        "astId": 59868,
        "contract": "src/governance/GovernanceManagerRootstockCollective.sol:GovernanceManagerRootstockCollective",
        "label": "kycApprover",
        "offset": 0,
        "slot": "3",
        "type": "t_address"
      },
      {
        "astId": 59871,
        "contract": "src/governance/GovernanceManagerRootstockCollective.sol:GovernanceManagerRootstockCollective",
        "label": "upgrader",
        "offset": 0,
        "slot": "4",
        "type": "t_address"
      },
      {
        "astId": 60188,
        "contract": "src/governance/GovernanceManagerRootstockCollective.sol:GovernanceManagerRootstockCollective",
        "label": "__gap",
        "offset": 0,
        "slot": "5",
        "type": "t_array(t_uint256)50_storage"
      }
    ],
    "types": {
      "t_address": {
        "encoding": "inplace",
        "label": "address",
        "numberOfBytes": "20"
      },
      "t_array(t_uint256)50_storage": {
        "encoding": "inplace",
        "label": "uint256[50]",
        "numberOfBytes": "1600",
        "base": "t_uint256"
      },
      "t_uint256": {
        "encoding": "inplace",
        "label": "uint256",
        "numberOfBytes": "32"
      }
    }
  },
  "transactionHash": "0x657d56d484a6cd8cb39618de4d1f3a2bd052cbeb1bc686314470caf67d0180c3",
  "userdoc": {
    "version": 1,
    "kind": "user",
    "methods": {
      "executeChange(address)": {
        "notice": "Function to be called to execute the changes in changeContract"
      },
      "foundationTreasury()": {
        "notice": "The address of the foundation treasury."
      },
      "governor()": {
        "notice": "The address of the governor."
      },
      "initialize(address,address,address,address)": {
        "notice": "Initializes the contract with the initial governor, foundation treasury, and KYC approver."
      },
      "isAuthorizedChanger(address)": {
        "notice": "Validates if the given account is authorized as a changer"
      },
      "kycApprover()": {
        "notice": "The address of the KYC approver."
      },
      "updateFoundationTreasury(address)": {
        "notice": "Updates the foundation treasury address"
      },
      "updateGovernor(address)": {
        "notice": "Updates the governor address"
      },
      "updateKYCApprover(address)": {
        "notice": "Updates the KYC approver address"
      },
      "upgrader()": {
        "notice": "The upgrader address with contract upgradeability permissions"
      },
      "validateAuthorizedChanger(address)": {
        "notice": "Validates if the given account is authorized as a changer"
      },
      "validateAuthorizedUpgrader(address)": {
        "notice": "Validates if the given account is authorized to upgrade the contracts."
      },
      "validateFoundationTreasury(address)": {
        "notice": "Validates if the given account is the foundation treasury."
      },
      "validateGovernor(address)": {
        "notice": "Validates if the given account is authorized as the governor."
      },
      "validateKycApprover(address)": {
        "notice": "Validates if the given account is authorized as the KYC approver."
      }
    },
    "errors": {
      "InvalidAddress(address)": [
        {
          "notice": "Thrown when an invalid address is provided."
        }
      ],
      "NotAuthorizedChanger()": [
        {
          "notice": "Thrown when the caller is not authorized as a changer."
        }
      ],
      "NotAuthorizedUpgrader()": [
        {
          "notice": "Thrown when the caller is not authorized to upgrade the contracts"
        }
      ],
      "NotFoundationTreasury()": [
        {
          "notice": "Thrown when the caller is not the foundation treasury."
        }
      ],
      "NotGovernor()": [
        {
          "notice": "Thrown when the caller is not the governor."
        }
      ],
      "NotKycApprover()": [
        {
          "notice": "Thrown when the caller is not the KYC approver."
        }
      ],
      "NotUpgrader()": [
        {
          "notice": "Thrown when the caller is not the upgrader."
        }
      ]
    },
    "notice": "This contract manages governance addresses.It also allows the governor to execute contracts that implement the IChangeContractRootstockCollective interface."
  }
}