{
  "abi": [
    {
      "type": "constructor",
      "inputs": [
        {
          "name": "governanceManager_",
          "type": "address",
          "internalType": "contract IGovernanceManagerRootstockCollective"
        },
        {
          "name": "gaugeImplementation_",
          "type": "address",
          "internalType": "address"
        }
      ],
      "stateMutability": "nonpayable"
    },
    {
      "type": "function",
      "name": "governanceManager",
      "inputs": [],
      "outputs": [
        {
          "name": "",
          "type": "address",
          "internalType": "contract IGovernanceManagerRootstockCollective"
        }
      ],
      "stateMutability": "view"
    },
    {
      "type": "function",
      "name": "implementation",
      "inputs": [],
      "outputs": [
        {
          "name": "",
          "type": "address",
          "internalType": "address"
        }
      ],
      "stateMutability": "view"
    },
    {
      "type": "function",
      "name": "owner",
      "inputs": [],
      "outputs": [
        {
          "name": "",
          "type": "address",
          "internalType": "address"
        }
      ],
      "stateMutability": "view"
    },
    {
      "type": "function",
      "name": "renounceOwnership",
      "inputs": [],
      "outputs": [],
      "stateMutability": "nonpayable"
    },
    {
      "type": "function",
      "name": "transferOwnership",
      "inputs": [
        {
          "name": "newOwner",
          "type": "address",
          "internalType": "address"
        }
      ],
      "outputs": [],
      "stateMutability": "nonpayable"
    },
    {
      "type": "function",
      "name": "upgradeTo",
      "inputs": [
        {
          "name": "newImplementation",
          "type": "address",
          "internalType": "address"
        }
      ],
      "outputs": [],
      "stateMutability": "nonpayable"
    },
    {
      "type": "event",
      "name": "OwnershipTransferred",
      "inputs": [
        {
          "name": "previousOwner",
          "type": "address",
          "indexed": true,
          "internalType": "address"
        },
        {
          "name": "newOwner",
          "type": "address",
          "indexed": true,
          "internalType": "address"
        }
      ],
      "anonymous": false
    },
    {
      "type": "event",
      "name": "Upgraded",
      "inputs": [
        {
          "name": "implementation",
          "type": "address",
          "indexed": true,
          "internalType": "address"
        }
      ],
      "anonymous": false
    },
    {
      "type": "error",
      "name": "BeaconInvalidImplementation",
      "inputs": [
        {
          "name": "implementation",
          "type": "address",
          "internalType": "address"
        }
      ]
    },
    {
      "type": "error",
      "name": "OwnableInvalidOwner",
      "inputs": [
        {
          "name": "owner",
          "type": "address",
          "internalType": "address"
        }
      ]
    },
    {
      "type": "error",
      "name": "OwnableUnauthorizedAccount",
      "inputs": [
        {
          "name": "account",
          "type": "address",
          "internalType": "address"
        }
      ]
    }
  ],
  "address": "0x21Cc53Cc2209E071FAb91F1495051A45b3c7E7d3",
  "args": [
    "0x7749f092834E4446466C1A14CcC8edD526A5C1fB",
    "0x277bF826F399Ecf671607380dD76f7643Be1A756"
  ],
  "bytecode": "0x608060405234801561001057600080fd5b5060405161062338038061062383398101604081905261002f916101e6565b80826001600160a01b0316630c340a246040518163ffffffff1660e01b8152600401602060405180830381865afa15801561006e573d6000803e3d6000fd5b505050506040513d601f19601f820116820180604052508101906100929190610220565b806001600160a01b0381166100c257604051631e4fbdf760e01b8152600060048201526024015b60405180910390fd5b6100cb816100fe565b506100d58261014e565b5050600280546001600160a01b0319166001600160a01b03939093169290921790915550610244565b600080546001600160a01b038381166001600160a01b0319831681178455604051919092169283917f8be0079c531659141344cd1fd0a4f28419497f9722a3daafe3b4186f6b6457e09190a35050565b806001600160a01b03163b6000036101845760405163211eb15960e21b81526001600160a01b03821660048201526024016100b9565b600180546001600160a01b0319166001600160a01b0383169081179091556040517fbc7cd75a20ee27fd9adebab32041f755214dbc6bffa90cc0225b39da2e5c2d3b90600090a250565b6001600160a01b03811681146101e357600080fd5b50565b600080604083850312156101f957600080fd5b8251610204816101ce565b6020840151909250610215816101ce565b809150509250929050565b60006020828403121561023257600080fd5b815161023d816101ce565b9392505050565b6103d0806102536000396000f3fe608060405234801561001057600080fd5b50600436106100725760003560e01c80638da5cb5b116100505780638da5cb5b146100d7578063d2e6d1c3146100f5578063f2fde38b1461011557600080fd5b80633659cfe6146100775780635c60da1b1461008c578063715018a6146100cf575b600080fd5b61008a610085366004610386565b610128565b005b60015473ffffffffffffffffffffffffffffffffffffffff165b60405173ffffffffffffffffffffffffffffffffffffffff909116815260200160405180910390f35b61008a61013c565b60005473ffffffffffffffffffffffffffffffffffffffff166100a6565b6002546100a69073ffffffffffffffffffffffffffffffffffffffff1681565b61008a610123366004610386565b610150565b6101306101b6565b61013981610239565b50565b6101446101b6565b61014e6000610311565b565b6101586101b6565b73ffffffffffffffffffffffffffffffffffffffff81166101ad576040517f1e4fbdf7000000000000000000000000000000000000000000000000000000008152600060048201526024015b60405180910390fd5b61013981610311565b6002546040517feb6f7abf00000000000000000000000000000000000000000000000000000000815233600482015273ffffffffffffffffffffffffffffffffffffffff9091169063eb6f7abf9060240160006040518083038186803b15801561021f57600080fd5b505afa158015610233573d6000803e3d6000fd5b50505050565b8073ffffffffffffffffffffffffffffffffffffffff163b6000036102a2576040517f847ac56400000000000000000000000000000000000000000000000000000000815273ffffffffffffffffffffffffffffffffffffffff821660048201526024016101a4565b600180547fffffffffffffffffffffffff00000000000000000000000000000000000000001673ffffffffffffffffffffffffffffffffffffffff83169081179091556040517fbc7cd75a20ee27fd9adebab32041f755214dbc6bffa90cc0225b39da2e5c2d3b90600090a250565b6000805473ffffffffffffffffffffffffffffffffffffffff8381167fffffffffffffffffffffffff0000000000000000000000000000000000000000831681178455604051919092169283917f8be0079c531659141344cd1fd0a4f28419497f9722a3daafe3b4186f6b6457e09190a35050565b60006020828403121561039857600080fd5b813573ffffffffffffffffffffffffffffffffffffffff811681146103bc57600080fd5b939250505056fea164736f6c6343000814000a",
  "devdoc": {
    "version": 1,
    "kind": "dev",
    "methods": {
      "constructor": {
        "params": {
          "gaugeImplementation_": "address of the Gauge initial implementation",
          "governanceManager_": "contract with permissioned roles"
        }
      },
      "implementation()": {
        "details": "Returns the current implementation address."
      },
      "owner()": {
        "details": "Returns the address of the current owner."
      },
      "renounceOwnership()": {
        "details": "Leaves the contract without owner. It will not be possible to call `onlyOwner` functions. Can only be called by the current owner. NOTE: Renouncing ownership will leave the contract without an owner, thereby disabling any functionality that is only available to the owner."
      },
      "transferOwnership(address)": {
        "details": "Transfers ownership of the contract to a new account (`newOwner`). Can only be called by the current owner."
      },
      "upgradeTo(address)": {
        "details": "Upgrades the beacon to a new implementation. Emits an {Upgraded} event. Requirements: - msg.sender must be the owner of the contract. - `newImplementation` must be a contract."
      }
    },
    "events": {
      "Upgraded(address)": {
        "details": "Emitted when the implementation returned by the beacon is changed."
      }
    },
    "errors": {
      "BeaconInvalidImplementation(address)": [
        {
          "details": "The `implementation` of the beacon is invalid."
        }
      ],
      "OwnableInvalidOwner(address)": [
        {
          "details": "The owner is not a valid owner account. (eg. `address(0)`)"
        }
      ],
      "OwnableUnauthorizedAccount(address)": [
        {
          "details": "The caller account is not authorized to perform an operation."
        }
      ]
    }
  },
  "numDeployments": 1,
  "solcInputHash": "0x0000000000000000000000000000000000000000000000000000000000000000",
  "storageLayout": {
    "storage": [
      {
        "astId": 613,
        "contract": "src/gauge/GaugeBeaconRootstockCollective.sol:GaugeBeaconRootstockCollective",
        "label": "_owner",
        "offset": 0,
        "slot": "0",
        "type": "t_address"
      },
      {
        "astId": 1357,
        "contract": "src/gauge/GaugeBeaconRootstockCollective.sol:GaugeBeaconRootstockCollective",
        "label": "_implementation",
        "offset": 0,
        "slot": "1",
        "type": "t_address"
      },
      {
        "astId": 58344,
        "contract": "src/gauge/GaugeBeaconRootstockCollective.sol:GaugeBeaconRootstockCollective",
        "label": "governanceManager",
        "offset": 0,
        "slot": "2",
        "type": "t_contract(IGovernanceManagerRootstockCollective)60552"
      }
    ],
    "types": {
      "t_address": {
        "encoding": "inplace",
        "label": "address",
        "numberOfBytes": "20"
      },
      "t_contract(IGovernanceManagerRootstockCollective)60552": {
        "encoding": "inplace",
        "label": "contract IGovernanceManagerRootstockCollective",
        "numberOfBytes": "20"
      }
    }
  },
  "transactionHash": "0xa26d58e7e6998e02e9669c96358b18c1ec7611704dc49370e8b9e83b13253ead",
  "userdoc": {
    "version": 1,
    "kind": "user",
    "methods": {
      "constructor": {
        "notice": "constructor"
      }
    }
  }
}