{
  "abi": [
    {
      "type": "constructor",
      "inputs": [],
      "stateMutability": "nonpayable"
    },
    {
      "type": "function",
      "name": "UPGRADE_INTERFACE_VERSION",
      "inputs": [],
      "outputs": [
        {
          "name": "",
          "type": "string",
          "internalType": "string"
        }
      ],
      "stateMutability": "view"
    },
    {
      "type": "function",
      "name": "activateBuilder",
      "inputs": [
        {
          "name": "builder_",
          "type": "address",
          "internalType": "address"
        },
        {
          "name": "rewardReceiver_",
          "type": "address",
          "internalType": "address"
        },
        {
          "name": "rewardPercentage_",
          "type": "uint64",
          "internalType": "uint64"
        }
      ],
      "outputs": [],
      "stateMutability": "nonpayable"
    },
    {
      "type": "function",
      "name": "allocate",
      "inputs": [
        {
          "name": "gauge_",
          "type": "address",
          "internalType": "contract GaugeRootstockCollective"
        },
        {
          "name": "allocation_",
          "type": "uint256",
          "internalType": "uint256"
        }
      ],
      "outputs": [],
      "stateMutability": "nonpayable"
    },
    {
      "type": "function",
      "name": "allocateBatch",
      "inputs": [
        {
          "name": "gauges_",
          "type": "address[]",
          "internalType": "contract GaugeRootstockCollective[]"
        },
        {
          "name": "allocations_",
          "type": "uint256[]",
          "internalType": "uint256[]"
        }
      ],
      "outputs": [],
      "stateMutability": "nonpayable"
    },
    {
      "type": "function",
      "name": "approveBuilderKYC",
      "inputs": [
        {
          "name": "builder_",
          "type": "address",
          "internalType": "address"
        }
      ],
      "outputs": [],
      "stateMutability": "nonpayable"
    },
    {
      "type": "function",
      "name": "backerTotalAllocation",
      "inputs": [
        {
          "name": "backer",
          "type": "address",
          "internalType": "address"
        }
      ],
      "outputs": [
        {
          "name": "allocation",
          "type": "uint256",
          "internalType": "uint256"
        }
      ],
      "stateMutability": "view"
    },
    {
      "type": "function",
      "name": "builderRewardPercentage",
      "inputs": [
        {
          "name": "builder",
          "type": "address",
          "internalType": "address"
        }
      ],
      "outputs": [
        {
          "name": "previous",
          "type": "uint64",
          "internalType": "uint64"
        },
        {
          "name": "next",
          "type": "uint64",
          "internalType": "uint64"
        },
        {
          "name": "cooldownEndTime",
          "type": "uint128",
          "internalType": "uint128"
        }
      ],
      "stateMutability": "view"
    },
    {
      "type": "function",
      "name": "builderRewardReceiver",
      "inputs": [
        {
          "name": "builder",
          "type": "address",
          "internalType": "address"
        }
      ],
      "outputs": [
        {
          "name": "rewardReceiver",
          "type": "address",
          "internalType": "address"
        }
      ],
      "stateMutability": "view"
    },
    {
      "type": "function",
      "name": "builderState",
      "inputs": [
        {
          "name": "builder",
          "type": "address",
          "internalType": "address"
        }
      ],
      "outputs": [
        {
          "name": "activated",
          "type": "bool",
          "internalType": "bool"
        },
        {
          "name": "kycApproved",
          "type": "bool",
          "internalType": "bool"
        },
        {
          "name": "whitelisted",
          "type": "bool",
          "internalType": "bool"
        },
        {
          "name": "paused",
          "type": "bool",
          "internalType": "bool"
        },
        {
          "name": "revoked",
          "type": "bool",
          "internalType": "bool"
        },
        {
          "name": "reserved",
          "type": "bytes7",
          "internalType": "bytes7"
        },
        {
          "name": "pausedReason",
          "type": "bytes20",
          "internalType": "bytes20"
        }
      ],
      "stateMutability": "view"
    },
    {
      "type": "function",
      "name": "builderToGauge",
      "inputs": [
        {
          "name": "builder",
          "type": "address",
          "internalType": "address"
        }
      ],
      "outputs": [
        {
          "name": "gauge",
          "type": "address",
          "internalType": "contract GaugeRootstockCollective"
        }
      ],
      "stateMutability": "view"
    },
    {
      "type": "function",
      "name": "canWithdraw",
      "inputs": [
        {
          "name": "targetAddress_",
          "type": "address",
          "internalType": "address"
        },
        {
          "name": "value_",
          "type": "uint256",
          "internalType": "uint256"
        }
      ],
      "outputs": [
        {
          "name": "",
          "type": "bool",
          "internalType": "bool"
        }
      ],
      "stateMutability": "view"
    },
    {
      "type": "function",
      "name": "claimBackerRewards",
      "inputs": [
        {
          "name": "gauges_",
          "type": "address[]",
          "internalType": "contract GaugeRootstockCollective[]"
        }
      ],
      "outputs": [],
      "stateMutability": "nonpayable"
    },
    {
      "type": "function",
      "name": "claimBackerRewards",
      "inputs": [
        {
          "name": "rewardToken_",
          "type": "address",
          "internalType": "address"
        },
        {
          "name": "gauges_",
          "type": "address[]",
          "internalType": "contract GaugeRootstockCollective[]"
        }
      ],
      "outputs": [],
      "stateMutability": "nonpayable"
    },
    {
      "type": "function",
      "name": "cycleData",
      "inputs": [],
      "outputs": [
        {
          "name": "previousDuration",
          "type": "uint32",
          "internalType": "uint32"
        },
        {
          "name": "nextDuration",
          "type": "uint32",
          "internalType": "uint32"
        },
        {
          "name": "previousStart",
          "type": "uint64",
          "internalType": "uint64"
        },
        {
          "name": "nextStart",
          "type": "uint64",
          "internalType": "uint64"
        },
        {
          "name": "offset",
          "type": "uint24",
          "internalType": "uint24"
        }
      ],
      "stateMutability": "view"
    },
    {
      "type": "function",
      "name": "cycleNext",
      "inputs": [
        {
          "name": "timestamp_",
          "type": "uint256",
          "internalType": "uint256"
        }
      ],
      "outputs": [
        {
          "name": "",
          "type": "uint256",
          "internalType": "uint256"
        }
      ],
      "stateMutability": "view"
    },
    {
      "type": "function",
      "name": "cycleStart",
      "inputs": [
        {
          "name": "timestamp_",
          "type": "uint256",
          "internalType": "uint256"
        }
      ],
      "outputs": [
        {
          "name": "",
          "type": "uint256",
          "internalType": "uint256"
        }
      ],
      "stateMutability": "view"
    },
    {
      "type": "function",
      "name": "dewhitelistBuilder",
      "inputs": [
        {
          "name": "builder_",
          "type": "address",
          "internalType": "address"
        }
      ],
      "outputs": [],
      "stateMutability": "nonpayable"
    },
    {
      "type": "function",
      "name": "distribute",
      "inputs": [],
      "outputs": [
        {
          "name": "finished_",
          "type": "bool",
          "internalType": "bool"
        }
      ],
      "stateMutability": "nonpayable"
    },
    {
      "type": "function",
      "name": "endDistributionWindow",
      "inputs": [
        {
          "name": "timestamp_",
          "type": "uint256",
          "internalType": "uint256"
        }
      ],
      "outputs": [
        {
          "name": "",
          "type": "uint256",
          "internalType": "uint256"
        }
      ],
      "stateMutability": "view"
    },
    {
      "type": "function",
      "name": "gaugeFactory",
      "inputs": [],
      "outputs": [
        {
          "name": "",
          "type": "address",
          "internalType": "contract GaugeFactoryRootstockCollective"
        }
      ],
      "stateMutability": "view"
    },
    {
      "type": "function",
      "name": "gaugeToBuilder",
      "inputs": [
        {
          "name": "gauge",
          "type": "address",
          "internalType": "contract GaugeRootstockCollective"
        }
      ],
      "outputs": [
        {
          "name": "builder",
          "type": "address",
          "internalType": "address"
        }
      ],
      "stateMutability": "view"
    },
    {
      "type": "function",
      "name": "getCycleStartAndDuration",
      "inputs": [],
      "outputs": [
        {
          "name": "",
          "type": "uint256",
          "internalType": "uint256"
        },
        {
          "name": "",
          "type": "uint256",
          "internalType": "uint256"
        }
      ],
      "stateMutability": "view"
    },
    {
      "type": "function",
      "name": "getGaugeAt",
      "inputs": [
        {
          "name": "index_",
          "type": "uint256",
          "internalType": "uint256"
        }
      ],
      "outputs": [
        {
          "name": "",
          "type": "address",
          "internalType": "address"
        }
      ],
      "stateMutability": "view"
    },
    {
      "type": "function",
      "name": "getGaugesLength",
      "inputs": [],
      "outputs": [
        {
          "name": "",
          "type": "uint256",
          "internalType": "uint256"
        }
      ],
      "stateMutability": "view"
    },
    {
      "type": "function",
      "name": "getHaltedGaugeAt",
      "inputs": [
        {
          "name": "index_",
          "type": "uint256",
          "internalType": "uint256"
        }
      ],
      "outputs": [
        {
          "name": "",
          "type": "address",
          "internalType": "address"
        }
      ],
      "stateMutability": "view"
    },
    {
      "type": "function",
      "name": "getHaltedGaugesLength",
      "inputs": [],
      "outputs": [
        {
          "name": "",
          "type": "uint256",
          "internalType": "uint256"
        }
      ],
      "stateMutability": "view"
    },
    {
      "type": "function",
      "name": "getRewardPercentageToApply",
      "inputs": [
        {
          "name": "builder_",
          "type": "address",
          "internalType": "address"
        }
      ],
      "outputs": [
        {
          "name": "",
          "type": "uint64",
          "internalType": "uint64"
        }
      ],
      "stateMutability": "view"
    },
    {
      "type": "function",
      "name": "governanceManager",
      "inputs": [],
      "outputs": [
        {
          "name": "",
          "type": "address",
          "internalType": "contract IGovernanceManagerRootstockCollective"
        }
      ],
      "stateMutability": "view"
    },
    {
      "type": "function",
      "name": "haltedGaugeLastPeriodFinish",
      "inputs": [
        {
          "name": "gauge",
          "type": "address",
          "internalType": "contract GaugeRootstockCollective"
        }
      ],
      "outputs": [
        {
          "name": "lastPeriodFinish",
          "type": "uint256",
          "internalType": "uint256"
        }
      ],
      "stateMutability": "view"
    },
    {
      "type": "function",
      "name": "indexLastGaugeDistributed",
      "inputs": [],
      "outputs": [
        {
          "name": "",
          "type": "uint256",
          "internalType": "uint256"
        }
      ],
      "stateMutability": "view"
    },
    {
      "type": "function",
      "name": "initialize",
      "inputs": [
        {
          "name": "governanceManager_",
          "type": "address",
          "internalType": "contract IGovernanceManagerRootstockCollective"
        },
        {
          "name": "rewardToken_",
          "type": "address",
          "internalType": "address"
        },
        {
          "name": "stakingToken_",
          "type": "address",
          "internalType": "address"
        },
        {
          "name": "gaugeFactory_",
          "type": "address",
          "internalType": "address"
        },
        {
          "name": "rewardDistributor_",
          "type": "address",
          "internalType": "address"
        },
        {
          "name": "cycleDuration_",
          "type": "uint32",
          "internalType": "uint32"
        },
        {
          "name": "cycleStartOffset_",
          "type": "uint24",
          "internalType": "uint24"
        },
        {
          "name": "rewardPercentageCooldown_",
          "type": "uint128",
          "internalType": "uint128"
        }
      ],
      "outputs": [],
      "stateMutability": "nonpayable"
    },
    {
      "type": "function",
      "name": "isBuilderOperational",
      "inputs": [
        {
          "name": "builder_",
          "type": "address",
          "internalType": "address"
        }
      ],
      "outputs": [
        {
          "name": "",
          "type": "bool",
          "internalType": "bool"
        }
      ],
      "stateMutability": "view"
    },
    {
      "type": "function",
      "name": "isBuilderPaused",
      "inputs": [
        {
          "name": "builder_",
          "type": "address",
          "internalType": "address"
        }
      ],
      "outputs": [
        {
          "name": "",
          "type": "bool",
          "internalType": "bool"
        }
      ],
      "stateMutability": "view"
    },
    {
      "type": "function",
      "name": "isGaugeHalted",
      "inputs": [
        {
          "name": "gauge_",
          "type": "address",
          "internalType": "address"
        }
      ],
      "outputs": [
        {
          "name": "",
          "type": "bool",
          "internalType": "bool"
        }
      ],
      "stateMutability": "view"
    },
    {
      "type": "function",
      "name": "isGaugeOperational",
      "inputs": [
        {
          "name": "gauge_",
          "type": "address",
          "internalType": "contract GaugeRootstockCollective"
        }
      ],
      "outputs": [
        {
          "name": "",
          "type": "bool",
          "internalType": "bool"
        }
      ],
      "stateMutability": "view"
    },
    {
      "type": "function",
      "name": "isGaugeRewarded",
      "inputs": [
        {
          "name": "gauge_",
          "type": "address",
          "internalType": "address"
        }
      ],
      "outputs": [
        {
          "name": "",
          "type": "bool",
          "internalType": "bool"
        }
      ],
      "stateMutability": "view"
    },
    {
      "type": "function",
      "name": "notifyRewardAmount",
      "inputs": [
        {
          "name": "amount_",
          "type": "uint256",
          "internalType": "uint256"
        }
      ],
      "outputs": [],
      "stateMutability": "payable"
    },
    {
      "type": "function",
      "name": "onDistributionPeriod",
      "inputs": [],
      "outputs": [
        {
          "name": "",
          "type": "bool",
          "internalType": "bool"
        }
      ],
      "stateMutability": "view"
    },
    {
      "type": "function",
      "name": "pauseBuilder",
      "inputs": [
        {
          "name": "builder_",
          "type": "address",
          "internalType": "address"
        },
        {
          "name": "reason_",
          "type": "bytes20",
          "internalType": "bytes20"
        }
      ],
      "outputs": [],
      "stateMutability": "nonpayable"
    },
    {
      "type": "function",
      "name": "periodFinish",
      "inputs": [],
      "outputs": [
        {
          "name": "",
          "type": "uint256",
          "internalType": "uint256"
        }
      ],
      "stateMutability": "view"
    },
    {
      "type": "function",
      "name": "permitBuilder",
      "inputs": [
        {
          "name": "rewardPercentage_",
          "type": "uint64",
          "internalType": "uint64"
        }
      ],
      "outputs": [],
      "stateMutability": "nonpayable"
    },
    {
      "type": "function",
      "name": "proxiableUUID",
      "inputs": [],
      "outputs": [
        {
          "name": "",
          "type": "bytes32",
          "internalType": "bytes32"
        }
      ],
      "stateMutability": "view"
    },
    {
      "type": "function",
      "name": "revokeBuilder",
      "inputs": [],
      "outputs": [],
      "stateMutability": "nonpayable"
    },
    {
      "type": "function",
      "name": "revokeBuilderKYC",
      "inputs": [
        {
          "name": "builder_",
          "type": "address",
          "internalType": "address"
        }
      ],
      "outputs": [],
      "stateMutability": "nonpayable"
    },
    {
      "type": "function",
      "name": "rewardDistributor",
      "inputs": [],
      "outputs": [
        {
          "name": "",
          "type": "address",
          "internalType": "address"
        }
      ],
      "stateMutability": "view"
    },
    {
      "type": "function",
      "name": "rewardPercentageCooldown",
      "inputs": [],
      "outputs": [
        {
          "name": "",
          "type": "uint128",
          "internalType": "uint128"
        }
      ],
      "stateMutability": "view"
    },
    {
      "type": "function",
      "name": "rewardToken",
      "inputs": [],
      "outputs": [
        {
          "name": "",
          "type": "address",
          "internalType": "address"
        }
      ],
      "stateMutability": "view"
    },
    {
      "type": "function",
      "name": "rewardsCoinbase",
      "inputs": [],
      "outputs": [
        {
          "name": "",
          "type": "uint256",
          "internalType": "uint256"
        }
      ],
      "stateMutability": "view"
    },
    {
      "type": "function",
      "name": "rewardsERC20",
      "inputs": [],
      "outputs": [
        {
          "name": "",
          "type": "uint256",
          "internalType": "uint256"
        }
      ],
      "stateMutability": "view"
    },
    {
      "type": "function",
      "name": "setBuilderRewardPercentage",
      "inputs": [
        {
          "name": "rewardPercentage_",
          "type": "uint64",
          "internalType": "uint64"
        }
      ],
      "outputs": [],
      "stateMutability": "nonpayable"
    },
    {
      "type": "function",
      "name": "setCycleDuration",
      "inputs": [
        {
          "name": "newCycleDuration_",
          "type": "uint32",
          "internalType": "uint32"
        },
        {
          "name": "cycleStartOffset_",
          "type": "uint24",
          "internalType": "uint24"
        }
      ],
      "outputs": [],
      "stateMutability": "nonpayable"
    },
    {
      "type": "function",
      "name": "stakingToken",
      "inputs": [],
      "outputs": [
        {
          "name": "",
          "type": "address",
          "internalType": "contract IERC20"
        }
      ],
      "stateMutability": "view"
    },
    {
      "type": "function",
      "name": "startDistribution",
      "inputs": [],
      "outputs": [
        {
          "name": "finished_",
          "type": "bool",
          "internalType": "bool"
        }
      ],
      "stateMutability": "nonpayable"
    },
    {
      "type": "function",
      "name": "supportsInterface",
      "inputs": [
        {
          "name": "interfaceId_",
          "type": "bytes4",
          "internalType": "bytes4"
        }
      ],
      "outputs": [
        {
          "name": "",
          "type": "bool",
          "internalType": "bool"
        }
      ],
      "stateMutability": "view"
    },
    {
      "type": "function",
      "name": "tempTotalPotentialReward",
      "inputs": [],
      "outputs": [
        {
          "name": "",
          "type": "uint256",
          "internalType": "uint256"
        }
      ],
      "stateMutability": "view"
    },
    {
      "type": "function",
      "name": "timeUntilNextCycle",
      "inputs": [
        {
          "name": "timestamp_",
          "type": "uint256",
          "internalType": "uint256"
        }
      ],
      "outputs": [
        {
          "name": "",
          "type": "uint256",
          "internalType": "uint256"
        }
      ],
      "stateMutability": "view"
    },
    {
      "type": "function",
      "name": "totalPotentialReward",
      "inputs": [],
      "outputs": [
        {
          "name": "",
          "type": "uint256",
          "internalType": "uint256"
        }
      ],
      "stateMutability": "view"
    },
    {
      "type": "function",
      "name": "unpauseBuilder",
      "inputs": [
        {
          "name": "builder_",
          "type": "address",
          "internalType": "address"
        }
      ],
      "outputs": [],
      "stateMutability": "nonpayable"
    },
    {
      "type": "function",
      "name": "upgradeToAndCall",
      "inputs": [
        {
          "name": "newImplementation",
          "type": "address",
          "internalType": "address"
        },
        {
          "name": "data",
          "type": "bytes",
          "internalType": "bytes"
        }
      ],
      "outputs": [],
      "stateMutability": "payable"
    },
    {
      "type": "function",
      "name": "whitelistBuilder",
      "inputs": [
        {
          "name": "builder_",
          "type": "address",
          "internalType": "address"
        }
      ],
      "outputs": [
        {
          "name": "gauge_",
          "type": "address",
          "internalType": "contract GaugeRootstockCollective"
        }
      ],
      "stateMutability": "nonpayable"
    },
    {
      "type": "event",
      "name": "BuilderActivated",
      "inputs": [
        {
          "name": "builder_",
          "type": "address",
          "indexed": true,
          "internalType": "address"
        },
        {
          "name": "rewardReceiver_",
          "type": "address",
          "indexed": false,
          "internalType": "address"
        },
        {
          "name": "rewardPercentage_",
          "type": "uint64",
          "indexed": false,
          "internalType": "uint64"
        }
      ],
      "anonymous": false
    },
    {
      "type": "event",
      "name": "BuilderRewardPercentageUpdateScheduled",
      "inputs": [
        {
          "name": "builder_",
          "type": "address",
          "indexed": true,
          "internalType": "address"
        },
        {
          "name": "rewardPercentage_",
          "type": "uint256",
          "indexed": false,
          "internalType": "uint256"
        },
        {
          "name": "cooldown_",
          "type": "uint256",
          "indexed": false,
          "internalType": "uint256"
        }
      ],
      "anonymous": false
    },
    {
      "type": "event",
      "name": "Dewhitelisted",
      "inputs": [
        {
          "name": "builder_",
          "type": "address",
          "indexed": true,
          "internalType": "address"
        }
      ],
      "anonymous": false
    },
    {
      "type": "event",
      "name": "GaugeCreated",
      "inputs": [
        {
          "name": "builder_",
          "type": "address",
          "indexed": true,
          "internalType": "address"
        },
        {
          "name": "gauge_",
          "type": "address",
          "indexed": true,
          "internalType": "address"
        },
        {
          "name": "creator_",
          "type": "address",
          "indexed": false,
          "internalType": "address"
        }
      ],
      "anonymous": false
    },
    {
      "type": "event",
      "name": "Initialized",
      "inputs": [
        {
          "name": "version",
          "type": "uint64",
          "indexed": false,
          "internalType": "uint64"
        }
      ],
      "anonymous": false
    },
    {
      "type": "event",
      "name": "KYCApproved",
      "inputs": [
        {
          "name": "builder_",
          "type": "address",
          "indexed": true,
          "internalType": "address"
        }
      ],
      "anonymous": false
    },
    {
      "type": "event",
      "name": "KYCRevoked",
      "inputs": [
        {
          "name": "builder_",
          "type": "address",
          "indexed": true,
          "internalType": "address"
        }
      ],
      "anonymous": false
    },
    {
      "type": "event",
      "name": "NewAllocation",
      "inputs": [
        {
          "name": "backer_",
          "type": "address",
          "indexed": true,
          "internalType": "address"
        },
        {
          "name": "gauge_",
          "type": "address",
          "indexed": true,
          "internalType": "address"
        },
        {
          "name": "allocation_",
          "type": "uint256",
          "indexed": false,
          "internalType": "uint256"
        }
      ],
      "anonymous": false
    },
    {
      "type": "event",
      "name": "NewCycleDurationScheduled",
      "inputs": [
        {
          "name": "newCycleDuration_",
          "type": "uint256",
          "indexed": false,
          "internalType": "uint256"
        },
        {
          "name": "cooldownEndTime_",
          "type": "uint256",
          "indexed": false,
          "internalType": "uint256"
        }
      ],
      "anonymous": false
    },
    {
      "type": "event",
      "name": "NotifyReward",
      "inputs": [
        {
          "name": "rewardToken_",
          "type": "address",
          "indexed": true,
          "internalType": "address"
        },
        {
          "name": "sender_",
          "type": "address",
          "indexed": true,
          "internalType": "address"
        },
        {
          "name": "amount_",
          "type": "uint256",
          "indexed": false,
          "internalType": "uint256"
        }
      ],
      "anonymous": false
    },
    {
      "type": "event",
      "name": "Paused",
      "inputs": [
        {
          "name": "builder_",
          "type": "address",
          "indexed": true,
          "internalType": "address"
        },
        {
          "name": "reason_",
          "type": "bytes20",
          "indexed": false,
          "internalType": "bytes20"
        }
      ],
      "anonymous": false
    },
    {
      "type": "event",
      "name": "Permitted",
      "inputs": [
        {
          "name": "builder_",
          "type": "address",
          "indexed": true,
          "internalType": "address"
        },
        {
          "name": "rewardPercentage_",
          "type": "uint256",
          "indexed": false,
          "internalType": "uint256"
        },
        {
          "name": "cooldown_",
          "type": "uint256",
          "indexed": false,
          "internalType": "uint256"
        }
      ],
      "anonymous": false
    },
    {
      "type": "event",
      "name": "Revoked",
      "inputs": [
        {
          "name": "builder_",
          "type": "address",
          "indexed": true,
          "internalType": "address"
        }
      ],
      "anonymous": false
    },
    {
      "type": "event",
      "name": "RewardDistributed",
      "inputs": [
        {
          "name": "sender_",
          "type": "address",
          "indexed": true,
          "internalType": "address"
        }
      ],
      "anonymous": false
    },
    {
      "type": "event",
      "name": "RewardDistributionFinished",
      "inputs": [
        {
          "name": "sender_",
          "type": "address",
          "indexed": true,
          "internalType": "address"
        }
      ],
      "anonymous": false
    },
    {
      "type": "event",
      "name": "RewardDistributionStarted",
      "inputs": [
        {
          "name": "sender_",
          "type": "address",
          "indexed": true,
          "internalType": "address"
        }
      ],
      "anonymous": false
    },
    {
      "type": "event",
      "name": "Unpaused",
      "inputs": [
        {
          "name": "builder_",
          "type": "address",
          "indexed": true,
          "internalType": "address"
        }
      ],
      "anonymous": false
    },
    {
      "type": "event",
      "name": "Upgraded",
      "inputs": [
        {
          "name": "implementation",
          "type": "address",
          "indexed": true,
          "internalType": "address"
        }
      ],
      "anonymous": false
    },
    {
      "type": "event",
      "name": "Whitelisted",
      "inputs": [
        {
          "name": "builder_",
          "type": "address",
          "indexed": true,
          "internalType": "address"
        }
      ],
      "anonymous": false
    },
    {
      "type": "error",
      "name": "AddressEmptyCode",
      "inputs": [
        {
          "name": "target",
          "type": "address",
          "internalType": "address"
        }
      ]
    },
    {
      "type": "error",
      "name": "AddressInsufficientBalance",
      "inputs": [
        {
          "name": "account",
          "type": "address",
          "internalType": "address"
        }
      ]
    },
    {
      "type": "error",
      "name": "AlreadyActivated",
      "inputs": []
    },
    {
      "type": "error",
      "name": "AlreadyKYCApproved",
      "inputs": []
    },
    {
      "type": "error",
      "name": "AlreadyRevoked",
      "inputs": []
    },
    {
      "type": "error",
      "name": "AlreadyWhitelisted",
      "inputs": []
    },
    {
      "type": "error",
      "name": "BeforeDistribution",
      "inputs": []
    },
    {
      "type": "error",
      "name": "BuilderAlreadyExists",
      "inputs": []
    },
    {
      "type": "error",
      "name": "BuilderDoesNotExist",
      "inputs": []
    },
    {
      "type": "error",
      "name": "CannotRevoke",
      "inputs": []
    },
    {
      "type": "error",
      "name": "CycleDurationNotHourBasis",
      "inputs": []
    },
    {
      "type": "error",
      "name": "CycleDurationTooShort",
      "inputs": []
    },
    {
      "type": "error",
      "name": "CycleDurationsAreNotMultiples",
      "inputs": []
    },
    {
      "type": "error",
      "name": "DistributionPeriodDidNotStart",
      "inputs": []
    },
    {
      "type": "error",
      "name": "ERC1967InvalidImplementation",
      "inputs": [
        {
          "name": "implementation",
          "type": "address",
          "internalType": "address"
        }
      ]
    },
    {
      "type": "error",
      "name": "ERC1967NonPayable",
      "inputs": []
    },
    {
      "type": "error",
      "name": "FailedInnerCall",
      "inputs": []
    },
    {
      "type": "error",
      "name": "GaugeDoesNotExist",
      "inputs": []
    },
    {
      "type": "error",
      "name": "InvalidBuilderRewardPercentage",
      "inputs": []
    },
    {
      "type": "error",
      "name": "InvalidInitialization",
      "inputs": []
    },
    {
      "type": "error",
      "name": "IsRevoked",
      "inputs": []
    },
    {
      "type": "error",
      "name": "NotActivated",
      "inputs": []
    },
    {
      "type": "error",
      "name": "NotEnoughStaking",
      "inputs": []
    },
    {
      "type": "error",
      "name": "NotInDistributionPeriod",
      "inputs": []
    },
    {
      "type": "error",
      "name": "NotInitializing",
      "inputs": []
    },
    {
      "type": "error",
      "name": "NotKYCApproved",
      "inputs": []
    },
    {
      "type": "error",
      "name": "NotOperational",
      "inputs": []
    },
    {
      "type": "error",
      "name": "NotPaused",
      "inputs": []
    },
    {
      "type": "error",
      "name": "NotRevoked",
      "inputs": []
    },
    {
      "type": "error",
      "name": "NotWhitelisted",
      "inputs": []
    },
    {
      "type": "error",
      "name": "OnlyInDistributionWindow",
      "inputs": []
    },
    {
      "type": "error",
      "name": "PositiveAllocationOnHaltedGauge",
      "inputs": []
    },
    {
      "type": "error",
      "name": "SafeERC20FailedOperation",
      "inputs": [
        {
          "name": "token",
          "type": "address",
          "internalType": "address"
        }
      ]
    },
    {
      "type": "error",
      "name": "UUPSUnauthorizedCallContext",
      "inputs": []
    },
    {
      "type": "error",
      "name": "UUPSUnsupportedProxiableUUID",
      "inputs": [
        {
          "name": "slot",
          "type": "bytes32",
          "internalType": "bytes32"
        }
      ]
    },
    {
      "type": "error",
      "name": "UnequalLengths",
      "inputs": []
    }
  ],
  "address": "0x83bD85A96f9427E152bB3876Eebc252DB18af01A",
  "args": [],
  "bytecode": "0x60a0604052306080523480156200001557600080fd5b506200002062000030565b6200002a62000030565b620000e4565b7ff0c57e16840df040f15088dc2f81fe391c3923bec73e23a9662efc9c229c6a00805468010000000000000000900460ff1615620000815760405163f92ee8a960e01b815260040160405180910390fd5b80546001600160401b0390811614620000e15780546001600160401b0319166001600160401b0390811782556040519081527fc7f505b2f371ae2175ee4913f4499e1f2633a7b5936321eed1cdaeb6115181d29060200160405180910390a15b50565b6080516151e36200010e60003960008181613830015281816138590152613a9d01526151e36000f3fe6080604052600436106103975760003560e01c80637572392c116101dc578063c15382d811610102578063e2ab7cf2116100a0578063efbdb5431161006f578063efbdb54314610c9c578063f0527f8f14610d5c578063f7c618c114610d7c578063fd472fde14610d9c57600080fd5b8063e2ab7cf214610c32578063e4fc6b6d14610c52578063e64638d714610c67578063ebe2b12b14610c8757600080fd5b8063d2d8c932116100dc578063d2d8c93214610bc7578063d2e6d1c314610bdd578063d83623dd14610bfd578063dff6874814610c1257600080fd5b8063c15382d814610b59578063c58a1e4d14610b92578063caa9915e14610ba757600080fd5b8063a0d961c01161017a578063ad3cb1cc11610149578063ad3cb1cc14610a1a578063b78b52df14610a70578063bb81e19d14610a90578063bba3804b14610b3957600080fd5b8063a0d961c01461099a578063a7c0782b146109ba578063a8a90af7146109da578063acc2166a146109fa57600080fd5b80638dcb7ea4116101b65780638dcb7ea41461090f5780639626f3581461094557806397e57cf9146109655780639dcde8121461097a57600080fd5b80637572392c146108b957806377bd9c2d146108cf57806381d8bd2c146108ef57600080fd5b806341f26580116102c1578063517b989c1161025f57806371d8a4891161022e57806371d8a489146107f957806372b874ad1461082f57806372f702f31461084f57806374c0dff11461086f57600080fd5b8063517b989c146107a357806352d1902d146107b9578063579e8c8e146107ce5780636912be2d146107e457600080fd5b80634895b5f61161029b5780634895b5f61461072357806348d57282146107435780634b1d41fc146107635780634f1ef2861461079057600080fd5b806341f26580146106b95780634356d671146106e357806345b5cd311461070357600080fd5b8063187256eb1161033957806323e978c11161030857806323e978c11461063a578063278fdc691461067057806329ad14d3146106865780633c6b16ab146106a657600080fd5b8063187256eb146104b35780631d5cd0e6146104e05780631f56d39c146105da57806323ae495b1461061a57600080fd5b806309022b131161037557806309022b13146104295780630d52333c14610457578063119234dd1461047757806312ad23871461049957600080fd5b806301ffc9a71461039c57806303184e31146103d1578063068d67c3146103f1575b600080fd5b3480156103a857600080fd5b506103bc6103b7366004614969565b610dbc565b60405190151581526020015b60405180910390f35b3480156103dd57600080fd5b506103bc6103ec3660046149c0565b610e55565b3480156103fd57600080fd5b5061041161040c3660046149c0565b610e62565b6040516001600160a01b0390911681526020016103c8565b34801561043557600080fd5b506104496104443660046149dd565b611033565b6040519081526020016103c8565b34801561046357600080fd5b50606e54610411906001600160a01b031681565b34801561048357600080fd5b50610497610492366004614afd565b61104b565b005b3480156104a557600080fd5b5060ad546103bc9060ff1681565b3480156104bf57600080fd5b506104496104ce3660046149c0565b60ae6020526000908152604090205481565b3480156104ec57600080fd5b506105586104fb3660046149c0565b60676020526000908152604090205460ff808216916101008104821691620100008204811691630100000081048216916401000000008204169065010000000000810460c81b906c01000000000000000000000000900460601b87565b6040805197151588529515156020880152931515948601949094529015156060850152151560808401527fffffffffffffff0000000000000000000000000000000000000000000000000090911660a08301527fffffffffffffffffffffffffffffffffffffffff0000000000000000000000001660c082015260e0016103c8565b3480156105e657600080fd5b506103bc6105f53660046149c0565b6001600160a01b03166000908152606760205260409020546301000000900460ff1690565b34801561062657600080fd5b50610497610635366004614b5e565b611120565b34801561064657600080fd5b506104116106553660046149c0565b6068602052600090815260409020546001600160a01b031681565b34801561067c57600080fd5b5061044960aa5481565b34801561069257600080fd5b506104976106a1366004614ba9565b6113f4565b6104976106b43660046149dd565b61172b565b3480156106c557600080fd5b506106ce61184b565b604080519283526020830191909152016103c8565b3480156106ef57600080fd5b506104976106fe366004614c10565b6119b0565b34801561070f57600080fd5b5061049761071e366004614c7c565b611ac5565b34801561072f57600080fd5b5061049761073e366004614ccc565b611c01565b34801561074f57600080fd5b5061041161075e3660046149dd565b611de1565b34801561076f57600080fd5b5061044961077e3660046149c0565b60716020526000908152604090205481565b61049761079e366004614d86565b611dee565b3480156107af57600080fd5b5061044960a75481565b3480156107c557600080fd5b50610449611e0d565b3480156107da57600080fd5b5061044960a95481565b3480156107f057600080fd5b50610497611e3c565b34801561080557600080fd5b506104116108143660046149c0565b606f602052600090815260409020546001600160a01b031681565b34801561083b57600080fd5b5061044961084a3660046149dd565b61204d565b34801561085b57600080fd5b5060a554610411906001600160a01b031681565b34801561087b57600080fd5b50607254610898906fffffffffffffffffffffffffffffffff1681565b6040516fffffffffffffffffffffffffffffffff90911681526020016103c8565b3480156108c557600080fd5b5061044960a85481565b3480156108db57600080fd5b506103bc6108ea3660046149c0565b612071565b3480156108fb57600080fd5b5061049761090a366004614e4c565b612097565b34801561091b57600080fd5b5061041161092a3660046149c0565b6070602052600090815260409020546001600160a01b031681565b34801561095157600080fd5b506103bc6109603660046149c0565b612322565b34801561097157600080fd5b5061044961232f565b34801561098657600080fd5b506104976109953660046149c0565b612340565b3480156109a657600080fd5b506104496109b53660046149dd565b6124e8565b3480156109c657600080fd5b506104496109d53660046149dd565b612504565b3480156109e657600080fd5b506104976109f53660046149c0565b61253f565b348015610a0657600080fd5b50606654610411906001600160a01b031681565b348015610a2657600080fd5b50610a636040518060400160405280600581526020017f352e302e3000000000000000000000000000000000000000000000000000000081525081565b6040516103c89190614eb7565b348015610a7c57600080fd5b50610497610a8b366004614f08565b612732565b348015610a9c57600080fd5b50610b00610aab3660046149c0565b60696020526000908152604090205467ffffffffffffffff808216916801000000000000000081049091169070010000000000000000000000000000000090046fffffffffffffffffffffffffffffffff1683565b6040805167ffffffffffffffff94851681529390921660208401526fffffffffffffffffffffffffffffffff16908201526060016103c8565b348015610b4557600080fd5b50610497610b54366004614ba9565b6127a9565b348015610b6557600080fd5b50610b79610b743660046149c0565b6129d7565b60405167ffffffffffffffff90911681526020016103c8565b348015610b9e57600080fd5b50610449612a62565b348015610bb357600080fd5b50610497610bc2366004614f34565b612a6e565b348015610bd357600080fd5b5061044960ab5481565b348015610be957600080fd5b50600054610411906001600160a01b031681565b348015610c0957600080fd5b506103bc612b83565b348015610c1e57600080fd5b506103bc610c2d3660046149c0565b612c66565b348015610c3e57600080fd5b506103bc610c4d366004614f08565b612d6a565b348015610c5e57600080fd5b506103bc612e2f565b348015610c7357600080fd5b50610411610c823660046149dd565b612e7a565b348015610c9357600080fd5b50610449612e87565b348015610ca857600080fd5b50603354610d1a9063ffffffff8082169164010000000081049091169067ffffffffffffffff68010000000000000000820481169170010000000000000000000000000000000081049091169062ffffff78010000000000000000000000000000000000000000000000009091041685565b6040805163ffffffff968716815295909416602086015267ffffffffffffffff9283169385019390935216606083015262ffffff16608082015260a0016103c8565b348015610d6857600080fd5b50610497610d773660046149c0565b612eb2565b348015610d8857600080fd5b5060a654610411906001600160a01b031681565b348015610da857600080fd5b50610497610db73660046149c0565b613088565b60007fffffffff0000000000000000000000000000000000000000000000000000000082167fe2ab7cf2000000000000000000000000000000000000000000000000000000001480610e4f57507f01ffc9a7000000000000000000000000000000000000000000000000000000007fffffffff000000000000000000000000000000000000000000000000000000008316145b92915050565b6000610e4f606a836131a8565b600080546040517f68f8e2850000000000000000000000000000000000000000000000000000000081523360048201526001600160a01b03909116906368f8e2859060240160006040518083038186803b158015610ebf57600080fd5b505afa158015610ed3573d6000803e3d6000fd5b505050506001600160a01b03821660009081526067602052604090205462010000900460ff1615610f30576040517fb73e95e100000000000000000000000000000000000000000000000000000000815260040160405180910390fd5b6001600160a01b038281166000908152606f60205260409020541615610f82576040517f7fe8efbb00000000000000000000000000000000000000000000000000000000815260040160405180910390fd5b6001600160a01b038216600090815260676020526040902080547fffffffffffffffffffffffffffffffffffffffffffffffffffffffffff00ffff1662010000179055610fce826131ca565b9050610ffa817fffffffffffffffffffffffffffffffffffffffffffffffffffffffffffffffff613303565b6040516001600160a01b038316907faab7954e9d246b167ef88aeddad35209ca2489d95a8aeb59e288d9b19fae5a5490600090a2919050565b600061025861104183612504565b610e4f9190614fc1565b805160005b8181101561111b5761107a83828151811061106d5761106d614fd4565b6020026020010151613393565b82818151811061108c5761108c614fd4565b60209081029190910101516040517f4c4d0d730000000000000000000000000000000000000000000000000000000081523360048201526001600160a01b0390911690634c4d0d7390602401600060405180830381600087803b1580156110f257600080fd5b505af1158015611106573d6000803e3d6000fd5b505050506111148160010190565b9050611050565b505050565b6000546040517f68f8e2850000000000000000000000000000000000000000000000000000000081523360048201526001600160a01b03909116906368f8e2859060240160006040518083038186803b15801561117c57600080fd5b505afa158015611190573d6000803e3d6000fd5b5050505061025860026111a39190615003565b8263ffffffff1610156111e2576040517f7fc5120500000000000000000000000000000000000000000000000000000000815260040160405180910390fd5b6000806111ed61184b565b6040805160a08101825260335467ffffffffffffffff700100000000000000000000000000000000820481166060840152780100000000000000000000000000000000000000000000000090910462ffffff16608083015263ffffffff848116808452908a1660208401529085169282018390529395509193509091611274919042613437565b67ffffffffffffffff166060820181905262ffffff851660808301526040805163ffffffff8816815260208101929092527f15c8ad9af95537fe83718dcd140a2b725b6e190fb5e68c4f13ff38232b86b77c910160405180910390a180516033805460208401516040850151606086015160809096015163ffffffff9586167fffffffffffffffffffffffffffffffffffffffffffffffff0000000000000000909416939093176401000000009590921694909402177fffffffffffffffff00000000000000000000000000000000ffffffffffffffff166801000000000000000067ffffffffffffffff948516027fffffffffffffffff0000000000000000ffffffffffffffffffffffffffffffff16177001000000000000000000000000000000009390941692909202929092177fffffffffff000000ffffffffffffffffffffffffffffffffffffffffffffffff16780100000000000000000000000000000000000000000000000062ffffff9092169190910217905550505050565b336000908152606f60205260409020546001600160a01b031680611444576040517f412a573000000000000000000000000000000000000000000000000000000000815260040160405180910390fd5b33600090815260676020526040902054610100900460ff16611492576040517fdfac5c4a00000000000000000000000000000000000000000000000000000000815260040160405180910390fd5b3360009081526067602052604090205462010000900460ff166114e1576040517f584a793800000000000000000000000000000000000000000000000000000000815260040160405180910390fd5b33600090815260676020526040902054640100000000900460ff16611532576040517f73f7ab1e00000000000000000000000000000000000000000000000000000000815260040160405180910390fd5b670de0b6b3a76400008267ffffffffffffffff16111561157e576040517f09af09de00000000000000000000000000000000000000000000000000000000815260040160405180910390fd5b33600081815260676020908152604080832080547fffffffffffffffffffffffffffffffffffffffffffffffffffffff00ffffffff16905560698252918290208251606081018452905467ffffffffffffffff808216835268010000000000000000820416928201929092527001000000000000000000000000000000009091046fffffffffffffffffffffffffffffffff169181019190915290611622906129d7565b67ffffffffffffffff908116825283811660208084019182523360009081526069909152604090819020845181549351928601516fffffffffffffffffffffffffffffffff9081167001000000000000000000000000000000000293861668010000000000000000027fffffffffffffffffffffffffffffffff00000000000000000000000000000000909516919095161792909217929092169190911790556116cb8261344e565b604080820151815167ffffffffffffffff861681526fffffffffffffffffffffffffffffffff909116602082015233917f7dba82990ac719cd904649f1701fcda6db3c92f2ff9cd31ceed2eb989a441d31910160405180910390a2505050565b60ad5460ff1615611768576040517fbc1eb20900000000000000000000000000000000000000000000000000000000815260040160405180910390fd5b34156117d1573460aa60008282546117809190614fc1565b9091555050604051348152339073f7ab6cfaebbadfe8b5494022c4c6db776bd63b6b907ff70d5c697de7ea828df48e5c4573cb2194c659f1901f70110c52b066dcf508269060200160405180910390a35b8015611848578060a960008282546117e99190614fc1565b909155505060a65460405182815233916001600160a01b0316907ff70d5c697de7ea828df48e5c4573cb2194c659f1901f70110c52b066dcf508269060200160405180910390a360a654611848906001600160a01b031633308461347d565b50565b6040805160a08101825260335463ffffffff8082168352640100000000820416602083015268010000000000000000810467ffffffffffffffff90811693830193909352700100000000000000000000000000000000810490921660608201819052780100000000000000000000000000000000000000000000000090920462ffffff166080820152600091829190421061198d57806080015162ffffff16816020015163ffffffff168260600151611904919061501a565b61190e919061501a565b67ffffffffffffffff1642101561195657806060015167ffffffffffffffff16816080015162ffffff168260200151611947919061503b565b63ffffffff1692509250509091565b806080015162ffffff16816060015161196f919061501a565b67ffffffffffffffff16816020015163ffffffff1692509250509091565b806040015167ffffffffffffffff16816000015163ffffffff1692509250509091565b60ad5460ff16156119ed576040517fbc1eb20900000000000000000000000000000000000000000000000000000000815260040160405180910390fd5b82818114611a27576040517fccab218c00000000000000000000000000000000000000000000000000000000815260040160405180910390fd5b33600090815260ae602052604081205460a7549091611a454261204d565b905060005b84811015611aaf57600080611aa08b8b85818110611a6a57611a6a614fd4565b9050602002016020810190611a7f91906149c0565b8a8a86818110611a9157611a91614fd4565b90506020020135888888613505565b90965094505050600101611a4a565b50611abb338484613696565b5050505050505050565b805160005b81811015611bfb5760006001600160a01b031660706000858481518110611af357611af3614fd4565b6020908102919091018101516001600160a01b03908116835290820192909252604001600020541603611b52576040517f3c91aa3a00000000000000000000000000000000000000000000000000000000815260040160405180910390fd5b828181518110611b6457611b64614fd4565b60209081029190910101516040517ff7b761580000000000000000000000000000000000000000000000000000000081526001600160a01b0386811660048301523360248301529091169063f7b7615890604401600060405180830381600087803b158015611bd257600080fd5b505af1158015611be6573d6000803e3d6000fd5b50505050611bf48160010190565b9050611aca565b50505050565b7ff0c57e16840df040f15088dc2f81fe391c3923bec73e23a9662efc9c229c6a00805468010000000000000000810460ff16159067ffffffffffffffff16600081158015611c4c5750825b905060008267ffffffffffffffff166001148015611c695750303b155b905081158015611c77575080155b15611cae576040517ff92ee8a900000000000000000000000000000000000000000000000000000000815260040160405180910390fd5b84547fffffffffffffffffffffffffffffffffffffffffffffffff00000000000000001660011785558315611d0f5784547fffffffffffffffffffffffffffffffffffffffffffffff00ffffffffffffffff16680100000000000000001785555b611d1d8d8b8b8b8b8b613770565b60a680546001600160a01b03808f167fffffffffffffffffffffffff00000000000000000000000000000000000000009283161790925560a58054928e1692909116919091179055611d6e426124e8565b60ac558315611dd25784547fffffffffffffffffffffffffffffffffffffffffffffff00ffffffffffffffff168555604051600181527fc7f505b2f371ae2175ee4913f4499e1f2633a7b5936321eed1cdaeb6115181d29060200160405180910390a15b50505050505050505050505050565b6000610e4f606a83613819565b611df6613825565b611dff826138f7565b611e09828261396e565b5050565b6000611e17613a92565b507f360894a13ba1a3210667c828492db98dca3e2076cc3735a920a3ca505d382bbc90565b336000908152606f60205260409020546001600160a01b031680611e8c576040517f412a573000000000000000000000000000000000000000000000000000000000815260040160405180910390fd5b33600090815260676020526040902054610100900460ff16611eda576040517fdfac5c4a00000000000000000000000000000000000000000000000000000000815260040160405180910390fd5b3360009081526067602052604090205462010000900460ff16611f29576040517f584a793800000000000000000000000000000000000000000000000000000000815260040160405180910390fd5b33600090815260676020526040902054640100000000900460ff1615611f7b576040517f905e710700000000000000000000000000000000000000000000000000000000815260040160405180910390fd5b33600090815260676020526040902080547fffffffffffffffffffffffffffffffffffffffffffffffffffffff00ffffffff16640100000000179055607254611fd6906fffffffffffffffffffffffffffffffff1642614fc1565b33600090815260696020526040902080546fffffffffffffffffffffffffffffffff92831670010000000000000000000000000000000002921691909117905561201f81613af4565b60405133907fb6fa8b8bd5eab60f292eca876e3ef90722275b785309d84b1de113ce0b8c4e7490600090a250565b600080600061205a61184b565b91509150612069828286613b22565b949350505050565b6001600160a01b038082166000908152607060205260408120549091610e4f9116612c66565b6000546040517f445ac6330000000000000000000000000000000000000000000000000000000081523360048201526001600160a01b039091169063445ac6339060240160006040518083038186803b1580156120f357600080fd5b505afa158015612107573d6000803e3d6000fd5b505050506001600160a01b03831660009081526067602052604090205460ff161561215e576040517fef65161f00000000000000000000000000000000000000000000000000000000815260040160405180910390fd5b6001600160a01b03838116600090815260676020908152604080832080547fffffffffffffffffffffffffffffffffffffffffffffffffffffffffffff0000166101011790556068909152902080547fffffffffffffffffffffffff000000000000000000000000000000000000000016918416919091179055670de0b6b3a764000067ffffffffffffffff82161115612224576040517f09af09de00000000000000000000000000000000000000000000000000000000815260040160405180910390fd5b6001600160a01b0383811660008181526069602081815260408084208151606081018352815467ffffffffffffffff8a8116808452838701818152426fffffffffffffffffffffffffffffffff9081168689019081529a8c905298885284519051995189167001000000000000000000000000000000000299831668010000000000000000027fffffffffffffffffffffffffffffffff0000000000000000000000000000000090941692169190911791909117909516959095179055805195881686529085019190915290927f7c17fc62e6995162bad4a8b971071389b16be69a2aad3ffec7b89101ccf832f2910160405180910390a250505050565b6000610e4f606c836131a8565b600061233b606c613b4c565b905090565b6000546040517f68f8e2850000000000000000000000000000000000000000000000000000000081523360048201526001600160a01b03909116906368f8e2859060240160006040518083038186803b15801561239c57600080fd5b505afa1580156123b0573d6000803e3d6000fd5b505050506001600160a01b038181166000908152606f60205260409020541680612406576040517f412a573000000000000000000000000000000000000000000000000000000000815260040160405180910390fd5b6001600160a01b03821660009081526067602052604090205462010000900460ff1661245e576040517f584a793800000000000000000000000000000000000000000000000000000000815260040160405180910390fd5b6001600160a01b038216600090815260676020526040902080547fffffffffffffffffffffffffffffffffffffffffffffffffffffffffff00ffff1690556124a581613af4565b6124b0816000613303565b6040516001600160a01b038316907f78c8e01ebc9b1b82f14af9f3a9b6fa7bdba5e36f9e96d15ca3aebc36cf72ce8590600090a25050565b60008060006124f561184b565b91509150612069828286613437565b600080600061251161184b565b909250905060006125228386615058565b90508181816125335761253361506b565b06909403949350505050565b6000546040517f445ac6330000000000000000000000000000000000000000000000000000000081523360048201526001600160a01b039091169063445ac6339060240160006040518083038186803b15801561259b57600080fd5b505afa1580156125af573d6000803e3d6000fd5b505050506001600160a01b038181166000908152606f60205260409020541680612605576040517f412a573000000000000000000000000000000000000000000000000000000000815260040160405180910390fd5b6001600160a01b03821660009081526067602052604090205460ff16612657576040517f037c597f00000000000000000000000000000000000000000000000000000000815260040160405180910390fd5b6001600160a01b038216600090815260676020526040902054610100900460ff16156126af576040517f0c60c81000000000000000000000000000000000000000000000000000000000815260040160405180910390fd5b6001600160a01b038216600090815260676020526040902080547fffffffffffffffffffffffffffffffffffffffffffffffffffffffffffff00ff166101001790556126fa8161344e565b6040516001600160a01b038316907f333bb19eeef0621b32888db778cc7a481a89fc1d59adb2cecb59b40ef048941e90600090a25050565b60ad5460ff161561276f576040517fbc1eb20900000000000000000000000000000000000000000000000000000000815260040160405180910390fd5b33600090815260ae602052604081205460a754829161279a91869186916127954261204d565b613505565b91509150611bfb338383613696565b6127b233612c66565b6127e7576040517ead0c9500000000000000000000000000000000000000000000000000000000815260040160405180910390fd5b670de0b6b3a76400008167ffffffffffffffff161115612833576040517f09af09de00000000000000000000000000000000000000000000000000000000815260040160405180910390fd5b336000818152606960209081526040918290208251606081018452905467ffffffffffffffff808216835268010000000000000000820416928201929092527001000000000000000000000000000000009091046fffffffffffffffffffffffffffffffff1691810191909152906128aa906129d7565b67ffffffffffffffff9081168252821660208201526072546128de906fffffffffffffffffffffffffffffffff164261509a565b6fffffffffffffffffffffffffffffffff166040828101829052805167ffffffffffffffff85168152602081019290925233917f8487c9b4cda8d2ec619000dca5425e4e27d9e41543cd0f8f7c20f427fbb7a78b910160405180910390a233600090815260696020908152604091829020835181549285015193909401516fffffffffffffffffffffffffffffffff9081167001000000000000000000000000000000000267ffffffffffffffff94851668010000000000000000027fffffffffffffffffffffffffffffffff000000000000000000000000000000009094169490951693909317919091179190911691909117905550565b6001600160a01b03811660009081526069602090815260408083208151606081018352905467ffffffffffffffff808216835268010000000000000000820416938201939093527001000000000000000000000000000000009092046fffffffffffffffffffffffffffffffff169082018190524210612a5b576020015192915050565b5192915050565b600061233b606a613b4c565b6000546040517f445ac6330000000000000000000000000000000000000000000000000000000081523360048201526001600160a01b039091169063445ac6339060240160006040518083038186803b158015612aca57600080fd5b505afa158015612ade573d6000803e3d6000fd5b505050506001600160a01b038216600081815260676020908152604091829020805463010000006bffffffffffffffff00ffffff9091166c01000000000000000000000000606088901c021717905590517fffffffffffffffffffffffffffffffffffffffff000000000000000000000000841681527f6525882b4c209582fe16abd1257106636114aefe60495f27fcf096a21c8a6d34910160405180910390a25050565b6000612b8e42611033565b4210612bc6576040517f137d765400000000000000000000000000000000000000000000000000000000815260040160405180910390fd5b60ad5460ff1615612c03576040517fbc1eb20900000000000000000000000000000000000000000000000000000000815260040160405180910390fd5b60405133907fe64e289f2bf6b4f5ccbc1597d14be6638e1517b1b29e2ec5a05101f57d8d81e890600090a2612c36613b56565b60ad80547fffffffffffffffffffffffffffffffffffffffffffffffffffffffffffffff00168215179055919050565b6001600160a01b0381166000908152606760209081526040808320815160e081018352905460ff8082161515835261010082048116158015958401869052620100008304821615159484019490945263010000008204811615156060808501919091526401000000008304909116151560808401527fffffffffffffff0000000000000000000000000000000000000000000000000065010000000000830460c81b1660a08401527fffffffffffffffffffffffffffffffffffffffff0000000000000000000000006c01000000000000000000000000909204901b1660c08201529190612d55575080604001515b8015612d6357508060600151155b9392505050565b6001600160a01b038216600090815260ae6020526040812054808203612d94576001915050610e4f565b612d9e8382614fc1565b60a5546040517f70a082310000000000000000000000000000000000000000000000000000000081526001600160a01b038781166004830152909116906370a0823190602401602060405180830381865afa158015612e01573d6000803e3d6000fd5b505050506040513d601f19601f82011682018060405250810190612e2591906150c3565b1015949350505050565b60ad5460009060ff1615158103612e72576040517f3d0a971800000000000000000000000000000000000000000000000000000000815260040160405180910390fd5b612c36613b56565b6000610e4f606c83613819565b6000612e9233612322565b15612eab57503360009081526071602052604090205490565b5060ac5490565b6000546040517f445ac6330000000000000000000000000000000000000000000000000000000081523360048201526001600160a01b039091169063445ac6339060240160006040518083038186803b158015612f0e57600080fd5b505afa158015612f22573d6000803e3d6000fd5b505050506001600160a01b038116600090815260676020526040902054610100900460ff16612f7d576040517fdfac5c4a00000000000000000000000000000000000000000000000000000000815260040160405180910390fd5b6001600160a01b03808216600090815260676020908152604080832080547fffffffffffffffffffffffffffffffffffffffffffffffffffffffffffff00ff169055606f90915290205416801561305057612fd781613af4565b6066546040517f95f948dc0000000000000000000000000000000000000000000000000000000081526001600160a01b039182166004820152908216906395f948dc90602401600060405180830381600087803b15801561303757600080fd5b505af115801561304b573d6000803e3d6000fd5b505050505b6040516001600160a01b038316907ffb4ca6a2470de95e9f648557fae63380f22c4b760bd27b0571caf5977a30278a90600090a25050565b6000546040517f445ac6330000000000000000000000000000000000000000000000000000000081523360048201526001600160a01b039091169063445ac6339060240160006040518083038186803b1580156130e457600080fd5b505afa1580156130f8573d6000803e3d6000fd5b505050506001600160a01b0381166000908152606760205260409020546301000000900460ff16613155576040517f6cd6020100000000000000000000000000000000000000000000000000000000815260040160405180910390fd5b6001600160a01b03811660008181526067602052604080822080546bffffffffffffffff00ffffff169055517f5db9ee0a495bf2e6ff9c91a7834c1ba4fdd244a5e8aa4e537bd38aeae4b073aa9190a250565b6001600160a01b03811660009081526001830160205260408120541515612d63565b606e54604080517fdc5a417900000000000000000000000000000000000000000000000000000000815290516000926001600160a01b03169163dc5a4179916004808301926020929190829003018187875af115801561322e573d6000803e3d6000fd5b505050506040513d601f19601f8201168201806040525081019061325291906150dc565b6001600160a01b038084166000818152606f6020908152604080832080549587167fffffffffffffffffffffffff00000000000000000000000000000000000000009687168117909155835260709091529020805490921617905590506132ba606a82613cb1565b506040513381526001600160a01b0380831691908416907f9b8203efe7fe42185a7755b0510f87c8b693971d6a7c22520aaf683e6b1242619060200160405180910390a3919050565b60a6546040517f095ea7b30000000000000000000000000000000000000000000000000000000081526001600160a01b038481166004830152602482018490529091169063095ea7b3906044016020604051808303816000875af115801561336f573d6000803e3d6000fd5b505050506040513d601f19601f8201168201806040525081019061111b9190615109565b6001600160a01b0380821660009081526070602052604090205416806133e5576040517f3c91aa3a00000000000000000000000000000000000000000000000000000000815260040160405180910390fd5b6001600160a01b03811660009081526067602052604090205460ff16611e09576040517f037c597f00000000000000000000000000000000000000000000000000000000815260040160405180910390fd5b6000613444848484613b22565b9091019392505050565b61345781613cc6565b1561184857613467606a82613cb1565b50613473606c82613dd5565b5061184881613dea565b604080516001600160a01b0385811660248301528416604482015260648082018490528251808303909101815260849091019091526020810180517bffffffffffffffffffffffffffffffffffffffffffffffffffffffff167f23b872dd00000000000000000000000000000000000000000000000000000000179052611bfb908590613ff7565b60008061351187613393565b6040517fab3f22d50000000000000000000000000000000000000000000000000000000081523360048201526024810187905260448101849052600090819081906001600160a01b038b169063ab3f22d5906064016060604051808303816000875af1158015613585573d6000803e3d6000fd5b505050506040513d601f19601f820116820180604052508101906135a99190615124565b9250925092506135b88a612322565b1561360c57806135f4576040517f8b6f39e300000000000000000000000000000000000000000000000000000000815260040160405180910390fd5b6135fe8389615058565b945086935061368c92505050565b801561362f5761361c8389615058565b94506136288288615058565b9350613648565b6136398389614fc1565b94506136458288614fc1565b93505b6040518981526001600160a01b038b169033907fed07ca57097393e77ba36105a07f6810afc2180b72a9c02a4b0da4b51a73a6ec9060200160405180910390a35050505b9550959350505050565b6001600160a01b03838116600081815260ae60205260409081902085905560a784905560a55490517f70a082310000000000000000000000000000000000000000000000000000000081526004810192909252909116906370a0823190602401602060405180830381865afa158015613713573d6000803e3d6000fd5b505050506040513d601f19601f8201168201806040525081019061373791906150c3565b82111561111b576040517f2e0aee6200000000000000000000000000000000000000000000000000000000815260040160405180910390fd5b613778614073565b6137838684846140da565b61378b614213565b606e80547fffffffffffffffffffffffff00000000000000000000000000000000000000009081166001600160a01b039788161790915560668054909116949095169390931790935550607280547fffffffffffffffffffffffffffffffff00000000000000000000000000000000166fffffffffffffffffffffffffffffffff9092169190911790555050565b6000612d63838361421b565b306001600160a01b037f00000000000000000000000000000000000000000000000000000000000000001614806138be57507f00000000000000000000000000000000000000000000000000000000000000006001600160a01b03166138b27f360894a13ba1a3210667c828492db98dca3e2076cc3735a920a3ca505d382bbc546001600160a01b031690565b6001600160a01b031614155b156138f5576040517fe07c8dba00000000000000000000000000000000000000000000000000000000815260040160405180910390fd5b565b6000546040517f68f8e2850000000000000000000000000000000000000000000000000000000081523360048201526001600160a01b03909116906368f8e2859060240160006040518083038186803b15801561395357600080fd5b505afa158015613967573d6000803e3d6000fd5b5050505050565b816001600160a01b03166352d1902d6040518163ffffffff1660e01b8152600401602060405180830381865afa9250505080156139e6575060408051601f3d9081017fffffffffffffffffffffffffffffffffffffffffffffffffffffffffffffffe01682019092526139e3918101906150c3565b60015b613a2c576040517f4c9c8ce30000000000000000000000000000000000000000000000000000000081526001600160a01b03831660048201526024015b60405180910390fd5b7f360894a13ba1a3210667c828492db98dca3e2076cc3735a920a3ca505d382bbc8114613a88576040517faa1d49a400000000000000000000000000000000000000000000000000000000815260048101829052602401613a23565b61111b8383614245565b306001600160a01b037f000000000000000000000000000000000000000000000000000000000000000016146138f5576040517fe07c8dba00000000000000000000000000000000000000000000000000000000815260040160405180910390fd5b613afd81612322565b61184857613b0c606c82613cb1565b50613b18606a82613dd5565b506118488161429b565b600080613b2f8584615058565b9050838181613b4057613b4061506b565b06909303949350505050565b6000610e4f825490565b60a85460ab546000919082613b69612a62565b90506000613b8182613b7c601486614fc1565b61436f565b60a95460aa5460a75460ac549394509192909190600080613ba061184b565b915091505b86891015613bdb57613bc4613bb98a611de1565b878787878787614385565b613bce908b614fc1565b9950600189019850613ba5565b60405133907fcc320ee5dbf17441226d664c195a950e95eef67dc4dbebde435456c5389b427e90600090a2878703613c965760405133907f2e0a637781c44a621d21ae02c97a62860799594e47e453e0491eb348ebf83bff90600090a2600060ab81905560aa81905560a981905560ad80547fffffffffffffffffffffffffffffffffffffffffffffffffffffffffffffff0016905560a85560a78a9055613c82426124e8565b60ac555060019a9950505050505050505050565b50505060ab9590955550505060a89290925550600092915050565b6000612d63836001600160a01b038416614505565b6001600160a01b03808216600090815260706020908152604080832054909316825260678152828220835160e081018552905460ff8082161515835261010082048116158015948401859052620100008304821615159684019690965263010000008204811615156060808501919091526401000000008304909116151560808401527fffffffffffffff0000000000000000000000000000000000000000000000000065010000000000830460c81b1660a08401527fffffffffffffffffffffffffffffffffffffffff0000000000000000000000006c01000000000000000000000000909204901b1660c08201529192613dc3575080604001515b8015612d635750608001511592915050565b6000612d63836001600160a01b038416614554565b60ad5460ff1615613e27576040517fbc1eb20900000000000000000000000000000000000000000000000000000000815260040160405180910390fd5b4260ac5411613e62576040517fd0f0904700000000000000000000000000000000000000000000000000000000815260040160405180910390fd5b60ac546001600160a01b0382166000908152607160205260409020541015613f6457600080613e8f61184b565b6001600160a01b0385166000818152607160205260408082205490517fa505626a0000000000000000000000000000000000000000000000000000000081526004810183905260248101839052604481019190915260648101859052608481018490529395509193509163a505626a919060a40160206040518083038185885af1158015613f21573d6000803e3d6000fd5b50505050506040513d601f19601f82011682018060405250810190613f4691906150c3565b60a76000828254613f579190614fc1565b90915550613fdd92505050565b806001600160a01b031663e52595466040518163ffffffff1660e01b8152600401602060405180830381865afa158015613fa2573d6000803e3d6000fd5b505050506040513d601f19601f82011682018060405250810190613fc691906150c3565b60a76000828254613fd79190614fc1565b90915550505b6001600160a01b0316600090815260716020526040812055565b600061400c6001600160a01b0384168361464e565b9050805160001415801561403157508080602001905181019061402f9190615109565b155b1561111b576040517f5274afe70000000000000000000000000000000000000000000000000000000081526001600160a01b0384166004820152602401613a23565b7ff0c57e16840df040f15088dc2f81fe391c3923bec73e23a9662efc9c229c6a005468010000000000000000900460ff166138f5576040517fd7e6bcf800000000000000000000000000000000000000000000000000000000815260040160405180910390fd5b6140e2614073565b6140eb8361465c565b6040805160a0810182526033805463ffffffff959095168083526020830181905267ffffffffffffffff42169383018490526060830184905262ffffff9490941660809092018290527fffffffffffffffffffffffffffffffffffffffffffffffff00000000000000009094168317640100000000909302929092177fffffffffffffffff00000000000000000000000000000000ffffffffffffffff166801000000000000000082027fffffffffffffffff0000000000000000ffffffffffffffffffffffffffffffff1617700100000000000000000000000000000000909102177fffffffffff000000ffffffffffffffffffffffffffffffffffffffffffffffff16780100000000000000000000000000000000000000000000000090910217905550565b6138f5614073565b600082600001828154811061423257614232614fd4565b9060005260206000200154905092915050565b61424e826146a6565b6040516001600160a01b038316907fbc7cd75a20ee27fd9adebab32041f755214dbc6bffa90cc0225b39da2e5c2d3b90600090a28051156142935761111b828261474e565b611e096147c4565b60ad5460ff16156142d8576040517fbc1eb20900000000000000000000000000000000000000000000000000000000815260040160405180910390fd5b806001600160a01b031663e52595466040518163ffffffff1660e01b8152600401602060405180830381865afa158015614316573d6000803e3d6000fd5b505050506040513d601f19601f8201168201806040525081019061433a91906150c3565b60a7600082825461434b9190615058565b909155505060ac546001600160a01b03909116600090815260716020526040902055565b600081831061437e5781612d63565b5090919050565b600080886001600160a01b031663e52595466040518163ffffffff1660e01b8152600401602060405180830381865afa1580156143c6573d6000803e3d6000fd5b505050506040513d601f19601f820116820180604052508101906143ea91906150c3565b90506000866143f98a84615003565b6144039190615150565b90506000876144128a85615003565b61441c9190615150565b6001600160a01b03808d166000908152607060205260408120549293509161444491166129d7565b6040517fa505626a0000000000000000000000000000000000000000000000000000000081526004810185905267ffffffffffffffff9190911660248201819052604482018a9052606482018990526084820188905291506001600160a01b038d169063a505626a90849060a40160206040518083038185885af11580156144d0573d6000803e3d6000fd5b50505050506040513d601f19601f820116820180604052508101906144f591906150c3565b9c9b505050505050505050505050565b600081815260018301602052604081205461454c57508154600181810184556000848152602080822090930184905584548482528286019093526040902091909155610e4f565b506000610e4f565b6000818152600183016020526040812054801561463d576000614578600183615058565b855490915060009061458c90600190615058565b90508082146145f15760008660000182815481106145ac576145ac614fd4565b90600052602060002001549050808760000184815481106145cf576145cf614fd4565b6000918252602080832090910192909255918252600188019052604090208390555b85548690806146025761460261518b565b600190038181906000526020600020016000905590558560010160008681526020019081526020016000206000905560019350505050610e4f565b6000915050610e4f565b5092915050565b6060612d63838360006147fc565b614664614073565b61466c614213565b600080547fffffffffffffffffffffffff0000000000000000000000000000000000000000166001600160a01b0392909216919091179055565b806001600160a01b03163b6000036146f5576040517f4c9c8ce30000000000000000000000000000000000000000000000000000000081526001600160a01b0382166004820152602401613a23565b7f360894a13ba1a3210667c828492db98dca3e2076cc3735a920a3ca505d382bbc80547fffffffffffffffffffffffff0000000000000000000000000000000000000000166001600160a01b0392909216919091179055565b6060600080846001600160a01b03168460405161476b91906151ba565b600060405180830381855af49150503d80600081146147a6576040519150601f19603f3d011682016040523d82523d6000602084013e6147ab565b606091505b50915091506147bb8583836148b2565b95945050505050565b34156138f5576040517fb398979f00000000000000000000000000000000000000000000000000000000815260040160405180910390fd5b60608147101561483a576040517fcd786059000000000000000000000000000000000000000000000000000000008152306004820152602401613a23565b600080856001600160a01b0316848660405161485691906151ba565b60006040518083038185875af1925050503d8060008114614893576040519150601f19603f3d011682016040523d82523d6000602084013e614898565b606091505b50915091506148a88683836148b2565b9695505050505050565b6060826148c7576148c282614927565b612d63565b81511580156148de57506001600160a01b0384163b155b15614920576040517f9996b3150000000000000000000000000000000000000000000000000000000081526001600160a01b0385166004820152602401613a23565b5080612d63565b8051156149375780518082602001fd5b6040517f1425ea4200000000000000000000000000000000000000000000000000000000815260040160405180910390fd5b60006020828403121561497b57600080fd5b81357fffffffff0000000000000000000000000000000000000000000000000000000081168114612d6357600080fd5b6001600160a01b038116811461184857600080fd5b6000602082840312156149d257600080fd5b8135612d63816149ab565b6000602082840312156149ef57600080fd5b5035919050565b7f4e487b7100000000000000000000000000000000000000000000000000000000600052604160045260246000fd5b604051601f82017fffffffffffffffffffffffffffffffffffffffffffffffffffffffffffffffe016810167ffffffffffffffff81118282101715614a6c57614a6c6149f6565b604052919050565b600082601f830112614a8557600080fd5b8135602067ffffffffffffffff821115614aa157614aa16149f6565b8160051b614ab0828201614a25565b9283528481018201928281019087851115614aca57600080fd5b83870192505b84831015614af2578235614ae3816149ab565b82529183019190830190614ad0565b979650505050505050565b600060208284031215614b0f57600080fd5b813567ffffffffffffffff811115614b2657600080fd5b61206984828501614a74565b803563ffffffff81168114614b4657600080fd5b919050565b803562ffffff81168114614b4657600080fd5b60008060408385031215614b7157600080fd5b614b7a83614b32565b9150614b8860208401614b4b565b90509250929050565b803567ffffffffffffffff81168114614b4657600080fd5b600060208284031215614bbb57600080fd5b612d6382614b91565b60008083601f840112614bd657600080fd5b50813567ffffffffffffffff811115614bee57600080fd5b6020830191508360208260051b8501011115614c0957600080fd5b9250929050565b60008060008060408587031215614c2657600080fd5b843567ffffffffffffffff80821115614c3e57600080fd5b614c4a88838901614bc4565b90965094506020870135915080821115614c6357600080fd5b50614c7087828801614bc4565b95989497509550505050565b60008060408385031215614c8f57600080fd5b8235614c9a816149ab565b9150602083013567ffffffffffffffff811115614cb657600080fd5b614cc285828601614a74565b9150509250929050565b600080600080600080600080610100898b031215614ce957600080fd5b8835614cf4816149ab565b97506020890135614d04816149ab565b96506040890135614d14816149ab565b95506060890135614d24816149ab565b94506080890135614d34816149ab565b9350614d4260a08a01614b32565b9250614d5060c08a01614b4b565b915060e08901356fffffffffffffffffffffffffffffffff81168114614d7557600080fd5b809150509295985092959890939650565b60008060408385031215614d9957600080fd5b8235614da4816149ab565b915060208381013567ffffffffffffffff80821115614dc257600080fd5b818601915086601f830112614dd657600080fd5b813581811115614de857614de86149f6565b614e18847fffffffffffffffffffffffffffffffffffffffffffffffffffffffffffffffe0601f84011601614a25565b91508082528784828501011115614e2e57600080fd5b80848401858401376000848284010152508093505050509250929050565b600080600060608486031215614e6157600080fd5b8335614e6c816149ab565b92506020840135614e7c816149ab565b9150614e8a60408501614b91565b90509250925092565b60005b83811015614eae578181015183820152602001614e96565b50506000910152565b6020815260008251806020840152614ed6816040850160208701614e93565b601f017fffffffffffffffffffffffffffffffffffffffffffffffffffffffffffffffe0169190910160400192915050565b60008060408385031215614f1b57600080fd5b8235614f26816149ab565b946020939093013593505050565b60008060408385031215614f4757600080fd5b8235614f52816149ab565b915060208301357fffffffffffffffffffffffffffffffffffffffff00000000000000000000000081168114614f8757600080fd5b809150509250929050565b7f4e487b7100000000000000000000000000000000000000000000000000000000600052601160045260246000fd5b80820180821115610e4f57610e4f614f92565b7f4e487b7100000000000000000000000000000000000000000000000000000000600052603260045260246000fd5b8082028115828204841417610e4f57610e4f614f92565b67ffffffffffffffff81811683821601908082111561464757614647614f92565b63ffffffff81811683821601908082111561464757614647614f92565b81810381811115610e4f57610e4f614f92565b7f4e487b7100000000000000000000000000000000000000000000000000000000600052601260045260246000fd5b6fffffffffffffffffffffffffffffffff81811683821601908082111561464757614647614f92565b6000602082840312156150d557600080fd5b5051919050565b6000602082840312156150ee57600080fd5b8151612d63816149ab565b80518015158114614b4657600080fd5b60006020828403121561511b57600080fd5b612d63826150f9565b60008060006060848603121561513957600080fd5b8351925060208401519150614e8a604085016150f9565b600082615186577f4e487b7100000000000000000000000000000000000000000000000000000000600052601260045260246000fd5b500490565b7f4e487b7100000000000000000000000000000000000000000000000000000000600052603160045260246000fd5b600082516151cc818460208701614e93565b919091019291505056fea164736f6c6343000814000a",
  "devdoc": {
    "version": 1,
    "kind": "dev",
    "methods": {
      "activateBuilder(address,address,uint64)": {
        "details": "reverts if it is not called by the owner address reverts if it is already activated",
        "params": {
          "builder_": "address of the builder",
          "rewardPercentage_": "reward percentage(100% == 1 ether)",
          "rewardReceiver_": "address of the builder reward receiver"
        }
      },
      "allocate(address,uint256)": {
        "details": "reverts if it is called during the distribution period  reverts if gauge does not have a builder associated",
        "params": {
          "allocation_": "amount of votes to allocate",
          "gauge_": "address of the gauge where the votes will be allocated"
        }
      },
      "allocateBatch(address[],uint256[])": {
        "details": "reverts if it is called during the distribution period  reverts if gauge does not have a builder associated",
        "params": {
          "allocations_": "array of amount of votes to allocate",
          "gauges_": "array of gauges where the votes will be allocated"
        }
      },
      "approveBuilderKYC(address)": {
        "details": "reverts if it is not called by the owner address reverts if it is not activated reverts if it is already KYC approved reverts if it does not have a gauge associated",
        "params": {
          "builder_": "address of the builder"
        }
      },
      "canWithdraw(address,uint256)": {
        "params": {
          "targetAddress_": "address who wants to withdraw stakingToken",
          "value_": "amount of stakingToken to withdraw"
        }
      },
      "claimBackerRewards(address,address[])": {
        "params": {
          "gauges_": "array of gauges to claim",
          "rewardToken_": "address of the token rewarded  address(uint160(uint256(keccak256(\"COINBASE_ADDRESS\")))) is used for coinbase address"
        }
      },
      "claimBackerRewards(address[])": {
        "params": {
          "gauges_": "array of gauges to claim"
        }
      },
      "constructor": {},
      "cycleNext(uint256)": {
        "params": {
          "timestamp_": "timestamp to calculate"
        },
        "returns": {
          "_0": "cycleNext timestamp when the cycle ends or the next starts"
        }
      },
      "cycleStart(uint256)": {
        "params": {
          "timestamp_": "timestamp to calculate"
        },
        "returns": {
          "_0": "cycleStart timestamp when the cycle starts"
        }
      },
      "dewhitelistBuilder(address)": {
        "details": "reverts if it is not called by the governor address or authorized changer reverts if it does not have a gauge associated reverts if it is not whitelisted",
        "params": {
          "builder_": "address of the builder"
        }
      },
      "distribute()": {
        "details": "reverts if distribution period has not yet started  This function is paginated and it finishes once all gauges distribution are completed,  ending the distribution period and voting restrictions.",
        "returns": {
          "finished_": "true if distribution has finished"
        }
      },
      "endDistributionWindow(uint256)": {
        "params": {
          "timestamp_": "timestamp to calculate"
        },
        "returns": {
          "_0": "endDistributionWindow timestamp when the cycle distribution ends"
        }
      },
      "getRewardPercentageToApply(address)": {
        "params": {
          "builder_": "address of the builder"
        }
      },
      "initialize(address,address,address,address,address,uint32,uint24,uint128)": {
        "params": {
          "cycleDuration_": "Collective Rewards cycle time duration",
          "cycleStartOffset_": "offset to add to the first cycle, used to set an specific day to start the cycles",
          "gaugeFactory_": "address of the GaugeFactoryRootstockCollective contract",
          "governanceManager_": "contract with permissioned roles",
          "rewardDistributor_": "address of the rewardDistributor contract",
          "rewardPercentageCooldown_": "time that must elapse for a new reward percentage from a builder to be applied",
          "rewardToken_": "address of the token rewarded to builder and voters",
          "stakingToken_": "address of the staking token for builder and voters"
        }
      },
      "notifyRewardAmount(uint256)": {
        "details": "reverts if it is called during the distribution period"
      },
      "pauseBuilder(address,bytes20)": {
        "details": "reverts if it is not called by the owner address",
        "params": {
          "builder_": "address of the builder",
          "reason_": "reason for the pause"
        }
      },
      "permitBuilder(uint64)": {
        "details": "reverts if it does not have a gauge associated  reverts if it is not KYC approved  reverts if it is not whitelisted  reverts if it is not revoked  reverts if it is executed in distribution period because changing the totalPotentialReward produce a miscalculation of rewards",
        "params": {
          "rewardPercentage_": "reward percentage(100% == 1 ether)"
        }
      },
      "proxiableUUID()": {
        "details": "Implementation of the ERC1822 {proxiableUUID} function. This returns the storage slot used by the implementation. It is used to validate the implementation's compatibility when performing an upgrade. IMPORTANT: A proxy pointing at a proxiable contract should not be considered proxiable itself, because this risks bricking a proxy that upgrades to it, by delegating to itself until out of gas. Thus it is critical that this function revert if invoked through a proxy. This is guaranteed by the `notDelegated` modifier."
      },
      "revokeBuilder()": {
        "details": "reverts if it does not have a gauge associated  reverts if it is not KYC approved  reverts if it is not whitelisted  reverts if it is already revoked  reverts if it is executed in distribution period because changing the totalPotentialReward produce a miscalculation of rewards"
      },
      "revokeBuilderKYC(address)": {
        "details": "reverts if it is not called by the owner address reverts if it is not KYC approved",
        "params": {
          "builder_": "address of the builder"
        }
      },
      "setBuilderRewardPercentage(uint64)": {
        "details": "reverts if builder is not operational",
        "params": {
          "rewardPercentage_": "reward percentage(100% == 1 ether)"
        }
      },
      "setCycleDuration(uint32,uint24)": {
        "details": "reverts if is too short. It must be greater than 2 time the distribution window",
        "params": {
          "cycleStartOffset_": "offset to add to the first cycle, used to set an specific day to start the cycles",
          "newCycleDuration_": "new cycle duration"
        }
      },
      "startDistribution()": {
        "details": "reverts if is called outside the distribution window  reverts if it is called during the distribution period",
        "returns": {
          "finished_": "true if distribution has finished"
        }
      },
      "supportsInterface(bytes4)": {
        "details": "See {IERC165-supportsInterface}."
      },
      "timeUntilNextCycle(uint256)": {
        "params": {
          "timestamp_": "timestamp to calculate"
        },
        "returns": {
          "_0": "timeUntilNextCycle amount of time until next cycle"
        }
      },
      "unpauseBuilder(address)": {
        "details": "reverts if it is not called by the owner address reverts if it is not paused",
        "params": {
          "builder_": "address of the builder"
        }
      },
      "upgradeToAndCall(address,bytes)": {
        "details": "Upgrade the implementation of the proxy to `newImplementation`, and subsequently execute the function call encoded in `data`. Calls {_authorizeUpgrade}. Emits an {Upgraded} event."
      },
      "whitelistBuilder(address)": {
        "details": "reverts if it is not called by the governor address or authorized changer reverts if is already whitelisted reverts if it has a gauge associated",
        "params": {
          "builder_": "address of the builder"
        },
        "returns": {
          "gauge_": "gauge contract"
        }
      }
    },
    "events": {
      "Initialized(uint64)": {
        "details": "Triggered when the contract has been initialized or reinitialized."
      },
      "Upgraded(address)": {
        "details": "Emitted when the implementation is upgraded."
      }
    },
    "errors": {
      "AddressEmptyCode(address)": [
        {
          "details": "There's no code at `target` (it is not a contract)."
        }
      ],
      "AddressInsufficientBalance(address)": [
        {
          "details": "The ETH balance of the account is not enough to perform the operation."
        }
      ],
      "ERC1967InvalidImplementation(address)": [
        {
          "details": "The `implementation` of the proxy is invalid."
        }
      ],
      "ERC1967NonPayable()": [
        {
          "details": "An upgrade function sees `msg.value > 0` that may be lost."
        }
      ],
      "FailedInnerCall()": [
        {
          "details": "A call to an address target failed. The target may have reverted."
        }
      ],
      "InvalidInitialization()": [
        {
          "details": "The contract is already initialized."
        }
      ],
      "NotInitializing()": [
        {
          "details": "The contract is not initializing."
        }
      ],
      "SafeERC20FailedOperation(address)": [
        {
          "details": "An operation with an ERC20 token failed."
        }
      ],
      "UUPSUnauthorizedCallContext()": [
        {
          "details": "The call is from an unauthorized context."
        }
      ],
      "UUPSUnsupportedProxiableUUID(bytes32)": [
        {
          "details": "The storage `slot` is unsupported as a UUID."
        }
      ]
    },
    "title": "BackersManagerRootstockCollective"
  },
  "numDeployments": 2,
  "solcInputHash": "0x0000000000000000000000000000000000000000000000000000000000000000",
  "storageLayout": {
    "storage": [
      {
        "astId": 60150,
        "contract": "src/BackersManagerRootstockCollective.sol:BackersManagerRootstockCollective",
        "label": "governanceManager",
        "offset": 0,
        "slot": "0",
        "type": "t_contract(IGovernanceManagerRootstockCollective)60407"
      },
      {
        "astId": 60182,
        "contract": "src/BackersManagerRootstockCollective.sol:BackersManagerRootstockCollective",
        "label": "__gap",
        "offset": 0,
        "slot": "1",
        "type": "t_array(t_uint256)50_storage"
      },
      {
        "astId": 57932,
        "contract": "src/BackersManagerRootstockCollective.sol:BackersManagerRootstockCollective",
        "label": "cycleData",
        "offset": 0,
        "slot": "51",
        "type": "t_struct(CycleData)57928_storage"
      },
      {
        "astId": 58266,
        "contract": "src/BackersManagerRootstockCollective.sol:BackersManagerRootstockCollective",
        "label": "__gap",
        "offset": 0,
        "slot": "52",
        "type": "t_array(t_uint256)50_storage"
      },
      {
        "astId": 56747,
        "contract": "src/BackersManagerRootstockCollective.sol:BackersManagerRootstockCollective",
        "label": "rewardDistributor",
        "offset": 0,
        "slot": "102",
        "type": "t_address"
      },
      {
        "astId": 56753,
        "contract": "src/BackersManagerRootstockCollective.sol:BackersManagerRootstockCollective",
        "label": "builderState",
        "offset": 0,
        "slot": "103",
        "type": "t_mapping(t_address,t_struct(BuilderState)56737_storage)"
      },
      {
        "astId": 56758,
        "contract": "src/BackersManagerRootstockCollective.sol:BackersManagerRootstockCollective",
        "label": "builderRewardReceiver",
        "offset": 0,
        "slot": "104",
        "type": "t_mapping(t_address,t_address)"
      },
      {
        "astId": 56764,
        "contract": "src/BackersManagerRootstockCollective.sol:BackersManagerRootstockCollective",
        "label": "builderRewardPercentage",
        "offset": 0,
        "slot": "105",
        "type": "t_mapping(t_address,t_struct(RewardPercentageData)56744_storage)"
      },
      {
        "astId": 56768,
        "contract": "src/BackersManagerRootstockCollective.sol:BackersManagerRootstockCollective",
        "label": "_gauges",
        "offset": 0,
        "slot": "106",
        "type": "t_struct(AddressSet)4717_storage"
      },
      {
        "astId": 56772,
        "contract": "src/BackersManagerRootstockCollective.sol:BackersManagerRootstockCollective",
        "label": "_haltedGauges",
        "offset": 0,
        "slot": "108",
        "type": "t_struct(AddressSet)4717_storage"
      },
      {
        "astId": 56776,
        "contract": "src/BackersManagerRootstockCollective.sol:BackersManagerRootstockCollective",
        "label": "gaugeFactory",
        "offset": 0,
        "slot": "110",
        "type": "t_contract(GaugeFactoryRootstockCollective)58557"
      },
      {
        "astId": 56782,
        "contract": "src/BackersManagerRootstockCollective.sol:BackersManagerRootstockCollective",
        "label": "builderToGauge",
        "offset": 0,
        "slot": "111",
        "type": "t_mapping(t_address,t_contract(GaugeRootstockCollective)59831)"
      },
      {
        "astId": 56788,
        "contract": "src/BackersManagerRootstockCollective.sol:BackersManagerRootstockCollective",
        "label": "gaugeToBuilder",
        "offset": 0,
        "slot": "112",
        "type": "t_mapping(t_contract(GaugeRootstockCollective)59831,t_address)"
      },
      {
        "astId": 56794,
        "contract": "src/BackersManagerRootstockCollective.sol:BackersManagerRootstockCollective",
        "label": "haltedGaugeLastPeriodFinish",
        "offset": 0,
        "slot": "113",
        "type": "t_mapping(t_contract(GaugeRootstockCollective)59831,t_uint256)"
      },
      {
        "astId": 56797,
        "contract": "src/BackersManagerRootstockCollective.sol:BackersManagerRootstockCollective",
        "label": "rewardPercentageCooldown",
        "offset": 0,
        "slot": "114",
        "type": "t_uint128"
      },
      {
        "astId": 57891,
        "contract": "src/BackersManagerRootstockCollective.sol:BackersManagerRootstockCollective",
        "label": "__gap",
        "offset": 0,
        "slot": "115",
        "type": "t_array(t_uint256)50_storage"
      },
      {
        "astId": 55642,
        "contract": "src/BackersManagerRootstockCollective.sol:BackersManagerRootstockCollective",
        "label": "stakingToken",
        "offset": 0,
        "slot": "165",
        "type": "t_contract(IERC20)2025"
      },
      {
        "astId": 55645,
        "contract": "src/BackersManagerRootstockCollective.sol:BackersManagerRootstockCollective",
        "label": "rewardToken",
        "offset": 0,
        "slot": "166",
        "type": "t_address"
      },
      {
        "astId": 55648,
        "contract": "src/BackersManagerRootstockCollective.sol:BackersManagerRootstockCollective",
        "label": "totalPotentialReward",
        "offset": 0,
        "slot": "167",
        "type": "t_uint256"
      },
      {
        "astId": 55651,
        "contract": "src/BackersManagerRootstockCollective.sol:BackersManagerRootstockCollective",
        "label": "tempTotalPotentialReward",
        "offset": 0,
        "slot": "168",
        "type": "t_uint256"
      },
      {
        "astId": 55654,
        "contract": "src/BackersManagerRootstockCollective.sol:BackersManagerRootstockCollective",
        "label": "rewardsERC20",
        "offset": 0,
        "slot": "169",
        "type": "t_uint256"
      },
      {
        "astId": 55657,
        "contract": "src/BackersManagerRootstockCollective.sol:BackersManagerRootstockCollective",
        "label": "rewardsCoinbase",
        "offset": 0,
        "slot": "170",
        "type": "t_uint256"
      },
      {
        "astId": 55660,
        "contract": "src/BackersManagerRootstockCollective.sol:BackersManagerRootstockCollective",
        "label": "indexLastGaugeDistributed",
        "offset": 0,
        "slot": "171",
        "type": "t_uint256"
      },
      {
        "astId": 55663,
        "contract": "src/BackersManagerRootstockCollective.sol:BackersManagerRootstockCollective",
        "label": "_periodFinish",
        "offset": 0,
        "slot": "172",
        "type": "t_uint256"
      },
      {
        "astId": 55666,
        "contract": "src/BackersManagerRootstockCollective.sol:BackersManagerRootstockCollective",
        "label": "onDistributionPeriod",
        "offset": 0,
        "slot": "173",
        "type": "t_bool"
      },
      {
        "astId": 55671,
        "contract": "src/BackersManagerRootstockCollective.sol:BackersManagerRootstockCollective",
        "label": "backerTotalAllocation",
        "offset": 0,
        "slot": "174",
        "type": "t_mapping(t_address,t_uint256)"
      },
      {
        "astId": 56587,
        "contract": "src/BackersManagerRootstockCollective.sol:BackersManagerRootstockCollective",
        "label": "__gap",
        "offset": 0,
        "slot": "175",
        "type": "t_array(t_uint256)50_storage"
      }
    ],
    "types": {
      "t_address": {
        "encoding": "inplace",
        "label": "address",
        "numberOfBytes": "20"
      },
      "t_array(t_bytes32)dyn_storage": {
        "encoding": "dynamic_array",
        "label": "bytes32[]",
        "numberOfBytes": "32",
        "base": "t_bytes32"
      },
      "t_array(t_uint256)50_storage": {
        "encoding": "inplace",
        "label": "uint256[50]",
        "numberOfBytes": "1600",
        "base": "t_uint256"
      },
      "t_bool": {
        "encoding": "inplace",
        "label": "bool",
        "numberOfBytes": "1"
      },
      "t_bytes20": {
        "encoding": "inplace",
        "label": "bytes20",
        "numberOfBytes": "20"
      },
      "t_bytes32": {
        "encoding": "inplace",
        "label": "bytes32",
        "numberOfBytes": "32"
      },
      "t_bytes7": {
        "encoding": "inplace",
        "label": "bytes7",
        "numberOfBytes": "7"
      },
      "t_contract(GaugeFactoryRootstockCollective)58557": {
        "encoding": "inplace",
        "label": "contract GaugeFactoryRootstockCollective",
        "numberOfBytes": "20"
      },
      "t_contract(GaugeRootstockCollective)59831": {
        "encoding": "inplace",
        "label": "contract GaugeRootstockCollective",
        "numberOfBytes": "20"
      },
      "t_contract(IERC20)2025": {
        "encoding": "inplace",
        "label": "contract IERC20",
        "numberOfBytes": "20"
      },
      "t_contract(IGovernanceManagerRootstockCollective)60407": {
        "encoding": "inplace",
        "label": "contract IGovernanceManagerRootstockCollective",
        "numberOfBytes": "20"
      },
      "t_mapping(t_address,t_address)": {
        "encoding": "mapping",
        "key": "t_address",
        "label": "mapping(address => address)",
        "numberOfBytes": "32",
        "value": "t_address"
      },
      "t_mapping(t_address,t_contract(GaugeRootstockCollective)59831)": {
        "encoding": "mapping",
        "key": "t_address",
        "label": "mapping(address => contract GaugeRootstockCollective)",
        "numberOfBytes": "32",
        "value": "t_contract(GaugeRootstockCollective)59831"
      },
      "t_mapping(t_address,t_struct(BuilderState)56737_storage)": {
        "encoding": "mapping",
        "key": "t_address",
        "label": "mapping(address => struct BuilderRegistryRootstockCollective.BuilderState)",
        "numberOfBytes": "32",
        "value": "t_struct(BuilderState)56737_storage"
      },
      "t_mapping(t_address,t_struct(RewardPercentageData)56744_storage)": {
        "encoding": "mapping",
        "key": "t_address",
        "label": "mapping(address => struct BuilderRegistryRootstockCollective.RewardPercentageData)",
        "numberOfBytes": "32",
        "value": "t_struct(RewardPercentageData)56744_storage"
      },
      "t_mapping(t_address,t_uint256)": {
        "encoding": "mapping",
        "key": "t_address",
        "label": "mapping(address => uint256)",
        "numberOfBytes": "32",
        "value": "t_uint256"
      },
      "t_mapping(t_bytes32,t_uint256)": {
        "encoding": "mapping",
        "key": "t_bytes32",
        "label": "mapping(bytes32 => uint256)",
        "numberOfBytes": "32",
        "value": "t_uint256"
      },
      "t_mapping(t_contract(GaugeRootstockCollective)59831,t_address)": {
        "encoding": "mapping",
        "key": "t_contract(GaugeRootstockCollective)59831",
        "label": "mapping(contract GaugeRootstockCollective => address)",
        "numberOfBytes": "32",
        "value": "t_address"
      },
      "t_mapping(t_contract(GaugeRootstockCollective)59831,t_uint256)": {
        "encoding": "mapping",
        "key": "t_contract(GaugeRootstockCollective)59831",
        "label": "mapping(contract GaugeRootstockCollective => uint256)",
        "numberOfBytes": "32",
        "value": "t_uint256"
      },
      "t_struct(AddressSet)4717_storage": {
        "encoding": "inplace",
        "label": "struct EnumerableSet.AddressSet",
        "numberOfBytes": "64",
        "members": [
          {
            "astId": 4716,
            "contract": "src/BackersManagerRootstockCollective.sol:BackersManagerRootstockCollective",
            "label": "_inner",
            "offset": 0,
            "slot": "0",
            "type": "t_struct(Set)4402_storage"
          }
        ]
      },
      "t_struct(BuilderState)56737_storage": {
        "encoding": "inplace",
        "label": "struct BuilderRegistryRootstockCollective.BuilderState",
        "numberOfBytes": "32",
        "members": [
          {
            "astId": 56724,
            "contract": "src/BackersManagerRootstockCollective.sol:BackersManagerRootstockCollective",
            "label": "activated",
            "offset": 0,
            "slot": "0",
            "type": "t_bool"
          },
          {
            "astId": 56726,
            "contract": "src/BackersManagerRootstockCollective.sol:BackersManagerRootstockCollective",
            "label": "kycApproved",
            "offset": 1,
            "slot": "0",
            "type": "t_bool"
          },
          {
            "astId": 56728,
            "contract": "src/BackersManagerRootstockCollective.sol:BackersManagerRootstockCollective",
            "label": "whitelisted",
            "offset": 2,
            "slot": "0",
            "type": "t_bool"
          },
          {
            "astId": 56730,
            "contract": "src/BackersManagerRootstockCollective.sol:BackersManagerRootstockCollective",
            "label": "paused",
            "offset": 3,
            "slot": "0",
            "type": "t_bool"
          },
          {
            "astId": 56732,
            "contract": "src/BackersManagerRootstockCollective.sol:BackersManagerRootstockCollective",
            "label": "revoked",
            "offset": 4,
            "slot": "0",
            "type": "t_bool"
          },
          {
            "astId": 56734,
            "contract": "src/BackersManagerRootstockCollective.sol:BackersManagerRootstockCollective",
            "label": "reserved",
            "offset": 5,
            "slot": "0",
            "type": "t_bytes7"
          },
          {
            "astId": 56736,
            "contract": "src/BackersManagerRootstockCollective.sol:BackersManagerRootstockCollective",
            "label": "pausedReason",
            "offset": 12,
            "slot": "0",
            "type": "t_bytes20"
          }
        ]
      },
      "t_struct(CycleData)57928_storage": {
        "encoding": "inplace",
        "label": "struct CycleTimeKeeperRootstockCollective.CycleData",
        "numberOfBytes": "32",
        "members": [
          {
            "astId": 57919,
            "contract": "src/BackersManagerRootstockCollective.sol:BackersManagerRootstockCollective",
            "label": "previousDuration",
            "offset": 0,
            "slot": "0",
            "type": "t_uint32"
          },
          {
            "astId": 57921,
            "contract": "src/BackersManagerRootstockCollective.sol:BackersManagerRootstockCollective",
            "label": "nextDuration",
            "offset": 4,
            "slot": "0",
            "type": "t_uint32"
          },
          {
            "astId": 57923,
            "contract": "src/BackersManagerRootstockCollective.sol:BackersManagerRootstockCollective",
            "label": "previousStart",
            "offset": 8,
            "slot": "0",
            "type": "t_uint64"
          },
          {
            "astId": 57925,
            "contract": "src/BackersManagerRootstockCollective.sol:BackersManagerRootstockCollective",
            "label": "nextStart",
            "offset": 16,
            "slot": "0",
            "type": "t_uint64"
          },
          {
            "astId": 57927,
            "contract": "src/BackersManagerRootstockCollective.sol:BackersManagerRootstockCollective",
            "label": "offset",
            "offset": 24,
            "slot": "0",
            "type": "t_uint24"
          }
        ]
      },
      "t_struct(RewardPercentageData)56744_storage": {
        "encoding": "inplace",
        "label": "struct BuilderRegistryRootstockCollective.RewardPercentageData",
        "numberOfBytes": "32",
        "members": [
          {
            "astId": 56739,
            "contract": "src/BackersManagerRootstockCollective.sol:BackersManagerRootstockCollective",
            "label": "previous",
            "offset": 0,
            "slot": "0",
            "type": "t_uint64"
          },
          {
            "astId": 56741,
            "contract": "src/BackersManagerRootstockCollective.sol:BackersManagerRootstockCollective",
            "label": "next",
            "offset": 8,
            "slot": "0",
            "type": "t_uint64"
          },
          {
            "astId": 56743,
            "contract": "src/BackersManagerRootstockCollective.sol:BackersManagerRootstockCollective",
            "label": "cooldownEndTime",
            "offset": 16,
            "slot": "0",
            "type": "t_uint128"
          }
        ]
      },
      "t_struct(Set)4402_storage": {
        "encoding": "inplace",
        "label": "struct EnumerableSet.Set",
        "numberOfBytes": "64",
        "members": [
          {
            "astId": 4397,
            "contract": "src/BackersManagerRootstockCollective.sol:BackersManagerRootstockCollective",
            "label": "_values",
            "offset": 0,
            "slot": "0",
            "type": "t_array(t_bytes32)dyn_storage"
          },
          {
            "astId": 4401,
            "contract": "src/BackersManagerRootstockCollective.sol:BackersManagerRootstockCollective",
            "label": "_positions",
            "offset": 0,
            "slot": "1",
            "type": "t_mapping(t_bytes32,t_uint256)"
          }
        ]
      },
      "t_uint128": {
        "encoding": "inplace",
        "label": "uint128",
        "numberOfBytes": "16"
      },
      "t_uint24": {
        "encoding": "inplace",
        "label": "uint24",
        "numberOfBytes": "3"
      },
      "t_uint256": {
        "encoding": "inplace",
        "label": "uint256",
        "numberOfBytes": "32"
      },
      "t_uint32": {
        "encoding": "inplace",
        "label": "uint32",
        "numberOfBytes": "4"
      },
      "t_uint64": {
        "encoding": "inplace",
        "label": "uint64",
        "numberOfBytes": "8"
      }
    }
  },
  "transactionHash": "0x5e98c30c4b451ffeaa9daff9e0594a5c95163de6743889fc240c2c53a33f525a",
  "userdoc": {
    "version": 1,
    "kind": "user",
    "methods": {
      "activateBuilder(address,address,uint64)": {
        "notice": "activates builder for the first time, setting the reward receiver and the reward percentage  Sets activate flag to true. It cannot be switched to false anymore"
      },
      "allocate(address,uint256)": {
        "notice": "allocates votes for a gauge"
      },
      "allocateBatch(address[],uint256[])": {
        "notice": "allocates votes for a batch of gauges"
      },
      "approveBuilderKYC(address)": {
        "notice": "approves builder's KYC after a revocation"
      },
      "backerTotalAllocation(address)": {
        "notice": "total amount of stakingToken allocated by a backer"
      },
      "builderRewardPercentage(address)": {
        "notice": "map of builders reward percentage data"
      },
      "builderRewardReceiver(address)": {
        "notice": "map of builders reward receiver"
      },
      "builderState(address)": {
        "notice": "map of builders state"
      },
      "builderToGauge(address)": {
        "notice": "gauge contract for a builder"
      },
      "canWithdraw(address,uint256)": {
        "notice": "returns true if can withdraw, remaining balance should exceed the current allocation"
      },
      "claimBackerRewards(address,address[])": {
        "notice": "claims backer rewards from a batch of gauges"
      },
      "claimBackerRewards(address[])": {
        "notice": "claims backer rewards from a batch of gauges"
      },
      "cycleData()": {
        "notice": "cycle data"
      },
      "cycleNext(uint256)": {
        "notice": "gets when an cycle ends or the next one starts based on given `timestamp_`"
      },
      "cycleStart(uint256)": {
        "notice": "gets when an cycle starts based on given `timestamp_`"
      },
      "dewhitelistBuilder(address)": {
        "notice": "de-whitelist builder"
      },
      "distribute()": {
        "notice": "continues pagination to distribute accumulated reward tokens to the gauges"
      },
      "endDistributionWindow(uint256)": {
        "notice": "gets when an cycle distribution ends based on given `timestamp_`"
      },
      "gaugeFactory()": {
        "notice": "gauge factory contract address"
      },
      "gaugeToBuilder(address)": {
        "notice": "builder address for a gauge contract"
      },
      "getCycleStartAndDuration()": {
        "notice": "returns cycle start and duration  If there is a new one and cooldown time has expired, apply that one; otherwise, apply the previous one"
      },
      "getGaugeAt(uint256)": {
        "notice": "get gauge from array at a given index"
      },
      "getGaugesLength()": {
        "notice": "get length of gauges array"
      },
      "getHaltedGaugeAt(uint256)": {
        "notice": "get halted gauge from array at a given index"
      },
      "getHaltedGaugesLength()": {
        "notice": "get length of halted gauges array"
      },
      "getRewardPercentageToApply(address)": {
        "notice": "returns reward percentage to apply.  If there is a new one and cooldown time has expired, apply that one; otherwise, apply the previous one"
      },
      "haltedGaugeLastPeriodFinish(address)": {
        "notice": "map of last period finish for halted gauges"
      },
      "indexLastGaugeDistributed()": {
        "notice": "index of tha last gauge distributed during a distribution period"
      },
      "initialize(address,address,address,address,address,uint32,uint24,uint128)": {
        "notice": "contract initializer"
      },
      "isBuilderOperational(address)": {
        "notice": "return true if builder is operational  kycApproved == true &&  whitelisted == true &&  paused == false"
      },
      "isBuilderPaused(address)": {
        "notice": "return true if builder is paused"
      },
      "isGaugeHalted(address)": {
        "notice": "return true is gauge is halted"
      },
      "isGaugeOperational(address)": {
        "notice": "return true if gauge is operational  kycApproved == true &&  whitelisted == true &&  paused == false"
      },
      "isGaugeRewarded(address)": {
        "notice": "return true is gauge is rewarded"
      },
      "notifyRewardAmount(uint256)": {
        "notice": "transfers reward tokens from the sender to be distributed to the gauges"
      },
      "onDistributionPeriod()": {
        "notice": "true if distribution period started. Allocations remain blocked until it finishes"
      },
      "pauseBuilder(address,bytes20)": {
        "notice": "pause builder"
      },
      "periodFinish()": {
        "notice": "returns timestamp end of current rewards period  If it is called by a halted gauge returns the timestamp of the last period distributed  This is important because unclaimed rewards must stop accumulating rewards and halted gauges  are not updated on the distribution anymore"
      },
      "permitBuilder(uint64)": {
        "notice": "permit builder"
      },
      "revokeBuilder()": {
        "notice": "revoke builder"
      },
      "revokeBuilderKYC(address)": {
        "notice": "revokes builder's KYC and sent builder unclaimed rewards to rewardDistributor contract"
      },
      "rewardDistributor()": {
        "notice": "reward distributor address. If a builder is KYC revoked their unclaimed rewards will sent back here"
      },
      "rewardPercentageCooldown()": {
        "notice": "time that must elapse for a new reward percentage from a builder to be applied"
      },
      "rewardToken()": {
        "notice": "address of the token rewarded to builder and voters"
      },
      "rewardsCoinbase()": {
        "notice": "Coinbase rewards to distribute [N]"
      },
      "rewardsERC20()": {
        "notice": "ERC20 rewards to distribute [N]"
      },
      "setBuilderRewardPercentage(uint64)": {
        "notice": "set a builder reward percentage"
      },
      "setCycleDuration(uint32,uint24)": {
        "notice": "schedule a new cycle duration. It will be applied for the next cycle"
      },
      "stakingToken()": {
        "notice": "address of the token used to stake"
      },
      "startDistribution()": {
        "notice": "starts the distribution period blocking all the allocations  until all the gauges were distributed"
      },
      "tempTotalPotentialReward()": {
        "notice": "on a paginated distribution we need to temporarily store the totalPotentialReward"
      },
      "timeUntilNextCycle(uint256)": {
        "notice": "gets time left until the next cycle based on given `timestamp_`"
      },
      "totalPotentialReward()": {
        "notice": "total potential reward"
      },
      "unpauseBuilder(address)": {
        "notice": "unpause builder"
      },
      "whitelistBuilder(address)": {
        "notice": "whitelist builder and create its gauge"
      }
    },
    "notice": "Creates gauges, manages backers votes and distribute rewards"
  }
}