{
  "abi": [
    {
      "type": "constructor",
      "inputs": [],
      "stateMutability": "nonpayable"
    },
    {
      "type": "function",
      "name": "UPGRADE_INTERFACE_VERSION",
      "inputs": [],
      "outputs": [
        {
          "name": "",
          "type": "string",
          "internalType": "string"
        }
      ],
      "stateMutability": "view"
    },
    {
      "type": "function",
      "name": "executeChange",
      "inputs": [
        {
          "name": "changeContract_",
          "type": "address",
          "internalType": "contract IChangeContractRootstockCollective"
        }
      ],
      "outputs": [],
      "stateMutability": "nonpayable"
    },
    {
      "type": "function",
      "name": "foundationTreasury",
      "inputs": [],
      "outputs": [
        {
          "name": "",
          "type": "address",
          "internalType": "address"
        }
      ],
      "stateMutability": "view"
    },
    {
      "type": "function",
      "name": "governor",
      "inputs": [],
      "outputs": [
        {
          "name": "",
          "type": "address",
          "internalType": "address"
        }
      ],
      "stateMutability": "view"
    },
    {
      "type": "function",
      "name": "initialize",
      "inputs": [
        {
          "name": "governor_",
          "type": "address",
          "internalType": "address"
        },
        {
          "name": "foundationTreasury_",
          "type": "address",
          "internalType": "address"
        },
        {
          "name": "kycApprover_",
          "type": "address",
          "internalType": "address"
        }
      ],
      "outputs": [],
      "stateMutability": "nonpayable"
    },
    {
      "type": "function",
      "name": "kycApprover",
      "inputs": [],
      "outputs": [
        {
          "name": "",
          "type": "address",
          "internalType": "address"
        }
      ],
      "stateMutability": "view"
    },
    {
      "type": "function",
      "name": "proxiableUUID",
      "inputs": [],
      "outputs": [
        {
          "name": "",
          "type": "bytes32",
          "internalType": "bytes32"
        }
      ],
      "stateMutability": "view"
    },
    {
      "type": "function",
      "name": "updateFoundationTreasury",
      "inputs": [
        {
          "name": "foundationTreasury_",
          "type": "address",
          "internalType": "address"
        }
      ],
      "outputs": [],
      "stateMutability": "nonpayable"
    },
    {
      "type": "function",
      "name": "updateGovernor",
      "inputs": [
        {
          "name": "governor_",
          "type": "address",
          "internalType": "address"
        }
      ],
      "outputs": [],
      "stateMutability": "nonpayable"
    },
    {
      "type": "function",
      "name": "updateKYCApprover",
      "inputs": [
        {
          "name": "kycApprover_",
          "type": "address",
          "internalType": "address"
        }
      ],
      "outputs": [],
      "stateMutability": "nonpayable"
    },
    {
      "type": "function",
      "name": "upgradeToAndCall",
      "inputs": [
        {
          "name": "newImplementation",
          "type": "address",
          "internalType": "address"
        },
        {
          "name": "data",
          "type": "bytes",
          "internalType": "bytes"
        }
      ],
      "outputs": [],
      "stateMutability": "payable"
    },
    {
      "type": "function",
      "name": "validateChanger",
      "inputs": [
        {
          "name": "account_",
          "type": "address",
          "internalType": "address"
        }
      ],
      "outputs": [],
      "stateMutability": "view"
    },
    {
      "type": "function",
      "name": "validateFoundationTreasury",
      "inputs": [
        {
          "name": "account_",
          "type": "address",
          "internalType": "address"
        }
      ],
      "outputs": [],
      "stateMutability": "view"
    },
    {
      "type": "function",
      "name": "validateGovernor",
      "inputs": [
        {
          "name": "account_",
          "type": "address",
          "internalType": "address"
        }
      ],
      "outputs": [],
      "stateMutability": "view"
    },
    {
      "type": "function",
      "name": "validateKycApprover",
      "inputs": [
        {
          "name": "account_",
          "type": "address",
          "internalType": "address"
        }
      ],
      "outputs": [],
      "stateMutability": "view"
    },
    {
      "type": "event",
      "name": "Initialized",
      "inputs": [
        {
          "name": "version",
          "type": "uint64",
          "indexed": false,
          "internalType": "uint64"
        }
      ],
      "anonymous": false
    },
    {
      "type": "event",
      "name": "Upgraded",
      "inputs": [
        {
          "name": "implementation",
          "type": "address",
          "indexed": true,
          "internalType": "address"
        }
      ],
      "anonymous": false
    },
    {
      "type": "error",
      "name": "AddressEmptyCode",
      "inputs": [
        {
          "name": "target",
          "type": "address",
          "internalType": "address"
        }
      ]
    },
    {
      "type": "error",
      "name": "ERC1967InvalidImplementation",
      "inputs": [
        {
          "name": "implementation",
          "type": "address",
          "internalType": "address"
        }
      ]
    },
    {
      "type": "error",
      "name": "ERC1967NonPayable",
      "inputs": []
    },
    {
      "type": "error",
      "name": "FailedInnerCall",
      "inputs": []
    },
    {
      "type": "error",
      "name": "InvalidAddress",
      "inputs": [
        {
          "name": "account_",
          "type": "address",
          "internalType": "address"
        }
      ]
    },
    {
      "type": "error",
      "name": "InvalidInitialization",
      "inputs": []
    },
    {
      "type": "error",
      "name": "NotAuthorizedChanger",
      "inputs": []
    },
    {
      "type": "error",
      "name": "NotFoundationTreasury",
      "inputs": []
    },
    {
      "type": "error",
      "name": "NotGovernor",
      "inputs": []
    },
    {
      "type": "error",
      "name": "NotInitializing",
      "inputs": []
    },
    {
      "type": "error",
      "name": "NotKycApprover",
      "inputs": []
    },
    {
      "type": "error",
      "name": "UUPSUnauthorizedCallContext",
      "inputs": []
    },
    {
      "type": "error",
      "name": "UUPSUnsupportedProxiableUUID",
      "inputs": [
        {
          "name": "slot",
          "type": "bytes32",
          "internalType": "bytes32"
        }
      ]
    }
  ],
  "address": "0x71b9EBa04b180B61798A7B8d7ca1516Ef50d1767",
  "args": [],
  "bytecode": "0x60a06040523060805234801561001457600080fd5b5061001d610022565b6100d4565b7ff0c57e16840df040f15088dc2f81fe391c3923bec73e23a9662efc9c229c6a00805468010000000000000000900460ff16156100725760405163f92ee8a960e01b815260040160405180910390fd5b80546001600160401b03908116146100d15780546001600160401b0319166001600160401b0390811782556040519081527fc7f505b2f371ae2175ee4913f4499e1f2633a7b5936321eed1cdaeb6115181d29060200160405180910390a15b50565b6080516112526100fd6000396000818161097e015281816109a70152610bcb01526112526000f3fe6080604052600436106100e65760003560e01c806352d1902d1161008a578063ad3cb1cc11610059578063ad3cb1cc14610287578063c0c53b8b146102dd578063ce7ee5ac146102fd578063e053dd611461032a57600080fd5b806352d1902d1461020457806362f384ad1461022757806368f8e285146102475780638c777e821461026757600080fd5b806312811d94116100c657806312811d94146101915780633f80fbf7146101b1578063445ac633146101d15780634f1ef286146101f157600080fd5b806212851a146100eb578062c4e39c1461010d5780630c340a2414610164575b600080fd5b3480156100f757600080fd5b5061010b610106366004611022565b61034a565b005b34801561011957600080fd5b5060035461013a9073ffffffffffffffffffffffffffffffffffffffff1681565b60405173ffffffffffffffffffffffffffffffffffffffff90911681526020015b60405180910390f35b34801561017057600080fd5b5060005461013a9073ffffffffffffffffffffffffffffffffffffffff1681565b34801561019d57600080fd5b5061010b6101ac366004611022565b61035f565b3480156101bd57600080fd5b5061010b6101cc366004611022565b6103b3565b3480156101dd57600080fd5b5061010b6101ec366004611022565b6103c5565b61010b6101ff36600461106e565b610419565b34801561021057600080fd5b50610219610438565b60405190815260200161015b565b34801561023357600080fd5b5061010b610242366004611022565b610467565b34801561025357600080fd5b5061010b610262366004611022565b610479565b34801561027357600080fd5b5061010b610282366004611022565b6104f6565b34801561029357600080fd5b506102d06040518060400160405280600581526020017f352e302e3000000000000000000000000000000000000000000000000000000081525081565b60405161015b9190611174565b3480156102e957600080fd5b5061010b6102f83660046111c5565b610615565b34801561030957600080fd5b5060025461013a9073ffffffffffffffffffffffffffffffffffffffff1681565b34801561033657600080fd5b5061010b610345366004611022565b6107b1565b61035333610479565b61035c81610805565b50565b60005473ffffffffffffffffffffffffffffffffffffffff82811691161461035c576040517fee3675d400000000000000000000000000000000000000000000000000000000815260040160405180910390fd5b6103bc33610479565b61035c816108b8565b60035473ffffffffffffffffffffffffffffffffffffffff82811691161461035c576040517fc01ef51700000000000000000000000000000000000000000000000000000000815260040160405180910390fd5b610421610966565b61042a82610a6c565b6104348282610a75565b5050565b6000610442610bb3565b507f360894a13ba1a3210667c828492db98dca3e2076cc3735a920a3ca505d382bbc90565b61047033610479565b61035c81610c22565b60015473ffffffffffffffffffffffffffffffffffffffff8281169116148015906104bf575060005473ffffffffffffffffffffffffffffffffffffffff828116911614155b1561035c576040517f7746c6d400000000000000000000000000000000000000000000000000000000815260040160405180910390fd5b60005473ffffffffffffffffffffffffffffffffffffffff163314610547576040517fee3675d400000000000000000000000000000000000000000000000000000000815260040160405180910390fd5b600180547fffffffffffffffffffffffff00000000000000000000000000000000000000001673ffffffffffffffffffffffffffffffffffffffff83161790558073ffffffffffffffffffffffffffffffffffffffff1663614619546040518163ffffffff1660e01b8152600401600060405180830381600087803b1580156105cf57600080fd5b505af11580156105e3573d6000803e3d6000fd5b5050600180547fffffffffffffffffffffffff00000000000000000000000000000000000000001690555061035c9050565b7ff0c57e16840df040f15088dc2f81fe391c3923bec73e23a9662efc9c229c6a00805468010000000000000000810460ff16159067ffffffffffffffff166000811580156106605750825b905060008267ffffffffffffffff16600114801561067d5750303b155b90508115801561068b575080155b156106c2576040517ff92ee8a900000000000000000000000000000000000000000000000000000000815260040160405180910390fd5b84547fffffffffffffffffffffffffffffffffffffffffffffffff000000000000000016600117855583156107235784547fffffffffffffffffffffffffffffffffffffffffffffff00ffffffffffffffff16680100000000000000001785555b61072b610cd0565b61073488610c22565b61073d876108b8565b61074686610805565b83156107a75784547fffffffffffffffffffffffffffffffffffffffffffffff00ffffffffffffffff168555604051600181527fc7f505b2f371ae2175ee4913f4499e1f2633a7b5936321eed1cdaeb6115181d29060200160405180910390a15b5050505050505050565b60025473ffffffffffffffffffffffffffffffffffffffff82811691161461035c576040517f2887a65400000000000000000000000000000000000000000000000000000000815260040160405180910390fd5b8073ffffffffffffffffffffffffffffffffffffffff8116610870576040517f8e4c8aa600000000000000000000000000000000000000000000000000000000815273ffffffffffffffffffffffffffffffffffffffff821660048201526024015b60405180910390fd5b50600380547fffffffffffffffffffffffff00000000000000000000000000000000000000001673ffffffffffffffffffffffffffffffffffffffff92909216919091179055565b8073ffffffffffffffffffffffffffffffffffffffff811661091e576040517f8e4c8aa600000000000000000000000000000000000000000000000000000000815273ffffffffffffffffffffffffffffffffffffffff82166004820152602401610867565b50600280547fffffffffffffffffffffffff00000000000000000000000000000000000000001673ffffffffffffffffffffffffffffffffffffffff92909216919091179055565b3073ffffffffffffffffffffffffffffffffffffffff7f0000000000000000000000000000000000000000000000000000000000000000161480610a3357507f000000000000000000000000000000000000000000000000000000000000000073ffffffffffffffffffffffffffffffffffffffff16610a1a7f360894a13ba1a3210667c828492db98dca3e2076cc3735a920a3ca505d382bbc5473ffffffffffffffffffffffffffffffffffffffff1690565b73ffffffffffffffffffffffffffffffffffffffff1614155b15610a6a576040517fe07c8dba00000000000000000000000000000000000000000000000000000000815260040160405180910390fd5b565b61035c33610479565b8173ffffffffffffffffffffffffffffffffffffffff166352d1902d6040518163ffffffff1660e01b8152600401602060405180830381865afa925050508015610afa575060408051601f3d9081017fffffffffffffffffffffffffffffffffffffffffffffffffffffffffffffffe0168201909252610af791810190611210565b60015b610b48576040517f4c9c8ce300000000000000000000000000000000000000000000000000000000815273ffffffffffffffffffffffffffffffffffffffff83166004820152602401610867565b7f360894a13ba1a3210667c828492db98dca3e2076cc3735a920a3ca505d382bbc8114610ba4576040517faa1d49a400000000000000000000000000000000000000000000000000000000815260048101829052602401610867565b610bae8383610cd8565b505050565b3073ffffffffffffffffffffffffffffffffffffffff7f00000000000000000000000000000000000000000000000000000000000000001614610a6a576040517fe07c8dba00000000000000000000000000000000000000000000000000000000815260040160405180910390fd5b8073ffffffffffffffffffffffffffffffffffffffff8116610c88576040517f8e4c8aa600000000000000000000000000000000000000000000000000000000815273ffffffffffffffffffffffffffffffffffffffff82166004820152602401610867565b50600080547fffffffffffffffffffffffff00000000000000000000000000000000000000001673ffffffffffffffffffffffffffffffffffffffff92909216919091179055565b610a6a610d3b565b610ce182610da2565b60405173ffffffffffffffffffffffffffffffffffffffff8316907fbc7cd75a20ee27fd9adebab32041f755214dbc6bffa90cc0225b39da2e5c2d3b90600090a2805115610d3357610bae8282610e71565b610434610ef4565b7ff0c57e16840df040f15088dc2f81fe391c3923bec73e23a9662efc9c229c6a005468010000000000000000900460ff16610a6a576040517fd7e6bcf800000000000000000000000000000000000000000000000000000000815260040160405180910390fd5b8073ffffffffffffffffffffffffffffffffffffffff163b600003610e0b576040517f4c9c8ce300000000000000000000000000000000000000000000000000000000815273ffffffffffffffffffffffffffffffffffffffff82166004820152602401610867565b7f360894a13ba1a3210667c828492db98dca3e2076cc3735a920a3ca505d382bbc80547fffffffffffffffffffffffff00000000000000000000000000000000000000001673ffffffffffffffffffffffffffffffffffffffff92909216919091179055565b60606000808473ffffffffffffffffffffffffffffffffffffffff1684604051610e9b9190611229565b600060405180830381855af49150503d8060008114610ed6576040519150601f19603f3d011682016040523d82523d6000602084013e610edb565b606091505b5091509150610eeb858383610f2c565b95945050505050565b3415610a6a576040517fb398979f00000000000000000000000000000000000000000000000000000000815260040160405180910390fd5b606082610f4157610f3c82610fbe565b610fb7565b8151158015610f65575073ffffffffffffffffffffffffffffffffffffffff84163b155b15610fb4576040517f9996b31500000000000000000000000000000000000000000000000000000000815273ffffffffffffffffffffffffffffffffffffffff85166004820152602401610867565b50805b9392505050565b805115610fce5780518082602001fd5b6040517f1425ea4200000000000000000000000000000000000000000000000000000000815260040160405180910390fd5b73ffffffffffffffffffffffffffffffffffffffff8116811461035c57600080fd5b60006020828403121561103457600080fd5b8135610fb781611000565b7f4e487b7100000000000000000000000000000000000000000000000000000000600052604160045260246000fd5b6000806040838503121561108157600080fd5b823561108c81611000565b9150602083013567ffffffffffffffff808211156110a957600080fd5b818501915085601f8301126110bd57600080fd5b8135818111156110cf576110cf61103f565b604051601f82017fffffffffffffffffffffffffffffffffffffffffffffffffffffffffffffffe0908116603f011681019083821181831017156111155761111561103f565b8160405282815288602084870101111561112e57600080fd5b8260208601602083013760006020848301015280955050505050509250929050565b60005b8381101561116b578181015183820152602001611153565b50506000910152565b6020815260008251806020840152611193816040850160208701611150565b601f017fffffffffffffffffffffffffffffffffffffffffffffffffffffffffffffffe0169190910160400192915050565b6000806000606084860312156111da57600080fd5b83356111e581611000565b925060208401356111f581611000565b9150604084013561120581611000565b809150509250925092565b60006020828403121561122257600080fd5b5051919050565b6000825161123b818460208701611150565b919091019291505056fea164736f6c6343000814000a",
  "devdoc": {
    "version": 1,
    "kind": "dev",
    "details": "This contract is upgradeable via the UUPS proxy pattern.",
    "methods": {
      "constructor": {},
      "executeChange(address)": {
        "details": "reverts if is not called by the Governor",
        "params": {
          "changeContract_": "Address of the contract that will execute the changes"
        }
      },
      "initialize(address,address,address)": {
        "details": "Used instead of a constructor for upgradeable contracts.",
        "params": {
          "foundationTreasury_": "The initial foundation treasury address.",
          "governor_": "The initial governor address.",
          "kycApprover_": "The initial KYC approver address."
        }
      },
      "proxiableUUID()": {
        "details": "Implementation of the ERC1822 {proxiableUUID} function. This returns the storage slot used by the implementation. It is used to validate the implementation's compatibility when performing an upgrade. IMPORTANT: A proxy pointing at a proxiable contract should not be considered proxiable itself, because this risks bricking a proxy that upgrades to it, by delegating to itself until out of gas. Thus it is critical that this function revert if invoked through a proxy. This is guaranteed by the `notDelegated` modifier."
      },
      "updateFoundationTreasury(address)": {
        "details": "Only callable by the governor. Reverts if the new address is invalid.",
        "params": {
          "foundationTreasury_": "The new foundation treasury address."
        }
      },
      "updateGovernor(address)": {
        "details": "Reverts if caller is not the current governor.",
        "params": {
          "governor_": "The new governor address."
        }
      },
      "updateKYCApprover(address)": {
        "details": "Only callable by the governor. Reverts if the new address is invalid.",
        "params": {
          "kycApprover_": "The new KYC approver address."
        }
      },
      "upgradeToAndCall(address,bytes)": {
        "details": "Upgrade the implementation of the proxy to `newImplementation`, and subsequently execute the function call encoded in `data`. Calls {_authorizeUpgrade}. Emits an {Upgraded} event."
      },
      "validateChanger(address)": {
        "details": "Reverts with `NotAuthorizedChanger` if the account is not the authorized changer or governor.",
        "params": {
          "account_": "The address to be validated."
        }
      },
      "validateFoundationTreasury(address)": {
        "details": "Reverts with `NotFoundationTreasury` if the caller is not the foundation treasury."
      },
      "validateGovernor(address)": {
        "details": "Reverts with `NotGovernor` if the account is not the governor.",
        "params": {
          "account_": "The address to be validated."
        }
      },
      "validateKycApprover(address)": {
        "details": "Reverts with `NotKycApprover` if the account is not the KYC approver.",
        "params": {
          "account_": "The address to be validated."
        }
      }
    },
    "events": {
      "Initialized(uint64)": {
        "details": "Triggered when the contract has been initialized or reinitialized."
      },
      "Upgraded(address)": {
        "details": "Emitted when the implementation is upgraded."
      }
    },
    "errors": {
      "AddressEmptyCode(address)": [
        {
          "details": "There's no code at `target` (it is not a contract)."
        }
      ],
      "ERC1967InvalidImplementation(address)": [
        {
          "details": "The `implementation` of the proxy is invalid."
        }
      ],
      "ERC1967NonPayable()": [
        {
          "details": "An upgrade function sees `msg.value > 0` that may be lost."
        }
      ],
      "FailedInnerCall()": [
        {
          "details": "A call to an address target failed. The target may have reverted."
        }
      ],
      "InvalidAddress(address)": [
        {
          "params": {
            "account_": "The invalid address provided."
          }
        }
      ],
      "InvalidInitialization()": [
        {
          "details": "The contract is already initialized."
        }
      ],
      "NotInitializing()": [
        {
          "details": "The contract is not initializing."
        }
      ],
      "UUPSUnauthorizedCallContext()": [
        {
          "details": "The call is from an unauthorized context."
        }
      ],
      "UUPSUnsupportedProxiableUUID(bytes32)": [
        {
          "details": "The storage `slot` is unsupported as a UUID."
        }
      ]
    },
    "title": "GovernanceManagerRootstockCollective"
  },
  "numDeployments": 2,
  "solcInputHash": "0x0000000000000000000000000000000000000000000000000000000000000000",
  "storageLayout": {
    "storage": [
      {
        "astId": 59885,
        "contract": "src/governance/GovernanceManagerRootstockCollective.sol:GovernanceManagerRootstockCollective",
        "label": "governor",
        "offset": 0,
        "slot": "0",
        "type": "t_address"
      },
      {
        "astId": 59888,
        "contract": "src/governance/GovernanceManagerRootstockCollective.sol:GovernanceManagerRootstockCollective",
        "label": "_authorizedChanger",
        "offset": 0,
        "slot": "1",
        "type": "t_address"
      },
      {
        "astId": 59891,
        "contract": "src/governance/GovernanceManagerRootstockCollective.sol:GovernanceManagerRootstockCollective",
        "label": "foundationTreasury",
        "offset": 0,
        "slot": "2",
        "type": "t_address"
      },
      {
        "astId": 59894,
        "contract": "src/governance/GovernanceManagerRootstockCollective.sol:GovernanceManagerRootstockCollective",
        "label": "kycApprover",
        "offset": 0,
        "slot": "3",
        "type": "t_address"
      },
      {
        "astId": 60126,
        "contract": "src/governance/GovernanceManagerRootstockCollective.sol:GovernanceManagerRootstockCollective",
        "label": "__gap",
        "offset": 0,
        "slot": "4",
        "type": "t_array(t_uint256)50_storage"
      }
    ],
    "types": {
      "t_address": {
        "encoding": "inplace",
        "label": "address",
        "numberOfBytes": "20"
      },
      "t_array(t_uint256)50_storage": {
        "encoding": "inplace",
        "label": "uint256[50]",
        "numberOfBytes": "1600",
        "base": "t_uint256"
      },
      "t_uint256": {
        "encoding": "inplace",
        "label": "uint256",
        "numberOfBytes": "32"
      }
    }
  },
  "transactionHash": "0x91bbb7dbd26efae743a37dc82d0b79dd3b0d22ac8991ce8146b9fad64e707f6d",
  "userdoc": {
    "version": 1,
    "kind": "user",
    "methods": {
      "executeChange(address)": {
        "notice": "Function to be called to make the changes in changeContract"
      },
      "foundationTreasury()": {
        "notice": "The address of the foundation treasury."
      },
      "governor()": {
        "notice": "The address of the governor."
      },
      "initialize(address,address,address)": {
        "notice": "Initializes the contract with the initial governor, foundation treasury, and KYC approver."
      },
      "kycApprover()": {
        "notice": "The address of the KYC approver."
      },
      "updateFoundationTreasury(address)": {
        "notice": "Allows the governor to update the foundation treasury address."
      },
      "updateGovernor(address)": {
        "notice": "Allows the governor to update its own role to a new address."
      },
      "updateKYCApprover(address)": {
        "notice": "Allows the governor to update the KYC approver address."
      },
      "validateChanger(address)": {
        "notice": "Validates if an account is authorized to perform changes."
      },
      "validateFoundationTreasury(address)": {
        "notice": "Validates if the caller is the foundation treasury."
      },
      "validateGovernor(address)": {
        "notice": "Validates if an account is authorized as the governor."
      },
      "validateKycApprover(address)": {
        "notice": "Validates if an account is authorized as the KYC approver."
      }
    },
    "errors": {
      "InvalidAddress(address)": [
        {
          "notice": "Thrown when an invalid address is provided."
        }
      ],
      "NotAuthorizedChanger()": [
        {
          "notice": "Thrown when the caller is not authorized as a changer."
        }
      ],
      "NotFoundationTreasury()": [
        {
          "notice": "Thrown when the caller is not the foundation treasury."
        }
      ],
      "NotGovernor()": [
        {
          "notice": "Thrown when the caller is not the governor."
        }
      ],
      "NotKycApprover()": [
        {
          "notice": "Thrown when the caller is not the KYC approver."
        }
      ]
    },
    "notice": "This contract manages governance addresses.It also allows the governor to execute contracts that implement the IChangeContractRootstockCollective interface."
  }
}