{
  "abi": [
    {
      "type": "constructor",
      "inputs": [],
      "stateMutability": "nonpayable"
    },
    {
      "type": "receive",
      "stateMutability": "payable"
    },
    {
      "type": "function",
      "name": "UPGRADE_INTERFACE_VERSION",
      "inputs": [],
      "outputs": [
        {
          "name": "",
          "type": "string",
          "internalType": "string"
        }
      ],
      "stateMutability": "view"
    },
    {
      "type": "function",
      "name": "backersManager",
      "inputs": [],
      "outputs": [
        {
          "name": "",
          "type": "address",
          "internalType": "contract BackersManagerRootstockCollective"
        }
      ],
      "stateMutability": "view"
    },
    {
      "type": "function",
      "name": "defaultRewardCoinbaseAmount",
      "inputs": [],
      "outputs": [
        {
          "name": "",
          "type": "uint256",
          "internalType": "uint256"
        }
      ],
      "stateMutability": "view"
    },
    {
      "type": "function",
      "name": "defaultRewardTokenAmount",
      "inputs": [],
      "outputs": [
        {
          "name": "",
          "type": "uint256",
          "internalType": "uint256"
        }
      ],
      "stateMutability": "view"
    },
    {
      "type": "function",
      "name": "governanceManager",
      "inputs": [],
      "outputs": [
        {
          "name": "",
          "type": "address",
          "internalType": "contract IGovernanceManagerRootstockCollective"
        }
      ],
      "stateMutability": "view"
    },
    {
      "type": "function",
      "name": "initialize",
      "inputs": [
        {
          "name": "governanceManager_",
          "type": "address",
          "internalType": "contract IGovernanceManagerRootstockCollective"
        }
      ],
      "outputs": [],
      "stateMutability": "nonpayable"
    },
    {
      "type": "function",
      "name": "initializeCollectiveRewardsAddresses",
      "inputs": [
        {
          "name": "backersManager_",
          "type": "address",
          "internalType": "address"
        }
      ],
      "outputs": [],
      "stateMutability": "nonpayable"
    },
    {
      "type": "function",
      "name": "proxiableUUID",
      "inputs": [],
      "outputs": [
        {
          "name": "",
          "type": "bytes32",
          "internalType": "bytes32"
        }
      ],
      "stateMutability": "view"
    },
    {
      "type": "function",
      "name": "rewardToken",
      "inputs": [],
      "outputs": [
        {
          "name": "",
          "type": "address",
          "internalType": "contract IERC20"
        }
      ],
      "stateMutability": "view"
    },
    {
      "type": "function",
      "name": "sendRewards",
      "inputs": [
        {
          "name": "amountERC20_",
          "type": "uint256",
          "internalType": "uint256"
        },
        {
          "name": "amountCoinbase_",
          "type": "uint256",
          "internalType": "uint256"
        }
      ],
      "outputs": [],
      "stateMutability": "payable"
    },
    {
      "type": "function",
      "name": "sendRewardsAndStartDistribution",
      "inputs": [
        {
          "name": "amountERC20_",
          "type": "uint256",
          "internalType": "uint256"
        },
        {
          "name": "amountCoinbase_",
          "type": "uint256",
          "internalType": "uint256"
        }
      ],
      "outputs": [],
      "stateMutability": "payable"
    },
    {
      "type": "function",
      "name": "sendRewardsAndStartDistributionWithDefaultAmount",
      "inputs": [],
      "outputs": [],
      "stateMutability": "payable"
    },
    {
      "type": "function",
      "name": "sendRewardsWithDefaultAmount",
      "inputs": [],
      "outputs": [],
      "stateMutability": "payable"
    },
    {
      "type": "function",
      "name": "setDefaultRewardAmount",
      "inputs": [
        {
          "name": "tokenAmount_",
          "type": "uint256",
          "internalType": "uint256"
        },
        {
          "name": "coinbaseAmount_",
          "type": "uint256",
          "internalType": "uint256"
        }
      ],
      "outputs": [],
      "stateMutability": "payable"
    },
    {
      "type": "function",
      "name": "upgradeToAndCall",
      "inputs": [
        {
          "name": "newImplementation",
          "type": "address",
          "internalType": "address"
        },
        {
          "name": "data",
          "type": "bytes",
          "internalType": "bytes"
        }
      ],
      "outputs": [],
      "stateMutability": "payable"
    },
    {
      "type": "event",
      "name": "Initialized",
      "inputs": [
        {
          "name": "version",
          "type": "uint64",
          "indexed": false,
          "internalType": "uint64"
        }
      ],
      "anonymous": false
    },
    {
      "type": "event",
      "name": "Upgraded",
      "inputs": [
        {
          "name": "implementation",
          "type": "address",
          "indexed": true,
          "internalType": "address"
        }
      ],
      "anonymous": false
    },
    {
      "type": "error",
      "name": "AddressEmptyCode",
      "inputs": [
        {
          "name": "target",
          "type": "address",
          "internalType": "address"
        }
      ]
    },
    {
      "type": "error",
      "name": "CollectiveRewardsAddressesAlreadyInitialized",
      "inputs": []
    },
    {
      "type": "error",
      "name": "ERC1967InvalidImplementation",
      "inputs": [
        {
          "name": "implementation",
          "type": "address",
          "internalType": "address"
        }
      ]
    },
    {
      "type": "error",
      "name": "ERC1967NonPayable",
      "inputs": []
    },
    {
      "type": "error",
      "name": "FailedInnerCall",
      "inputs": []
    },
    {
      "type": "error",
      "name": "InvalidInitialization",
      "inputs": []
    },
    {
      "type": "error",
      "name": "NotFoundationTreasury",
      "inputs": []
    },
    {
      "type": "error",
      "name": "NotInitializing",
      "inputs": []
    },
    {
      "type": "error",
      "name": "UUPSUnauthorizedCallContext",
      "inputs": []
    },
    {
      "type": "error",
      "name": "UUPSUnsupportedProxiableUUID",
      "inputs": [
        {
          "name": "slot",
          "type": "bytes32",
          "internalType": "bytes32"
        }
      ]
    }
  ],
  "address": "0x8E046041762cA0b3a363813010825535C253e27F",
  "args": [],
  "bytecode": "0x60a06040523060805234801561001457600080fd5b5061001d610022565b6100d4565b7ff0c57e16840df040f15088dc2f81fe391c3923bec73e23a9662efc9c229c6a00805468010000000000000000900460ff16156100725760405163f92ee8a960e01b815260040160405180910390fd5b80546001600160401b03908116146100d15780546001600160401b0319166001600160401b0390811782556040519081527fc7f505b2f371ae2175ee4913f4499e1f2633a7b5936321eed1cdaeb6115181d29060200160405180910390a15b50565b60805161144b6100fd60003960008181610b3f01528181610b680152610e05015261144b6000f3fe6080604052600436106100ec5760003560e01c806352d1902d1161008a578063ad3cb1cc11610059578063ad3cb1cc1461021c578063c4d66de814610272578063d2e6d1c314610292578063f7c618c1146102bf57600080fd5b806352d1902d146101e1578063583ee7ec146101f657806379b45cdd1461020c578063a1cd24341461021457600080fd5b806327fb339f116100c657806327fb339f14610140578063432f9ba31461015357806345fbf0601461017c5780634f1ef286146101ce57600080fd5b806305dc2a80146100f857806319958e301461011a5780631eba00d81461012d57600080fd5b366100f357005b600080fd5b34801561010457600080fd5b50610118610113366004611205565b6102ec565b005b610118610128366004611222565b61043f565b61011861013b366004611222565b610562565b61011861014e366004611222565b6105ee565b34801561015f57600080fd5b5061016960365481565b6040519081526020015b60405180910390f35b34801561018857600080fd5b506034546101a99073ffffffffffffffffffffffffffffffffffffffff1681565b60405173ffffffffffffffffffffffffffffffffffffffff9091168152602001610173565b6101186101dc366004611273565b61067d565b3480156101ed57600080fd5b50610169610698565b34801561020257600080fd5b5061016960355481565b6101186106c7565b6101186107ec565b34801561022857600080fd5b506102656040518060400160405280600581526020017f352e302e3000000000000000000000000000000000000000000000000000000081525081565b6040516101739190611379565b34801561027e57600080fd5b5061011861028d366004611205565b61087d565b34801561029e57600080fd5b506000546101a99073ffffffffffffffffffffffffffffffffffffffff1681565b3480156102cb57600080fd5b506033546101a99073ffffffffffffffffffffffffffffffffffffffff1681565b60345473ffffffffffffffffffffffffffffffffffffffff161561033c576040517f308c2e5900000000000000000000000000000000000000000000000000000000815260040160405180910390fd5b603480547fffffffffffffffffffffffff00000000000000000000000000000000000000001673ffffffffffffffffffffffffffffffffffffffff8316908117909155604080517ff7c618c1000000000000000000000000000000000000000000000000000000008152905163f7c618c1916004808201926020929091908290030181865afa1580156103d3573d6000803e3d6000fd5b505050506040513d601f19601f820116820180604052508101906103f791906113ca565b603380547fffffffffffffffffffffffff00000000000000000000000000000000000000001673ffffffffffffffffffffffffffffffffffffffff9290921691909117905550565b6000546040517fe053dd6100000000000000000000000000000000000000000000000000000000815233600482015273ffffffffffffffffffffffffffffffffffffffff9091169063e053dd619060240160006040518083038186803b1580156104a857600080fd5b505afa1580156104bc573d6000803e3d6000fd5b505050506104ca82826109fd565b603460009054906101000a900473ffffffffffffffffffffffffffffffffffffffff1673ffffffffffffffffffffffffffffffffffffffff1663d83623dd6040518163ffffffff1660e01b81526004016020604051808303816000875af1158015610539573d6000803e3d6000fd5b505050506040513d601f19601f8201168201806040525081019061055d91906113e7565b505050565b6000546040517fe053dd6100000000000000000000000000000000000000000000000000000000815233600482015273ffffffffffffffffffffffffffffffffffffffff9091169063e053dd619060240160006040518083038186803b1580156105cb57600080fd5b505afa1580156105df573d6000803e3d6000fd5b50505060359290925560365550565b6000546040517fe053dd6100000000000000000000000000000000000000000000000000000000815233600482015273ffffffffffffffffffffffffffffffffffffffff9091169063e053dd619060240160006040518083038186803b15801561065757600080fd5b505afa15801561066b573d6000803e3d6000fd5b5050505061067982826109fd565b5050565b610685610b27565b61068e82610c2b565b6106798282610caf565b60006106a2610ded565b507f360894a13ba1a3210667c828492db98dca3e2076cc3735a920a3ca505d382bbc90565b6000546040517fe053dd6100000000000000000000000000000000000000000000000000000000815233600482015273ffffffffffffffffffffffffffffffffffffffff9091169063e053dd619060240160006040518083038186803b15801561073057600080fd5b505afa158015610744573d6000803e3d6000fd5b505050506107566035546036546109fd565b603460009054906101000a900473ffffffffffffffffffffffffffffffffffffffff1673ffffffffffffffffffffffffffffffffffffffff1663d83623dd6040518163ffffffff1660e01b81526004016020604051808303816000875af11580156107c5573d6000803e3d6000fd5b505050506040513d601f19601f820116820180604052508101906107e991906113e7565b50565b6000546040517fe053dd6100000000000000000000000000000000000000000000000000000000815233600482015273ffffffffffffffffffffffffffffffffffffffff9091169063e053dd619060240160006040518083038186803b15801561085557600080fd5b505afa158015610869573d6000803e3d6000fd5b5050505061087b6035546036546109fd565b565b7ff0c57e16840df040f15088dc2f81fe391c3923bec73e23a9662efc9c229c6a00805468010000000000000000810460ff16159067ffffffffffffffff166000811580156108c85750825b905060008267ffffffffffffffff1660011480156108e55750303b155b9050811580156108f3575080155b1561092a576040517ff92ee8a900000000000000000000000000000000000000000000000000000000815260040160405180910390fd5b84547fffffffffffffffffffffffffffffffffffffffffffffffff0000000000000000166001178555831561098b5784547fffffffffffffffffffffffffffffffffffffffffffffff00ffffffffffffffff16680100000000000000001785555b61099486610e5c565b83156109f55784547fffffffffffffffffffffffffffffffffffffffffffffff00ffffffffffffffff168555604051600181527fc7f505b2f371ae2175ee4913f4499e1f2633a7b5936321eed1cdaeb6115181d29060200160405180910390a15b505050505050565b6033546034546040517f095ea7b300000000000000000000000000000000000000000000000000000000815273ffffffffffffffffffffffffffffffffffffffff91821660048201526024810185905291169063095ea7b3906044016020604051808303816000875af1158015610a78573d6000803e3d6000fd5b505050506040513d601f19601f82011682018060405250810190610a9c91906113e7565b506034546040517f3c6b16ab0000000000000000000000000000000000000000000000000000000081526004810184905273ffffffffffffffffffffffffffffffffffffffff90911690633c6b16ab9083906024016000604051808303818588803b158015610b0a57600080fd5b505af1158015610b1e573d6000803e3d6000fd5b50505050505050565b3073ffffffffffffffffffffffffffffffffffffffff7f0000000000000000000000000000000000000000000000000000000000000000161480610bf457507f000000000000000000000000000000000000000000000000000000000000000073ffffffffffffffffffffffffffffffffffffffff16610bdb7f360894a13ba1a3210667c828492db98dca3e2076cc3735a920a3ca505d382bbc5473ffffffffffffffffffffffffffffffffffffffff1690565b73ffffffffffffffffffffffffffffffffffffffff1614155b1561087b576040517fe07c8dba00000000000000000000000000000000000000000000000000000000815260040160405180910390fd5b6000546040517feb6f7abf00000000000000000000000000000000000000000000000000000000815233600482015273ffffffffffffffffffffffffffffffffffffffff9091169063eb6f7abf9060240160006040518083038186803b158015610c9457600080fd5b505afa158015610ca8573d6000803e3d6000fd5b5050505050565b8173ffffffffffffffffffffffffffffffffffffffff166352d1902d6040518163ffffffff1660e01b8152600401602060405180830381865afa925050508015610d34575060408051601f3d9081017fffffffffffffffffffffffffffffffffffffffffffffffffffffffffffffffe0168201909252610d3191810190611409565b60015b610d87576040517f4c9c8ce300000000000000000000000000000000000000000000000000000000815273ffffffffffffffffffffffffffffffffffffffff831660048201526024015b60405180910390fd5b7f360894a13ba1a3210667c828492db98dca3e2076cc3735a920a3ca505d382bbc8114610de3576040517faa1d49a400000000000000000000000000000000000000000000000000000000815260048101829052602401610d7e565b61055d8383610eb3565b3073ffffffffffffffffffffffffffffffffffffffff7f0000000000000000000000000000000000000000000000000000000000000000161461087b576040517fe07c8dba00000000000000000000000000000000000000000000000000000000815260040160405180910390fd5b610e64610f16565b610e6c610f7d565b600080547fffffffffffffffffffffffff00000000000000000000000000000000000000001673ffffffffffffffffffffffffffffffffffffffff92909216919091179055565b610ebc82610f85565b60405173ffffffffffffffffffffffffffffffffffffffff8316907fbc7cd75a20ee27fd9adebab32041f755214dbc6bffa90cc0225b39da2e5c2d3b90600090a2805115610f0e5761055d8282611054565b6106796110d7565b7ff0c57e16840df040f15088dc2f81fe391c3923bec73e23a9662efc9c229c6a005468010000000000000000900460ff1661087b576040517fd7e6bcf800000000000000000000000000000000000000000000000000000000815260040160405180910390fd5b61087b610f16565b8073ffffffffffffffffffffffffffffffffffffffff163b600003610fee576040517f4c9c8ce300000000000000000000000000000000000000000000000000000000815273ffffffffffffffffffffffffffffffffffffffff82166004820152602401610d7e565b7f360894a13ba1a3210667c828492db98dca3e2076cc3735a920a3ca505d382bbc80547fffffffffffffffffffffffff00000000000000000000000000000000000000001673ffffffffffffffffffffffffffffffffffffffff92909216919091179055565b60606000808473ffffffffffffffffffffffffffffffffffffffff168460405161107e9190611422565b600060405180830381855af49150503d80600081146110b9576040519150601f19603f3d011682016040523d82523d6000602084013e6110be565b606091505b50915091506110ce85838361110f565b95945050505050565b341561087b576040517fb398979f00000000000000000000000000000000000000000000000000000000815260040160405180910390fd5b6060826111245761111f826111a1565b61119a565b8151158015611148575073ffffffffffffffffffffffffffffffffffffffff84163b155b15611197576040517f9996b31500000000000000000000000000000000000000000000000000000000815273ffffffffffffffffffffffffffffffffffffffff85166004820152602401610d7e565b50805b9392505050565b8051156111b15780518082602001fd5b6040517f1425ea4200000000000000000000000000000000000000000000000000000000815260040160405180910390fd5b73ffffffffffffffffffffffffffffffffffffffff811681146107e957600080fd5b60006020828403121561121757600080fd5b813561119a816111e3565b6000806040838503121561123557600080fd5b50508035926020909101359150565b7f4e487b7100000000000000000000000000000000000000000000000000000000600052604160045260246000fd5b6000806040838503121561128657600080fd5b8235611291816111e3565b9150602083013567ffffffffffffffff808211156112ae57600080fd5b818501915085601f8301126112c257600080fd5b8135818111156112d4576112d4611244565b604051601f82017fffffffffffffffffffffffffffffffffffffffffffffffffffffffffffffffe0908116603f0116810190838211818310171561131a5761131a611244565b8160405282815288602084870101111561133357600080fd5b8260208601602083013760006020848301015280955050505050509250929050565b60005b83811015611370578181015183820152602001611358565b50506000910152565b6020815260008251806020840152611398816040850160208701611355565b601f017fffffffffffffffffffffffffffffffffffffffffffffffffffffffffffffffe0169190910160400192915050565b6000602082840312156113dc57600080fd5b815161119a816111e3565b6000602082840312156113f957600080fd5b8151801515811461119a57600080fd5b60006020828403121561141b57600080fd5b5051919050565b60008251611434818460208701611355565b919091019291505056fea164736f6c6343000814000a",
  "devdoc": {
    "version": 1,
    "kind": "dev",
    "methods": {
      "constructor": {},
      "initialize(address)": {
        "details": "initializeCollectiveRewardsAddresses() must be called ASAP after this initialization",
        "params": {
          "governanceManager_": "contract with permissioned roles"
        }
      },
      "initializeCollectiveRewardsAddresses(address)": {
        "details": "used to solve circular dependency, backersManager is initialized with this contract address  it must be called ASAP after the initialize.",
        "params": {
          "backersManager_": "BackersManagerRootstockCollective contract address"
        }
      },
      "proxiableUUID()": {
        "details": "Implementation of the ERC1822 {proxiableUUID} function. This returns the storage slot used by the implementation. It is used to validate the implementation's compatibility when performing an upgrade. IMPORTANT: A proxy pointing at a proxiable contract should not be considered proxiable itself, because this risks bricking a proxy that upgrades to it, by delegating to itself until out of gas. Thus it is critical that this function revert if invoked through a proxy. This is guaranteed by the `notDelegated` modifier."
      },
      "sendRewards(uint256,uint256)": {
        "details": "reverts if is not called by foundation treasury address  reverts if rewards balance is insufficient",
        "params": {
          "amountCoinbase_": "amount of Coinbase reward token to send",
          "amountERC20_": "amount of ERC20 reward token to send"
        }
      },
      "sendRewardsAndStartDistribution(uint256,uint256)": {
        "details": "reverts if is not called by foundation treasury address  reverts if rewards balance is insufficient  reverts if is not in the distribution window",
        "params": {
          "amountCoinbase_": "amount of Coinbase reward token to send",
          "amountERC20_": "amount of ERC20 reward token to send"
        }
      },
      "sendRewardsAndStartDistributionWithDefaultAmount()": {
        "details": "reverts if is not called by foundation treasury address"
      },
      "sendRewardsWithDefaultAmount()": {
        "details": "reverts if is not called by foundation treasury address"
      },
      "setDefaultRewardAmount(uint256,uint256)": {
        "details": "reverts if is not called by foundation treasury address",
        "params": {
          "coinbaseAmount_": "default amount of Coinbase reward token to send",
          "tokenAmount_": "default amount of ERC20 reward token to send"
        }
      },
      "upgradeToAndCall(address,bytes)": {
        "details": "Upgrade the implementation of the proxy to `newImplementation`, and subsequently execute the function call encoded in `data`. Calls {_authorizeUpgrade}. Emits an {Upgraded} event."
      }
    },
    "events": {
      "Initialized(uint64)": {
        "details": "Triggered when the contract has been initialized or reinitialized."
      },
      "Upgraded(address)": {
        "details": "Emitted when the implementation is upgraded."
      }
    },
    "errors": {
      "AddressEmptyCode(address)": [
        {
          "details": "There's no code at `target` (it is not a contract)."
        }
      ],
      "ERC1967InvalidImplementation(address)": [
        {
          "details": "The `implementation` of the proxy is invalid."
        }
      ],
      "ERC1967NonPayable()": [
        {
          "details": "An upgrade function sees `msg.value > 0` that may be lost."
        }
      ],
      "FailedInnerCall()": [
        {
          "details": "A call to an address target failed. The target may have reverted."
        }
      ],
      "InvalidInitialization()": [
        {
          "details": "The contract is already initialized."
        }
      ],
      "NotInitializing()": [
        {
          "details": "The contract is not initializing."
        }
      ],
      "UUPSUnauthorizedCallContext()": [
        {
          "details": "The call is from an unauthorized context."
        }
      ],
      "UUPSUnsupportedProxiableUUID(bytes32)": [
        {
          "details": "The storage `slot` is unsupported as a UUID."
        }
      ]
    },
    "title": "RewardDistributorRootstockCollective"
  },
  "numDeployments": 3,
  "solcInputHash": "0x0000000000000000000000000000000000000000000000000000000000000000",
  "storageLayout": {
    "storage": [
      {
        "astId": 60223,
        "contract": "src/RewardDistributorRootstockCollective.sol:RewardDistributorRootstockCollective",
        "label": "governanceManager",
        "offset": 0,
        "slot": "0",
        "type": "t_contract(IGovernanceManagerRootstockCollective)60547"
      },
      {
        "astId": 60255,
        "contract": "src/RewardDistributorRootstockCollective.sol:RewardDistributorRootstockCollective",
        "label": "__gap",
        "offset": 0,
        "slot": "1",
        "type": "t_array(t_uint256)50_storage"
      },
      {
        "astId": 58137,
        "contract": "src/RewardDistributorRootstockCollective.sol:RewardDistributorRootstockCollective",
        "label": "rewardToken",
        "offset": 0,
        "slot": "51",
        "type": "t_contract(IERC20)2025"
      },
      {
        "astId": 58141,
        "contract": "src/RewardDistributorRootstockCollective.sol:RewardDistributorRootstockCollective",
        "label": "backersManager",
        "offset": 0,
        "slot": "52",
        "type": "t_contract(BackersManagerRootstockCollective)56047"
      },
      {
        "astId": 58144,
        "contract": "src/RewardDistributorRootstockCollective.sol:RewardDistributorRootstockCollective",
        "label": "defaultRewardTokenAmount",
        "offset": 0,
        "slot": "53",
        "type": "t_uint256"
      },
      {
        "astId": 58147,
        "contract": "src/RewardDistributorRootstockCollective.sol:RewardDistributorRootstockCollective",
        "label": "defaultRewardCoinbaseAmount",
        "offset": 0,
        "slot": "54",
        "type": "t_uint256"
      },
      {
        "astId": 58327,
        "contract": "src/RewardDistributorRootstockCollective.sol:RewardDistributorRootstockCollective",
        "label": "__gap",
        "offset": 0,
        "slot": "55",
        "type": "t_array(t_uint256)50_storage"
      }
    ],
    "types": {
      "t_array(t_uint256)50_storage": {
        "encoding": "inplace",
        "label": "uint256[50]",
        "numberOfBytes": "1600",
        "base": "t_uint256"
      },
      "t_contract(BackersManagerRootstockCollective)56047": {
        "encoding": "inplace",
        "label": "contract BackersManagerRootstockCollective",
        "numberOfBytes": "20"
      },
      "t_contract(IERC20)2025": {
        "encoding": "inplace",
        "label": "contract IERC20",
        "numberOfBytes": "20"
      },
      "t_contract(IGovernanceManagerRootstockCollective)60547": {
        "encoding": "inplace",
        "label": "contract IGovernanceManagerRootstockCollective",
        "numberOfBytes": "20"
      },
      "t_uint256": {
        "encoding": "inplace",
        "label": "uint256",
        "numberOfBytes": "32"
      }
    }
  },
  "transactionHash": "0xdd310eab2475221a69a6baf427e0778cd8dea4d0273d96b86ba938a87c3cc9c6",
  "userdoc": {
    "version": 1,
    "kind": "user",
    "methods": {
      "backersManager()": {
        "notice": "BackersManagerRootstockCollective contract address"
      },
      "defaultRewardCoinbaseAmount()": {
        "notice": "default reward coinbase amount"
      },
      "defaultRewardTokenAmount()": {
        "notice": "default reward token amount"
      },
      "initialize(address)": {
        "notice": "contract initializer"
      },
      "initializeCollectiveRewardsAddresses(address)": {
        "notice": "CollectiveRewards addresses initializer"
      },
      "rewardToken()": {
        "notice": "address of the token rewarded to builder and backers"
      },
      "sendRewards(uint256,uint256)": {
        "notice": "sends rewards to backersManager contract to be distributed to the gauges"
      },
      "sendRewardsAndStartDistribution(uint256,uint256)": {
        "notice": "sends rewards to backersManager contract and starts the distribution to the gauges"
      },
      "sendRewardsAndStartDistributionWithDefaultAmount()": {
        "notice": "sends rewards to backersManager contract with default amounts and starts the distribution"
      },
      "sendRewardsWithDefaultAmount()": {
        "notice": "sends rewards to backersManager contract with default amounts"
      },
      "setDefaultRewardAmount(uint256,uint256)": {
        "notice": "sets the default reward amounts"
      }
    },
    "notice": "Accumulates all the rewards to be distributed for each cycle"
  }
}